{
  "contractName": "ERC1155MixedFungible",
  "abi": [
    {
      "constant": true,
      "inputs": [
        {
          "name": "_interfaceId",
          "type": "bytes4"
        }
      ],
      "name": "supportsInterface",
      "outputs": [
        {
          "name": "",
          "type": "bool"
        }
      ],
      "payable": false,
      "stateMutability": "view",
      "type": "function"
    },
    {
      "constant": false,
      "inputs": [
        {
          "name": "_operator",
          "type": "address"
        },
        {
          "name": "_approved",
          "type": "bool"
        }
      ],
      "name": "setApprovalForAll",
      "outputs": [],
      "payable": false,
      "stateMutability": "nonpayable",
      "type": "function"
    },
    {
      "constant": true,
      "inputs": [
        {
          "name": "_owner",
          "type": "address"
        },
        {
          "name": "_operator",
          "type": "address"
        }
      ],
      "name": "isApprovedForAll",
      "outputs": [
        {
          "name": "",
          "type": "bool"
        }
      ],
      "payable": false,
      "stateMutability": "view",
      "type": "function"
    },
    {
      "anonymous": false,
      "inputs": [
        {
          "indexed": true,
          "name": "_operator",
          "type": "address"
        },
        {
          "indexed": true,
          "name": "_from",
          "type": "address"
        },
        {
          "indexed": true,
          "name": "_to",
          "type": "address"
        },
        {
          "indexed": false,
          "name": "_id",
          "type": "uint256"
        },
        {
          "indexed": false,
          "name": "_value",
          "type": "uint256"
        }
      ],
      "name": "TransferSingle",
      "type": "event"
    },
    {
      "anonymous": false,
      "inputs": [
        {
          "indexed": true,
          "name": "_operator",
          "type": "address"
        },
        {
          "indexed": true,
          "name": "_from",
          "type": "address"
        },
        {
          "indexed": true,
          "name": "_to",
          "type": "address"
        },
        {
          "indexed": false,
          "name": "_ids",
          "type": "uint256[]"
        },
        {
          "indexed": false,
          "name": "_values",
          "type": "uint256[]"
        }
      ],
      "name": "TransferBatch",
      "type": "event"
    },
    {
      "anonymous": false,
      "inputs": [
        {
          "indexed": true,
          "name": "_owner",
          "type": "address"
        },
        {
          "indexed": true,
          "name": "_operator",
          "type": "address"
        },
        {
          "indexed": false,
          "name": "_approved",
          "type": "bool"
        }
      ],
      "name": "ApprovalForAll",
      "type": "event"
    },
    {
      "anonymous": false,
      "inputs": [
        {
          "indexed": false,
          "name": "_value",
          "type": "string"
        },
        {
          "indexed": true,
          "name": "_id",
          "type": "uint256"
        }
      ],
      "name": "URI",
      "type": "event"
    },
    {
      "constant": true,
      "inputs": [
        {
          "name": "_id",
          "type": "uint256"
        }
      ],
      "name": "isNonFungible",
      "outputs": [
        {
          "name": "",
          "type": "bool"
        }
      ],
      "payable": false,
      "stateMutability": "pure",
      "type": "function"
    },
    {
      "constant": true,
      "inputs": [
        {
          "name": "_id",
          "type": "uint256"
        }
      ],
      "name": "isFungible",
      "outputs": [
        {
          "name": "",
          "type": "bool"
        }
      ],
      "payable": false,
      "stateMutability": "pure",
      "type": "function"
    },
    {
      "constant": true,
      "inputs": [
        {
          "name": "_id",
          "type": "uint256"
        }
      ],
      "name": "getNonFungibleIndex",
      "outputs": [
        {
          "name": "",
          "type": "uint256"
        }
      ],
      "payable": false,
      "stateMutability": "pure",
      "type": "function"
    },
    {
      "constant": true,
      "inputs": [
        {
          "name": "_id",
          "type": "uint256"
        }
      ],
      "name": "getNonFungibleBaseType",
      "outputs": [
        {
          "name": "",
          "type": "uint256"
        }
      ],
      "payable": false,
      "stateMutability": "pure",
      "type": "function"
    },
    {
      "constant": true,
      "inputs": [
        {
          "name": "_id",
          "type": "uint256"
        }
      ],
      "name": "isNonFungibleBaseType",
      "outputs": [
        {
          "name": "",
          "type": "bool"
        }
      ],
      "payable": false,
      "stateMutability": "pure",
      "type": "function"
    },
    {
      "constant": true,
      "inputs": [
        {
          "name": "_id",
          "type": "uint256"
        }
      ],
      "name": "isNonFungibleItem",
      "outputs": [
        {
          "name": "",
          "type": "bool"
        }
      ],
      "payable": false,
      "stateMutability": "pure",
      "type": "function"
    },
    {
      "constant": true,
      "inputs": [
        {
          "name": "_id",
          "type": "uint256"
        }
      ],
      "name": "ownerOf",
      "outputs": [
        {
          "name": "",
          "type": "address"
        }
      ],
      "payable": false,
      "stateMutability": "view",
      "type": "function"
    },
    {
      "constant": false,
      "inputs": [
        {
          "name": "_from",
          "type": "address"
        },
        {
          "name": "_to",
          "type": "address"
        },
        {
          "name": "_id",
          "type": "uint256"
        },
        {
          "name": "_value",
          "type": "uint256"
        },
        {
          "name": "_data",
          "type": "bytes"
        }
      ],
      "name": "safeTransferFrom",
      "outputs": [],
      "payable": false,
      "stateMutability": "nonpayable",
      "type": "function"
    },
    {
      "constant": false,
      "inputs": [
        {
          "name": "_from",
          "type": "address"
        },
        {
          "name": "_to",
          "type": "address"
        },
        {
          "name": "_ids",
          "type": "uint256[]"
        },
        {
          "name": "_values",
          "type": "uint256[]"
        },
        {
          "name": "_data",
          "type": "bytes"
        }
      ],
      "name": "safeBatchTransferFrom",
      "outputs": [],
      "payable": false,
      "stateMutability": "nonpayable",
      "type": "function"
    },
    {
      "constant": true,
      "inputs": [
        {
          "name": "_owner",
          "type": "address"
        },
        {
          "name": "_id",
          "type": "uint256"
        }
      ],
      "name": "balanceOf",
      "outputs": [
        {
          "name": "",
          "type": "uint256"
        }
      ],
      "payable": false,
      "stateMutability": "view",
      "type": "function"
    },
    {
      "constant": true,
      "inputs": [
        {
          "name": "_owners",
          "type": "address[]"
        },
        {
          "name": "_ids",
          "type": "uint256[]"
        }
      ],
      "name": "balanceOfBatch",
      "outputs": [
        {
          "name": "",
          "type": "uint256[]"
        }
      ],
      "payable": false,
      "stateMutability": "view",
      "type": "function"
    }
  ],
  "bytecode": "0x608060405234801561001057600080fd5b506115c4806100206000396000f3fe6080604052600436106100b55763ffffffff60e060020a600035041662fdd58e81146100ba57806301ffc9a7146101055780632eb2c2d61461014d5780634e1273f4146102895780635e81b958146103a85780636352211e146103d25780636f969c2d146104185780637269a327146104425780639cca1c641461046c578063a22cb46514610496578063adebf6f2146104d1578063e44591f0146104fb578063e985e9c514610525578063f242432a14610560575b600080fd5b3480156100c657600080fd5b506100f3600480360360408110156100dd57600080fd5b50600160a060020a038135169060200135610602565b60408051918252519081900360200190f35b34801561011157600080fd5b506101396004803603602081101561012857600080fd5b5035600160e060020a031916610670565b604080519115158252519081900360200190f35b34801561015957600080fd5b50610287600480360360a081101561017057600080fd5b600160a060020a0382358116926020810135909116918101906060810160408201356401000000008111156101a457600080fd5b8201836020820111156101b657600080fd5b803590602001918460208302840111640100000000831117156101d857600080fd5b9193909290916020810190356401000000008111156101f657600080fd5b82018360208201111561020857600080fd5b8035906020019184602083028401116401000000008311171561022a57600080fd5b91939092909160208101903564010000000081111561024857600080fd5b82018360208201111561025a57600080fd5b8035906020019184600183028401116401000000008311171561027c57600080fd5b5090925090506106e9565b005b34801561029557600080fd5b50610358600480360360408110156102ac57600080fd5b8101906020810181356401000000008111156102c757600080fd5b8201836020820111156102d957600080fd5b803590602001918460208302840111640100000000831117156102fb57600080fd5b91939092909160208101903564010000000081111561031957600080fd5b82018360208201111561032b57600080fd5b8035906020019184602083028401116401000000008311171561034d57600080fd5b509092509050610b57565b60408051602080825283518183015283519192839290830191858101910280838360005b8381101561039457818101518382015260200161037c565b505050509050019250505060405180910390f35b3480156103b457600080fd5b50610139600480360360208110156103cb57600080fd5b5035610ca2565b3480156103de57600080fd5b506103fc600480360360208110156103f557600080fd5b5035610ccc565b60408051600160a060020a039092168252519081900360200190f35b34801561042457600080fd5b506100f36004803603602081101561043b57600080fd5b5035610ce7565b34801561044e57600080fd5b506101396004803603602081101561046557600080fd5b5035610cfd565b34801561047857600080fd5b506100f36004803603602081101561048f57600080fd5b5035610d26565b3480156104a257600080fd5b50610287600480360360408110156104b957600080fd5b50600160a060020a0381351690602001351515610d3b565b3480156104dd57600080fd5b50610139600480360360208110156104f457600080fd5b5035610da9565b34801561050757600080fd5b506101396004803603602081101561051e57600080fd5b5035610db3565b34801561053157600080fd5b506101396004803603604081101561054857600080fd5b50600160a060020a0381358116916020013516610dbf565b34801561056c57600080fd5b50610287600480360360a081101561058357600080fd5b600160a060020a03823581169260208101359091169160408201359160608101359181019060a0810160808201356401000000008111156105c357600080fd5b8201836020820111156105d557600080fd5b803590602001918460018302840111640100000000831117156105f757600080fd5b509092509050610ded565b600061060d82610ca2565b1561064757600082815260026020526040902054600160a060020a0384811691161461063a57600061063d565b60015b60ff16905061066a565b50600081815260208181526040808320600160a060020a03861684529091529020545b92915050565b6000600160e060020a031982167f01ffc9a70000000000000000000000000000000000000000000000000000000014806106d35750600160e060020a031982167fd9b67a2600000000000000000000000000000000000000000000000000000000145b156106e0575060016106e4565b5060005b919050565b600160a060020a0387161515610749576040805160e560020a62461bcd02815260206004820152601b60248201527f63616e6e6f742073656e6420746f207a65726f20616464726573730000000000604482015290519081900360640190fd5b8483146107a0576040805160e560020a62461bcd02815260206004820152601760248201527f4172726179206c656e677468206d757374206d61746368000000000000000000604482015290519081900360640190fd5b600160a060020a0388163314806107de5750600160a060020a03881660009081526001602081815260408084203385529091529091205460ff161515145b151561085a576040805160e560020a62461bcd02815260206004820152602f60248201527f4e656564206f70657261746f7220617070726f76616c20666f7220337264207060448201527f61727479207472616e73666572732e0000000000000000000000000000000000606482015290519081900360840190fd5b60005b858110156109e057600087878381811061087357fe5b9050602002013590506000868684818110151561088c57fe5b90506020020135905061089e82610db3565b1561090257600082815260026020526040902054600160a060020a038c81169116146108c957600080fd5b6000828152600260205260409020805473ffffffffffffffffffffffffffffffffffffffff1916600160a060020a038c161790556109d6565b600082815260208181526040808320600160a060020a038f168452909152902054610933908263ffffffff6110bc16565b60008084815260200190815260200160002060008d600160a060020a0316600160a060020a03168152602001908152602001600020819055506109b460008084815260200190815260200160002060008c600160a060020a0316600160a060020a03168152602001908152602001600020548261111c90919063ffffffff16565b600083815260208181526040808320600160a060020a038f1684529091529020555b505060010161085d565b5086600160a060020a031688600160a060020a031633600160a060020a03167f4a39dc06d4c0dbc64b70af90fd698a233a518aa5d07e595d983b8c0526c8f7fb898989896040518080602001806020018381038352878782818152602001925060200280828437600083820152601f01601f19169091018481038352858152602090810191508690860280828437600083820152604051601f909101601f19169092018290039850909650505050505050a4610aa487600160a060020a0316611180565b15610b4d57610b4d33898989898080602002602001604051908101604052809392919081815260200183836020028082843760009201919091525050604080516020808d0282810182019093528c82529093508c92508b91829185019084908082843760009201919091525050604080516020601f8c018190048102820181019092528a815292508a915089908190840183828082843760009201919091525061118892505050565b5050505050505050565b6060838214610b6557600080fd5b604080518581526020808702820101909152606090858015610b91578160200160208202803883390190505b50905060005b85811015610c98576000858583818110610bad57fe5b905060200201359050610bbf81610ca2565b15610c2a57878783818110610bd057fe5b60008481526002602090815260409091205491029290920135600160a060020a039081169216919091149050610c07576000610c0a565b60015b60ff168383815181101515610c1b57fe5b60209081029091010152610c8f565b600081815260208190526040812090898985818110610c4557fe5b90506020020135600160a060020a0316600160a060020a0316600160a060020a03168152602001908152602001600020548383815181101515610c8457fe5b602090810290910101525b50600101610b97565b5095945050505050565b600060ff60020a80831614801561066a5750506fffffffffffffffffffffffffffffffff16151590565b600090815260026020526040902054600160a060020a031690565b6fffffffffffffffffffffffffffffffff191690565b600060ff60020a80831614801561066a5750506fffffffffffffffffffffffffffffffff161590565b6fffffffffffffffffffffffffffffffff1690565b336000818152600160209081526040808320600160a060020a03871680855290835292819020805460ff1916861515908117909155815190815290519293927f17307eab39ab6107e8899845ad3d59bd9653f200f220920489ca2b5937696c31929181900390910190a35050565b60ff60020a161590565b60ff60020a9081161490565b600160a060020a03918216600090815260016020908152604080832093909416825291909152205460ff1690565b600160a060020a0385161515610e4d576040805160e560020a62461bcd02815260206004820152601b60248201527f63616e6e6f742073656e6420746f207a65726f20616464726573730000000000604482015290519081900360640190fd5b600160a060020a038616331480610e8b5750600160a060020a03861660009081526001602081815260408084203385529091529091205460ff161515145b1515610f07576040805160e560020a62461bcd02815260206004820152602f60248201527f4e656564206f70657261746f7220617070726f76616c20666f7220337264207060448201527f61727479207472616e73666572732e0000000000000000000000000000000000606482015290519081900360840190fd5b610f1084610db3565b15610f7457600084815260026020526040902054600160a060020a03878116911614610f3b57600080fd5b6000848152600260205260409020805473ffffffffffffffffffffffffffffffffffffffff1916600160a060020a038716179055610ffc565b600084815260208181526040808320600160a060020a038a168452909152902054610fa5908463ffffffff6110bc16565b600085815260208181526040808320600160a060020a038b81168552925280832093909355871681522054610fda908461111c565b600085815260208181526040808320600160a060020a038a1684529091529020555b84600160a060020a031686600160a060020a031633600160a060020a03167fc3d58168c5ae7397731d063d5bbf3d657854427343f4c083240f7aacaa2d0f628787604051808381526020018281526020019250505060405180910390a461106b85600160a060020a0316611180565b156110b4576110b4338787878787878080601f0160208091040260200160405190810160405280939291908181526020018383808284376000920191909152506113ce92505050565b505050505050565b600082821115611116576040805160e560020a62461bcd02815260206004820152601e60248201527f536166654d6174683a207375627472616374696f6e206f766572666c6f770000604482015290519081900360640190fd5b50900390565b600082820183811015611179576040805160e560020a62461bcd02815260206004820152601b60248201527f536166654d6174683a206164646974696f6e206f766572666c6f770000000000604482015290519081900360640190fd5b9392505050565b6000903b1190565b63bc197c8160e060020a027bffffffffffffffffffffffffffffffffffffffffffffffffffffffff191684600160a060020a031663bc197c8188888787876040518663ffffffff1660e060020a0281526004018086600160a060020a0316600160a060020a0316815260200185600160a060020a0316600160a060020a03168152602001806020018060200180602001848103845287818151815260200191508051906020019060200280838360005b83811015611250578181015183820152602001611238565b50505050905001848103835286818151815260200191508051906020019060200280838360005b8381101561128f578181015183820152602001611277565b50505050905001848103825285818151815260200191508051906020019080838360005b838110156112cb5781810151838201526020016112b3565b50505050905090810190601f1680156112f85780820380516001836020036101000a031916815260200191505b5098505050505050505050602060405180830381600087803b15801561131d57600080fd5b505af1158015611331573d6000803e3d6000fd5b505050506040513d602081101561134757600080fd5b5051600160e060020a031916146110b4576040805160e560020a62461bcd02815260206004820152603e60248201527f636f6e74726163742072657475726e656420616e20756e6b6e6f776e2076616c60448201527f75652066726f6d206f6e45524331313535426174636852656365697665640000606482015290519081900360840190fd5b63f23a6e6160e060020a027bffffffffffffffffffffffffffffffffffffffffffffffffffffffff191684600160a060020a031663f23a6e6188888787876040518663ffffffff1660e060020a0281526004018086600160a060020a0316600160a060020a0316815260200185600160a060020a0316600160a060020a0316815260200184815260200183815260200180602001828103825283818151815260200191508051906020019080838360005b8381101561149757818101518382015260200161147f565b50505050905090810190601f1680156114c45780820380516001836020036101000a031916815260200191505b509650505050505050602060405180830381600087803b1580156114e757600080fd5b505af11580156114fb573d6000803e3d6000fd5b505050506040513d602081101561151157600080fd5b5051600160e060020a031916146110b4576040805160e560020a62461bcd02815260206004820152603960248201527f636f6e74726163742072657475726e656420616e20756e6b6e6f776e2076616c60448201527f75652066726f6d206f6e45524331313535526563656976656400000000000000606482015290519081900360840190fdfea165627a7a72305820c75e4b61a0a6b4136d2d4802ed1583958e44120aac1ff599adfd25311b31ddf10029",
  "source": "pragma solidity ^0.5.0;\r\n\r\nimport \"./ERC1155.sol\";\r\n\r\n/**\r\n    @dev Extension to ERC1155 for Mixed Fungible and Non-Fungible Items support\r\n    The main benefit is sharing of common type information, just like you do when\r\n    creating a fungible id.\r\n*/\r\ncontract ERC1155MixedFungible is ERC1155 {\r\n\r\n    // Use a split bit implementation.\r\n    // Store the type in the upper 128 bits..\r\n    uint256 constant TYPE_MASK = uint256(uint128(~0)) << 128;\r\n\r\n    // ..and the non-fungible index in the lower 128\r\n    uint256 constant NF_INDEX_MASK = uint128(~0);\r\n\r\n    // The top bit is a flag to tell if this is a NFI.\r\n    uint256 constant TYPE_NF_BIT = 1 << 255;\r\n\r\n    mapping (uint256 => address) nfOwners;\r\n\r\n    // Only to make code clearer. Should not be functions\r\n    function isNonFungible(uint256 _id) public pure returns(bool) {\r\n        return _id & TYPE_NF_BIT == TYPE_NF_BIT;\r\n    }\r\n    function isFungible(uint256 _id) public pure returns(bool) {\r\n        return _id & TYPE_NF_BIT == 0;\r\n    }\r\n    function getNonFungibleIndex(uint256 _id) public pure returns(uint256) {\r\n        return _id & NF_INDEX_MASK;\r\n    }\r\n    function getNonFungibleBaseType(uint256 _id) public pure returns(uint256) {\r\n        return _id & TYPE_MASK;\r\n    }\r\n    function isNonFungibleBaseType(uint256 _id) public pure returns(bool) {\r\n        // A base type has the NF bit but does not have an index.\r\n        return (_id & TYPE_NF_BIT == TYPE_NF_BIT) && (_id & NF_INDEX_MASK == 0);\r\n    }\r\n    function isNonFungibleItem(uint256 _id) public pure returns(bool) {\r\n        // A base type has the NF bit but does has an index.\r\n        return (_id & TYPE_NF_BIT == TYPE_NF_BIT) && (_id & NF_INDEX_MASK != 0);\r\n    }\r\n    function ownerOf(uint256 _id) public view returns (address) {\r\n        return nfOwners[_id];\r\n    }\r\n\r\n    // override\r\n    function safeTransferFrom(address _from, address _to, uint256 _id, uint256 _value, bytes calldata _data) external {\r\n\r\n        require(_to != address(0x0), \"cannot send to zero address\");\r\n        require(_from == msg.sender || operatorApproval[_from][msg.sender] == true, \"Need operator approval for 3rd party transfers.\");\r\n\r\n        if (isNonFungible(_id)) {\r\n            require(nfOwners[_id] == _from);\r\n            nfOwners[_id] = _to;\r\n            // You could keep balance of NF type in base type id like so:\r\n            // uint256 baseType = getNonFungibleBaseType(_id);\r\n            // balances[baseType][_from] = balances[baseType][_from].sub(_value);\r\n            // balances[baseType][_to]   = balances[baseType][_to].add(_value);\r\n        } else {\r\n            balances[_id][_from] = balances[_id][_from].sub(_value);\r\n            balances[_id][_to]   = balances[_id][_to].add(_value);\r\n        }\r\n\r\n        emit TransferSingle(msg.sender, _from, _to, _id, _value);\r\n\r\n        if (_to.isContract()) {\r\n            _doSafeTransferAcceptanceCheck(msg.sender, _from, _to, _id, _value, _data);\r\n        }\r\n    }\r\n\r\n    // override\r\n    function safeBatchTransferFrom(address _from, address _to, uint256[] calldata _ids, uint256[] calldata _values, bytes calldata _data) external {\r\n\r\n        require(_to != address(0x0), \"cannot send to zero address\");\r\n        require(_ids.length == _values.length, \"Array length must match\");\r\n\r\n        // Only supporting a global operator approval allows us to do only 1 check and not to touch storage to handle allowances.\r\n        require(_from == msg.sender || operatorApproval[_from][msg.sender] == true, \"Need operator approval for 3rd party transfers.\");\r\n\r\n        for (uint256 i = 0; i < _ids.length; ++i) {\r\n            // Cache value to local variable to reduce read costs.\r\n            uint256 id = _ids[i];\r\n            uint256 value = _values[i];\r\n\r\n            if (isNonFungible(id)) {\r\n                require(nfOwners[id] == _from);\r\n                nfOwners[id] = _to;\r\n            } else {\r\n                balances[id][_from] = balances[id][_from].sub(value);\r\n                balances[id][_to]   = value.add(balances[id][_to]);\r\n            }\r\n        }\r\n\r\n        emit TransferBatch(msg.sender, _from, _to, _ids, _values);\r\n\r\n        if (_to.isContract()) {\r\n            _doSafeBatchTransferAcceptanceCheck(msg.sender, _from, _to, _ids, _values, _data);\r\n        }\r\n    }\r\n\r\n    function balanceOf(address _owner, uint256 _id) external view returns (uint256) {\r\n        if (isNonFungibleItem(_id))\r\n            return nfOwners[_id] == _owner ? 1 : 0;\r\n        return balances[_id][_owner];\r\n    }\r\n\r\n    function balanceOfBatch(address[] calldata _owners, uint256[] calldata _ids) external view returns (uint256[] memory) {\r\n\r\n        require(_owners.length == _ids.length);\r\n\r\n        uint256[] memory balances_ = new uint256[](_owners.length);\r\n\r\n        for (uint256 i = 0; i < _owners.length; ++i) {\r\n            uint256 id = _ids[i];\r\n            if (isNonFungibleItem(id)) {\r\n                balances_[i] = nfOwners[id] == _owners[i] ? 1 : 0;\r\n            } else {\r\n            \tbalances_[i] = balances[id][_owners[i]];\r\n            }\r\n        }\r\n\r\n        return balances_;\r\n    }\r\n}\r\n",
  "sourcePath": "C:\\Users\\tredg\\Providentia\\contracts\\ERC1155MixedFungible.sol",
  "compiler": {
    "name": "solc",
    "version": "0.5.0+commit.1d4f565a.Emscripten.clang"
  },
  "schemaVersion": "3.0.11",
  "updatedAt": "2019-07-07T14:18:21.918Z",
  "devdoc": {
    "details": "Extension to ERC1155 for Mixed Fungible and Non-Fungible Items support\r The main benefit is sharing of common type information, just like you do when\r creating a fungible id.\r",
    "methods": {
      "isApprovedForAll(address,address)": {
        "params": {
          "_operator": "Address of authorized operator\r",
          "_owner": "The owner of the Tokens\r"
        },
        "return": "True if the operator is approved, false if not\r"
      },
      "setApprovalForAll(address,bool)": {
        "details": "MUST emit the ApprovalForAll event on success.\r",
        "params": {
          "_approved": "True if the operator is approved, false to revoke approval\r",
          "_operator": "Address to add to the set of authorized operators\r"
        }
      }
    }
  },
  "userdoc": {
    "methods": {
      "isApprovedForAll(address,address)": {
        "notice": "Queries the approval status of an operator for a given owner.\r"
      },
      "setApprovalForAll(address,bool)": {
        "notice": "Enable or disable approval for a third party (\"operator\") to manage all of the caller's tokens.\r"
      }
    }
  }
}