{
  "contractName": "Providentia",
  "abi": [
    {
      "constant": true,
      "inputs": [
        {
          "name": "_owner",
          "type": "address"
        },
        {
          "name": "_id",
          "type": "uint256"
        }
      ],
      "name": "balanceOf",
      "outputs": [
        {
          "name": "",
          "type": "uint256"
        }
      ],
      "payable": false,
      "stateMutability": "view",
      "type": "function"
    },
    {
      "constant": true,
      "inputs": [
        {
          "name": "_interfaceId",
          "type": "bytes4"
        }
      ],
      "name": "supportsInterface",
      "outputs": [
        {
          "name": "",
          "type": "bool"
        }
      ],
      "payable": false,
      "stateMutability": "view",
      "type": "function"
    },
    {
      "constant": true,
      "inputs": [
        {
          "name": "",
          "type": "uint256"
        }
      ],
      "name": "maxIndex",
      "outputs": [
        {
          "name": "",
          "type": "uint256"
        }
      ],
      "payable": false,
      "stateMutability": "view",
      "type": "function"
    },
    {
      "constant": false,
      "inputs": [
        {
          "name": "spender",
          "type": "address"
        },
        {
          "name": "value",
          "type": "uint256"
        }
      ],
      "name": "approve",
      "outputs": [
        {
          "name": "",
          "type": "bool"
        }
      ],
      "payable": false,
      "stateMutability": "nonpayable",
      "type": "function"
    },
    {
      "constant": true,
      "inputs": [],
      "name": "totalSupply",
      "outputs": [
        {
          "name": "",
          "type": "uint256"
        }
      ],
      "payable": false,
      "stateMutability": "view",
      "type": "function"
    },
    {
      "constant": true,
      "inputs": [
        {
          "name": "",
          "type": "address"
        }
      ],
      "name": "addressToBalance",
      "outputs": [
        {
          "name": "",
          "type": "uint256"
        }
      ],
      "payable": false,
      "stateMutability": "view",
      "type": "function"
    },
    {
      "constant": false,
      "inputs": [
        {
          "name": "sender",
          "type": "address"
        },
        {
          "name": "recipient",
          "type": "address"
        },
        {
          "name": "amount",
          "type": "uint256"
        }
      ],
      "name": "transferFrom",
      "outputs": [
        {
          "name": "",
          "type": "bool"
        }
      ],
      "payable": false,
      "stateMutability": "nonpayable",
      "type": "function"
    },
    {
      "constant": false,
      "inputs": [
        {
          "name": "_from",
          "type": "address"
        },
        {
          "name": "_to",
          "type": "address"
        },
        {
          "name": "_ids",
          "type": "uint256[]"
        },
        {
          "name": "_values",
          "type": "uint256[]"
        },
        {
          "name": "_data",
          "type": "bytes"
        }
      ],
      "name": "safeBatchTransferFrom",
      "outputs": [],
      "payable": false,
      "stateMutability": "nonpayable",
      "type": "function"
    },
    {
      "constant": false,
      "inputs": [
        {
          "name": "spender",
          "type": "address"
        },
        {
          "name": "addedValue",
          "type": "uint256"
        }
      ],
      "name": "increaseAllowance",
      "outputs": [
        {
          "name": "",
          "type": "bool"
        }
      ],
      "payable": false,
      "stateMutability": "nonpayable",
      "type": "function"
    },
    {
      "constant": true,
      "inputs": [
        {
          "name": "_owners",
          "type": "address[]"
        },
        {
          "name": "_ids",
          "type": "uint256[]"
        }
      ],
      "name": "balanceOfBatch",
      "outputs": [
        {
          "name": "",
          "type": "uint256[]"
        }
      ],
      "payable": false,
      "stateMutability": "view",
      "type": "function"
    },
    {
      "constant": true,
      "inputs": [
        {
          "name": "",
          "type": "uint256"
        }
      ],
      "name": "Students",
      "outputs": [
        {
          "name": "addressStudent",
          "type": "address"
        },
        {
          "name": "studentId",
          "type": "uint256"
        },
        {
          "name": "name",
          "type": "string"
        },
        {
          "name": "age",
          "type": "uint256"
        },
        {
          "name": "country",
          "type": "string"
        },
        {
          "name": "university",
          "type": "string"
        },
        {
          "name": "profAccount",
          "type": "string"
        },
        {
          "name": "idNFT",
          "type": "uint256"
        }
      ],
      "payable": false,
      "stateMutability": "view",
      "type": "function"
    },
    {
      "constant": true,
      "inputs": [
        {
          "name": "_id",
          "type": "uint256"
        }
      ],
      "name": "isNonFungibleItem",
      "outputs": [
        {
          "name": "",
          "type": "bool"
        }
      ],
      "payable": false,
      "stateMutability": "pure",
      "type": "function"
    },
    {
      "constant": true,
      "inputs": [
        {
          "name": "_id",
          "type": "uint256"
        }
      ],
      "name": "ownerOf",
      "outputs": [
        {
          "name": "",
          "type": "address"
        }
      ],
      "payable": false,
      "stateMutability": "view",
      "type": "function"
    },
    {
      "constant": true,
      "inputs": [
        {
          "name": "_id",
          "type": "uint256"
        }
      ],
      "name": "getNonFungibleBaseType",
      "outputs": [
        {
          "name": "",
          "type": "uint256"
        }
      ],
      "payable": false,
      "stateMutability": "pure",
      "type": "function"
    },
    {
      "constant": true,
      "inputs": [
        {
          "name": "account",
          "type": "address"
        }
      ],
      "name": "balanceOf",
      "outputs": [
        {
          "name": "",
          "type": "uint256"
        }
      ],
      "payable": false,
      "stateMutability": "view",
      "type": "function"
    },
    {
      "constant": false,
      "inputs": [],
      "name": "renounceOwnership",
      "outputs": [],
      "payable": false,
      "stateMutability": "nonpayable",
      "type": "function"
    },
    {
      "constant": true,
      "inputs": [
        {
          "name": "_id",
          "type": "uint256"
        }
      ],
      "name": "isNonFungibleBaseType",
      "outputs": [
        {
          "name": "",
          "type": "bool"
        }
      ],
      "payable": false,
      "stateMutability": "pure",
      "type": "function"
    },
    {
      "constant": true,
      "inputs": [
        {
          "name": "",
          "type": "address"
        }
      ],
      "name": "addressToData",
      "outputs": [
        {
          "name": "addressStudent",
          "type": "address"
        },
        {
          "name": "studentId",
          "type": "uint256"
        },
        {
          "name": "name",
          "type": "string"
        },
        {
          "name": "age",
          "type": "uint256"
        },
        {
          "name": "country",
          "type": "string"
        },
        {
          "name": "university",
          "type": "string"
        },
        {
          "name": "profAccount",
          "type": "string"
        },
        {
          "name": "idNFT",
          "type": "uint256"
        }
      ],
      "payable": false,
      "stateMutability": "view",
      "type": "function"
    },
    {
      "constant": false,
      "inputs": [
        {
          "name": "_id",
          "type": "uint256"
        },
        {
          "name": "_to",
          "type": "address[]"
        },
        {
          "name": "_quantities",
          "type": "uint256[]"
        }
      ],
      "name": "mintFungible",
      "outputs": [],
      "payable": false,
      "stateMutability": "nonpayable",
      "type": "function"
    },
    {
      "constant": true,
      "inputs": [],
      "name": "owner",
      "outputs": [
        {
          "name": "",
          "type": "address"
        }
      ],
      "payable": false,
      "stateMutability": "view",
      "type": "function"
    },
    {
      "constant": true,
      "inputs": [],
      "name": "isOwner",
      "outputs": [
        {
          "name": "",
          "type": "bool"
        }
      ],
      "payable": false,
      "stateMutability": "view",
      "type": "function"
    },
    {
      "constant": true,
      "inputs": [
        {
          "name": "_id",
          "type": "uint256"
        }
      ],
      "name": "getNonFungibleIndex",
      "outputs": [
        {
          "name": "",
          "type": "uint256"
        }
      ],
      "payable": false,
      "stateMutability": "pure",
      "type": "function"
    },
    {
      "constant": false,
      "inputs": [
        {
          "name": "_operator",
          "type": "address"
        },
        {
          "name": "_approved",
          "type": "bool"
        }
      ],
      "name": "setApprovalForAll",
      "outputs": [],
      "payable": false,
      "stateMutability": "nonpayable",
      "type": "function"
    },
    {
      "constant": false,
      "inputs": [
        {
          "name": "spender",
          "type": "address"
        },
        {
          "name": "subtractedValue",
          "type": "uint256"
        }
      ],
      "name": "decreaseAllowance",
      "outputs": [
        {
          "name": "",
          "type": "bool"
        }
      ],
      "payable": false,
      "stateMutability": "nonpayable",
      "type": "function"
    },
    {
      "constant": false,
      "inputs": [
        {
          "name": "recipient",
          "type": "address"
        },
        {
          "name": "amount",
          "type": "uint256"
        }
      ],
      "name": "transfer",
      "outputs": [
        {
          "name": "",
          "type": "bool"
        }
      ],
      "payable": false,
      "stateMutability": "nonpayable",
      "type": "function"
    },
    {
      "constant": true,
      "inputs": [
        {
          "name": "_id",
          "type": "uint256"
        }
      ],
      "name": "isFungible",
      "outputs": [
        {
          "name": "",
          "type": "bool"
        }
      ],
      "payable": false,
      "stateMutability": "pure",
      "type": "function"
    },
    {
      "constant": false,
      "inputs": [
        {
          "name": "_uri",
          "type": "string"
        },
        {
          "name": "_isNF",
          "type": "bool"
        }
      ],
      "name": "create",
      "outputs": [
        {
          "name": "_type",
          "type": "uint256"
        }
      ],
      "payable": false,
      "stateMutability": "nonpayable",
      "type": "function"
    },
    {
      "constant": true,
      "inputs": [
        {
          "name": "",
          "type": "uint256"
        }
      ],
      "name": "creators",
      "outputs": [
        {
          "name": "",
          "type": "address"
        }
      ],
      "payable": false,
      "stateMutability": "view",
      "type": "function"
    },
    {
      "constant": true,
      "inputs": [
        {
          "name": "",
          "type": "address"
        }
      ],
      "name": "addressToLoan",
      "outputs": [
        {
          "name": "amountDAI",
          "type": "uint256"
        },
        {
          "name": "interestLoan",
          "type": "uint256"
        },
        {
          "name": "amountFunded",
          "type": "uint256"
        },
        {
          "name": "startDate",
          "type": "uint256"
        },
        {
          "name": "endDate",
          "type": "uint256"
        },
        {
          "name": "loanFunded",
          "type": "bool"
        },
        {
          "name": "loanAccepted",
          "type": "bool"
        },
        {
          "name": "loanRepaid",
          "type": "bool"
        }
      ],
      "payable": false,
      "stateMutability": "view",
      "type": "function"
    },
    {
      "constant": true,
      "inputs": [
        {
          "name": "",
          "type": "address"
        }
      ],
      "name": "studentToInterest",
      "outputs": [
        {
          "name": "",
          "type": "uint256"
        }
      ],
      "payable": false,
      "stateMutability": "view",
      "type": "function"
    },
    {
      "constant": true,
      "inputs": [
        {
          "name": "owner",
          "type": "address"
        },
        {
          "name": "spender",
          "type": "address"
        }
      ],
      "name": "allowance",
      "outputs": [
        {
          "name": "",
          "type": "uint256"
        }
      ],
      "payable": false,
      "stateMutability": "view",
      "type": "function"
    },
    {
      "constant": true,
      "inputs": [
        {
          "name": "_id",
          "type": "uint256"
        }
      ],
      "name": "isNonFungible",
      "outputs": [
        {
          "name": "",
          "type": "bool"
        }
      ],
      "payable": false,
      "stateMutability": "pure",
      "type": "function"
    },
    {
      "constant": true,
      "inputs": [
        {
          "name": "_owner",
          "type": "address"
        },
        {
          "name": "_operator",
          "type": "address"
        }
      ],
      "name": "isApprovedForAll",
      "outputs": [
        {
          "name": "",
          "type": "bool"
        }
      ],
      "payable": false,
      "stateMutability": "view",
      "type": "function"
    },
    {
      "constant": false,
      "inputs": [
        {
          "name": "_from",
          "type": "address"
        },
        {
          "name": "_to",
          "type": "address"
        },
        {
          "name": "_id",
          "type": "uint256"
        },
        {
          "name": "_value",
          "type": "uint256"
        },
        {
          "name": "_data",
          "type": "bytes"
        }
      ],
      "name": "safeTransferFrom",
      "outputs": [],
      "payable": false,
      "stateMutability": "nonpayable",
      "type": "function"
    },
    {
      "constant": false,
      "inputs": [
        {
          "name": "newOwner",
          "type": "address"
        }
      ],
      "name": "transferOwnership",
      "outputs": [],
      "payable": false,
      "stateMutability": "nonpayable",
      "type": "function"
    },
    {
      "constant": false,
      "inputs": [
        {
          "name": "_type",
          "type": "uint256"
        },
        {
          "name": "_to",
          "type": "address[]"
        }
      ],
      "name": "mintNonFungible",
      "outputs": [],
      "payable": false,
      "stateMutability": "nonpayable",
      "type": "function"
    },
    {
      "constant": true,
      "inputs": [
        {
          "name": "",
          "type": "uint256"
        }
      ],
      "name": "Investors",
      "outputs": [
        {
          "name": "_addressFunder",
          "type": "address"
        },
        {
          "name": "_amount",
          "type": "uint256"
        },
        {
          "name": "_addressFunded",
          "type": "address"
        },
        {
          "name": "idNFT",
          "type": "uint256"
        }
      ],
      "payable": false,
      "stateMutability": "view",
      "type": "function"
    },
    {
      "inputs": [
        {
          "name": "_stableCoinAddress",
          "type": "address"
        },
        {
          "name": "_tokenIERC1155",
          "type": "address"
        }
      ],
      "payable": false,
      "stateMutability": "nonpayable",
      "type": "constructor"
    },
    {
      "anonymous": false,
      "inputs": [
        {
          "indexed": false,
          "name": "addressStudent",
          "type": "address"
        },
        {
          "indexed": false,
          "name": "studentId",
          "type": "uint256"
        },
        {
          "indexed": false,
          "name": "_name",
          "type": "string"
        },
        {
          "indexed": false,
          "name": "_age",
          "type": "uint256"
        },
        {
          "indexed": false,
          "name": "_country",
          "type": "string"
        },
        {
          "indexed": false,
          "name": "_profAccount",
          "type": "string"
        },
        {
          "indexed": false,
          "name": "_university",
          "type": "string"
        }
      ],
      "name": "studentCreated",
      "type": "event"
    },
    {
      "anonymous": false,
      "inputs": [
        {
          "indexed": true,
          "name": "_operator",
          "type": "address"
        },
        {
          "indexed": true,
          "name": "_from",
          "type": "address"
        },
        {
          "indexed": true,
          "name": "_to",
          "type": "address"
        },
        {
          "indexed": false,
          "name": "_id",
          "type": "uint256"
        },
        {
          "indexed": false,
          "name": "_value",
          "type": "uint256"
        }
      ],
      "name": "TransferSingle",
      "type": "event"
    },
    {
      "anonymous": false,
      "inputs": [
        {
          "indexed": true,
          "name": "_operator",
          "type": "address"
        },
        {
          "indexed": true,
          "name": "_from",
          "type": "address"
        },
        {
          "indexed": true,
          "name": "_to",
          "type": "address"
        },
        {
          "indexed": false,
          "name": "_ids",
          "type": "uint256[]"
        },
        {
          "indexed": false,
          "name": "_values",
          "type": "uint256[]"
        }
      ],
      "name": "TransferBatch",
      "type": "event"
    },
    {
      "anonymous": false,
      "inputs": [
        {
          "indexed": true,
          "name": "_owner",
          "type": "address"
        },
        {
          "indexed": true,
          "name": "_operator",
          "type": "address"
        },
        {
          "indexed": false,
          "name": "_approved",
          "type": "bool"
        }
      ],
      "name": "ApprovalForAll",
      "type": "event"
    },
    {
      "anonymous": false,
      "inputs": [
        {
          "indexed": false,
          "name": "_value",
          "type": "string"
        },
        {
          "indexed": true,
          "name": "_id",
          "type": "uint256"
        }
      ],
      "name": "URI",
      "type": "event"
    },
    {
      "anonymous": false,
      "inputs": [
        {
          "indexed": true,
          "name": "from",
          "type": "address"
        },
        {
          "indexed": true,
          "name": "to",
          "type": "address"
        },
        {
          "indexed": false,
          "name": "value",
          "type": "uint256"
        }
      ],
      "name": "Transfer",
      "type": "event"
    },
    {
      "anonymous": false,
      "inputs": [
        {
          "indexed": true,
          "name": "owner",
          "type": "address"
        },
        {
          "indexed": true,
          "name": "spender",
          "type": "address"
        },
        {
          "indexed": false,
          "name": "value",
          "type": "uint256"
        }
      ],
      "name": "Approval",
      "type": "event"
    },
    {
      "anonymous": false,
      "inputs": [
        {
          "indexed": true,
          "name": "previousOwner",
          "type": "address"
        },
        {
          "indexed": true,
          "name": "newOwner",
          "type": "address"
        }
      ],
      "name": "OwnershipTransferred",
      "type": "event"
    },
    {
      "constant": false,
      "inputs": [
        {
          "name": "_addressCoin",
          "type": "address"
        }
      ],
      "name": "setStableCoinAddress",
      "outputs": [],
      "payable": false,
      "stateMutability": "nonpayable",
      "type": "function"
    },
    {
      "constant": false,
      "inputs": [
        {
          "name": "_addressStudent",
          "type": "address"
        },
        {
          "name": "_studentId",
          "type": "uint256"
        },
        {
          "name": "_name",
          "type": "string"
        },
        {
          "name": "_age",
          "type": "uint256"
        },
        {
          "name": "_country",
          "type": "string"
        },
        {
          "name": "_profAccount",
          "type": "string"
        },
        {
          "name": "_university",
          "type": "string"
        },
        {
          "name": "_uri",
          "type": "string"
        }
      ],
      "name": "addStudent",
      "outputs": [],
      "payable": false,
      "stateMutability": "nonpayable",
      "type": "function"
    },
    {
      "constant": false,
      "inputs": [
        {
          "name": "_addressSchool",
          "type": "address"
        },
        {
          "name": "_universityName",
          "type": "string"
        }
      ],
      "name": "addSchool",
      "outputs": [],
      "payable": false,
      "stateMutability": "nonpayable",
      "type": "function"
    },
    {
      "constant": false,
      "inputs": [
        {
          "name": "_interestLoan",
          "type": "uint256"
        }
      ],
      "name": "requestLoan",
      "outputs": [],
      "payable": false,
      "stateMutability": "nonpayable",
      "type": "function"
    },
    {
      "constant": false,
      "inputs": [
        {
          "name": "_addressToFund",
          "type": "address"
        }
      ],
      "name": "addMoneyPool",
      "outputs": [],
      "payable": false,
      "stateMutability": "nonpayable",
      "type": "function"
    },
    {
      "constant": false,
      "inputs": [
        {
          "name": "_amount",
          "type": "uint256"
        }
      ],
      "name": "withdrawLoan",
      "outputs": [],
      "payable": false,
      "stateMutability": "nonpayable",
      "type": "function"
    },
    {
      "constant": false,
      "inputs": [
        {
          "name": "_addressFunded",
          "type": "address"
        }
      ],
      "name": "acceptLoan",
      "outputs": [],
      "payable": false,
      "stateMutability": "nonpayable",
      "type": "function"
    },
    {
      "constant": false,
      "inputs": [],
      "name": "repayLoan",
      "outputs": [],
      "payable": false,
      "stateMutability": "nonpayable",
      "type": "function"
    },
    {
      "constant": false,
      "inputs": [
        {
          "name": "_addressFunded",
          "type": "address"
        }
      ],
      "name": "withdrawRepaidLoan",
      "outputs": [],
      "payable": false,
      "stateMutability": "nonpayable",
      "type": "function"
    }
  ],
  "bytecode": "0x60a0604052606460809081526200001b90601790600162000131565b50601854601a8054600160a060020a031916600160a060020a039092169190911790553480156200004b57600080fd5b5060405160408062005820833981018060405260408110156200006d57600080fd5b50805160209091015160008054600160a060020a0319163317808255604051600160a060020a039190911691907f8be0079c531659141344cd1fd0a4f28419497f9722a3daafe3b4186f6b6457e0908290a360188054600160a060020a03938416600160a060020a031991821617909155601980549290931691811691909117909155601680546001810182556000919091527fd833147d7dc355ba459fc788f669e58cfaf9dc25ddcd0702e87d69c7b512428901805490911633179055620001a6565b82805482825590600052602060002090810192821562000174579160200282015b8281111562000174578251829060ff1690559160200191906001019062000152565b506200018292915062000186565b5090565b620001a391905b808211156200018257600081556001016200018d565b90565b61566a80620001b66000396000f3fe6080604052600436106102155763ffffffff60e060020a600035041662fdd58e811461021a57806301ffc9a71461026557806308d7d469146102ad578063095ea7b3146102d757806310f108881461031057806318160ddd14610345578063237c980a1461035a57806323b872dd1461038d5780632a104d8d146103d05780632eb2c2d6146103fa578063395093511461053457806344879b3b1461056d5780634e1273f4146105a057806357c8d71d146106bf5780635e81b958146108c15780636352211e146108eb5780636b14c51e146109315780636f969c2d1461096457806370a082311461098e578063715018a6146109c15780637269a327146109d6578063740298f614610a0057806378b2722114610a335780638d5d342914610b095780638da5cb5b14610b335780638f32d59b14610b485780639cca1c6414610b5d578063a22cb46514610b87578063a457c2d714610bc2578063a714c5de14610bfb578063a9059cbb14610cbe578063a9310a5214610cf7578063adebf6f214610fe4578063cc10e4011461100e578063cd53d08e1461108d578063d47d3b0a146110b7578063d5d5ebd214611131578063d778b72114611164578063dd62ed3e14611197578063e44591f0146111d2578063e985e9c5146111fc578063f242432a14611237578063f2fde38b146112d9578063f94190881461130c578063f966ade714611390578063fbae5e7d146113a5575b600080fd5b34801561022657600080fd5b506102536004803603604081101561023d57600080fd5b50600160a060020a038135169060200135611404565b60408051918252519081900360200190f35b34801561027157600080fd5b506102996004803603602081101561028857600080fd5b5035600160e060020a031916611474565b604080519115158252519081900360200190f35b3480156102b957600080fd5b50610253600480360360208110156102d057600080fd5b50356114ed565b3480156102e357600080fd5b50610299600480360360408110156102fa57600080fd5b50600160a060020a0381351690602001356114ff565b34801561031c57600080fd5b506103436004803603602081101561033357600080fd5b5035600160a060020a0316611515565b005b34801561035157600080fd5b50610253611719565b34801561036657600080fd5b506102536004803603602081101561037d57600080fd5b5035600160a060020a0316611720565b34801561039957600080fd5b50610299600480360360608110156103b057600080fd5b50600160a060020a03813581169160208101359091169060400135611732565b3480156103dc57600080fd5b50610343600480360360208110156103f357600080fd5b503561178a565b34801561040657600080fd5b50610343600480360360a081101561041d57600080fd5b600160a060020a03823581169260208101359091169181019060608101604082013564010000000081111561045157600080fd5b82018360208201111561046357600080fd5b8035906020019184602083028401116401000000008311171561048557600080fd5b9193909290916020810190356401000000008111156104a357600080fd5b8201836020820111156104b557600080fd5b803590602001918460208302840111640100000000831117156104d757600080fd5b9193909290916020810190356401000000008111156104f557600080fd5b82018360208201111561050757600080fd5b8035906020019184600183028401116401000000008311171561052957600080fd5b509092509050611960565b34801561054057600080fd5b506102996004803603604081101561055757600080fd5b50600160a060020a038135169060200135611dc8565b34801561057957600080fd5b506103436004803603602081101561059057600080fd5b5035600160a060020a0316611e04565b3480156105ac57600080fd5b5061066f600480360360408110156105c357600080fd5b8101906020810181356401000000008111156105de57600080fd5b8201836020820111156105f057600080fd5b8035906020019184602083028401116401000000008311171561061257600080fd5b91939092909160208101903564010000000081111561063057600080fd5b82018360208201111561064257600080fd5b8035906020019184602083028401116401000000008311171561066457600080fd5b509092509050611e72565b60408051602080825283518183015283519192839290830191858101910280838360005b838110156106ab578181015183820152602001610693565b505050509050019250505060405180910390f35b3480156106cb57600080fd5b506106e9600480360360208110156106e257600080fd5b5035611fbd565b6040518089600160a060020a0316600160a060020a031681526020018881526020018060200187815260200180602001806020018060200186815260200185810385528b818151815260200191508051906020019080838360005b8381101561075c578181015183820152602001610744565b50505050905090810190601f1680156107895780820380516001836020036101000a031916815260200191505b5085810384528951815289516020918201918b019080838360005b838110156107bc5781810151838201526020016107a4565b50505050905090810190601f1680156107e95780820380516001836020036101000a031916815260200191505b5085810383528851815288516020918201918a019080838360005b8381101561081c578181015183820152602001610804565b50505050905090810190601f1680156108495780820380516001836020036101000a031916815260200191505b50858103825287518152875160209182019189019080838360005b8381101561087c578181015183820152602001610864565b50505050905090810190601f1680156108a95780820380516001836020036101000a031916815260200191505b509c5050505050505050505050505060405180910390f35b3480156108cd57600080fd5b50610299600480360360208110156108e457600080fd5b5035612243565b3480156108f757600080fd5b506109156004803603602081101561090e57600080fd5b503561226d565b60408051600160a060020a039092168252519081900360200190f35b34801561093d57600080fd5b506103436004803603602081101561095457600080fd5b5035600160a060020a0316612288565b34801561097057600080fd5b506102536004803603602081101561098757600080fd5b503561245b565b34801561099a57600080fd5b50610253600480360360208110156109b157600080fd5b5035600160a060020a0316612471565b3480156109cd57600080fd5b5061034361248c565b3480156109e257600080fd5b50610299600480360360208110156109f957600080fd5b5035612522565b348015610a0c57600080fd5b506106e960048036036020811015610a2357600080fd5b5035600160a060020a031661254b565b348015610a3f57600080fd5b5061034360048036036060811015610a5657600080fd5b81359190810190604081016020820135640100000000811115610a7857600080fd5b820183602082011115610a8a57600080fd5b80359060200191846020830284011164010000000083111715610aac57600080fd5b919390929091602081019035640100000000811115610aca57600080fd5b820183602082011115610adc57600080fd5b80359060200191846020830284011164010000000083111715610afe57600080fd5b5090925090506125cc565b348015610b1557600080fd5b5061034360048036036020811015610b2c57600080fd5b5035612714565b348015610b3f57600080fd5b5061091561291d565b348015610b5457600080fd5b5061029961292c565b348015610b6957600080fd5b5061025360048036036020811015610b8057600080fd5b503561293d565b348015610b9357600080fd5b5061034360048036036040811015610baa57600080fd5b50600160a060020a0381351690602001351515612952565b348015610bce57600080fd5b5061029960048036036040811015610be557600080fd5b50600160a060020a0381351690602001356129c0565b348015610c0757600080fd5b5061034360048036036040811015610c1e57600080fd5b600160a060020a038235169190810190604081016020820135640100000000811115610c4957600080fd5b820183602082011115610c5b57600080fd5b80359060200191846001830284011164010000000083111715610c7d57600080fd5b91908080601f0160208091040260200160405190810160405280939291908181526020018383808284376000920191909152509295506129fc945050505050565b348015610cca57600080fd5b5061029960048036036040811015610ce157600080fd5b50600160a060020a038135169060200135612b99565b348015610d0357600080fd5b506103436004803603610100811015610d1b57600080fd5b600160a060020a0382351691602081013591810190606081016040820135640100000000811115610d4b57600080fd5b820183602082011115610d5d57600080fd5b80359060200191846001830284011164010000000083111715610d7f57600080fd5b91908080601f01602080910402602001604051908101604052809392919081815260200183838082843760009201919091525092958435959094909350604081019250602001359050640100000000811115610dda57600080fd5b820183602082011115610dec57600080fd5b80359060200191846001830284011164010000000083111715610e0e57600080fd5b91908080601f0160208091040260200160405190810160405280939291908181526020018383808284376000920191909152509295949360208101935035915050640100000000811115610e6157600080fd5b820183602082011115610e7357600080fd5b80359060200191846001830284011164010000000083111715610e9557600080fd5b91908080601f0160208091040260200160405190810160405280939291908181526020018383808284376000920191909152509295949360208101935035915050640100000000811115610ee857600080fd5b820183602082011115610efa57600080fd5b80359060200191846001830284011164010000000083111715610f1c57600080fd5b91908080601f0160208091040260200160405190810160405280939291908181526020018383808284376000920191909152509295949360208101935035915050640100000000811115610f6f57600080fd5b820183602082011115610f8157600080fd5b80359060200191846001830284011164010000000083111715610fa357600080fd5b91908080601f016020809104026020016040519081016040528093929190818152602001838380828437600092019190915250929550612ba6945050505050565b348015610ff057600080fd5b506102996004803603602081101561100757600080fd5b503561367e565b34801561101a57600080fd5b506102536004803603604081101561103157600080fd5b81019060208101813564010000000081111561104c57600080fd5b82018360208201111561105e57600080fd5b8035906020019184600183028401116401000000008311171561108057600080fd5b9193509150351515613688565b34801561109957600080fd5b50610915600480360360208110156110b057600080fd5b503561376f565b3480156110c357600080fd5b506110ea600480360360208110156110da57600080fd5b5035600160a060020a031661378a565b6040805198895260208901979097528787019590955260608701939093526080860191909152151560a0850152151560c0840152151560e083015251908190036101000190f35b34801561113d57600080fd5b506102536004803603602081101561115457600080fd5b5035600160a060020a03166137d5565b34801561117057600080fd5b506103436004803603602081101561118757600080fd5b5035600160a060020a03166137e7565b3480156111a357600080fd5b50610253600480360360408110156111ba57600080fd5b50600160a060020a0381358116916020013516613ea1565b3480156111de57600080fd5b50610299600480360360208110156111f557600080fd5b5035613ecc565b34801561120857600080fd5b506102996004803603604081101561121f57600080fd5b50600160a060020a0381358116916020013516613ed8565b34801561124357600080fd5b50610343600480360360a081101561125a57600080fd5b600160a060020a03823581169260208101359091169160408201359160608101359181019060a08101608082013564010000000081111561129a57600080fd5b8201836020820111156112ac57600080fd5b803590602001918460018302840111640100000000831117156112ce57600080fd5b509092509050613f06565b3480156112e557600080fd5b50610343600480360360208110156112fc57600080fd5b5035600160a060020a03166141bd565b34801561131857600080fd5b506103436004803603604081101561132f57600080fd5b8135919081019060408101602082013564010000000081111561135157600080fd5b82018360208201111561136357600080fd5b8035906020019184602083028401116401000000008311171561138557600080fd5b509092509050614215565b34801561139c57600080fd5b50610343614349565b3480156113b157600080fd5b506113cf600480360360208110156113c857600080fd5b5035614609565b60408051600160a060020a03958616815260208101949094529190931682820152606082019290925290519081900360800190f35b600061140f82612243565b1561144957600082815260066020526040902054600160a060020a0384811691161461143c57600061143f565b60015b60ff16905061146e565b506000818152600460209081526040808320600160a060020a03861684529091529020545b92915050565b6000600160e060020a031982167f01ffc9a70000000000000000000000000000000000000000000000000000000014806114d75750600160e060020a031982167fd9b67a2600000000000000000000000000000000000000000000000000000000145b156114e4575060016114e8565b5060005b919050565b60096020526000908152604090205481565b600061150c33848461464f565b50600192915050565b8033600160a060020a03166011600a600084600160a060020a0316600160a060020a0316815260200190815260200160002060050160405180828054600181600116156101000203166002900480156115a55780601f106115835761010080835404028352918201916115a5565b820191906000526020600020905b815481529060010190602001808311611591575b5050928352505060405190819003602001902054600160a060020a03161461163c576040805160e560020a62461bcd028152602060048201526024808201527f5468652073656e646572206973206e6f7420616e20617070726f76656420736360448201527f686f6f6c00000000000000000000000000000000000000000000000000000000606482015290519081900360840190fd5b600160a060020a0382166000908152600b602052604090206005015460ff1615156001146116da576040805160e560020a62461bcd02815260206004820152602360248201527f4c6f616e20686173206e6f74206265656e2066756e64656420636f6d706c657460448201527f656c790000000000000000000000000000000000000000000000000000000000606482015290519081900360840190fd5b50600160a060020a03166000908152600b60209081526040808320600501805461ff001916610100179055600e9091529020805460ff19166001179055565b6003545b90565b600c6020526000908152604090205481565b600061173f8484846147bc565b600160a060020a03841660009081526002602090815260408083203380855292529091205461177f91869161177a908663ffffffff61498216565b61464f565b5060015b9392505050565b336000908152600b602052604090206005015460ff6101009091041615156001146117ff576040805160e560020a62461bcd02815260206004820152601c60248201527f4c6f616e20776173206e6f742066756e6465642f616363657074656400000000604482015290519081900360640190fd5b336000908152600c602052604090205481108061182a5750336000908152600c602052604090205415155b151561183557600080fd5b601a54336000908152600a602052604090819020905160059091018054600160a060020a039093169263a9059cbb9260119291819083906002600019600183161561010002019091160480156118c25780601f106118a05761010080835404028352918201916118c2565b820191906000526020600020905b8154815290600101906020018083116118ae575b505092835250506040805191829003602090810183205460e060020a63ffffffff8616028452600160a060020a031660048401526024830186905290516044808401938290030181600087803b15801561191b57600080fd5b505af115801561192f573d6000803e3d6000fd5b505050506040513d602081101561194557600080fd5b5050336000908152600c602052604090208054919091039055565b600160a060020a03871615156119c0576040805160e560020a62461bcd02815260206004820152601b60248201527f63616e6e6f742073656e6420746f207a65726f20616464726573730000000000604482015290519081900360640190fd5b848314611a17576040805160e560020a62461bcd02815260206004820152601760248201527f4172726179206c656e677468206d757374206d61746368000000000000000000604482015290519081900360640190fd5b600160a060020a038816331480611a565750600160a060020a038816600090815260056020908152604080832033845290915290205460ff1615156001145b1515611ad2576040805160e560020a62461bcd02815260206004820152602f60248201527f4e656564206f70657261746f7220617070726f76616c20666f7220337264207060448201527f61727479207472616e73666572732e0000000000000000000000000000000000606482015290519081900360840190fd5b60005b85811015611c51576000878783818110611aeb57fe5b90506020020135905060008686848181101515611b0457fe5b905060200201359050611b1682613ecc565b15611b6d57600082815260066020526040902054600160a060020a038c8116911614611b4157600080fd5b60008281526006602052604090208054600160a060020a031916600160a060020a038c16179055611c47565b6000828152600460209081526040808320600160a060020a038f168452909152902054611ba0908263ffffffff61498216565b6004600084815260200190815260200160002060008d600160a060020a0316600160a060020a0316815260200190815260200160002081905550611c236004600084815260200190815260200160002060008c600160a060020a0316600160a060020a0316815260200190815260200160002054826149e290919063ffffffff16565b6000838152600460209081526040808320600160a060020a038f1684529091529020555b5050600101611ad5565b5086600160a060020a031688600160a060020a031633600160a060020a03167f4a39dc06d4c0dbc64b70af90fd698a233a518aa5d07e595d983b8c0526c8f7fb898989896040518080602001806020018381038352878782818152602001925060200280828437600083820152601f01601f19169091018481038352858152602090810191508690860280828437600083820152604051601f909101601f19169092018290039850909650505050505050a4611d1587600160a060020a0316614a3f565b15611dbe57611dbe33898989898080602002602001604051908101604052809392919081815260200183836020028082843760009201919091525050604080516020808d0282810182019093528c82529093508c92508b91829185019084908082843760009201919091525050604080516020601f8c018190048102820181019092528a815292508a9150899081908401838280828437600092019190915250614a4792505050565b5050505050505050565b336000818152600260209081526040808320600160a060020a0387168452909152812054909161150c91859061177a908663ffffffff6149e216565b611e0c61292c565b1515611e50576040805160e560020a62461bcd028152602060048201819052602482015260008051602061561f833981519152604482015290519081900360640190fd5b60188054600160a060020a031916600160a060020a0392909216919091179055565b6060838214611e8057600080fd5b604080518581526020808702820101909152606090858015611eac578160200160208202803883390190505b50905060005b85811015611fb3576000858583818110611ec857fe5b905060200201359050611eda81612243565b15611f4557878783818110611eeb57fe5b60008481526006602090815260409091205491029290920135600160a060020a039081169216919091149050611f22576000611f25565b60015b60ff168383815181101515611f3657fe5b60209081029091010152611faa565b600081815260046020526040812090898985818110611f6057fe5b90506020020135600160a060020a0316600160a060020a0316600160a060020a03168152602001908152602001600020548383815181101515611f9f57fe5b602090810290910101525b50600101611eb2565b5095945050505050565b6015805482908110611fcb57fe5b6000918252602091829020600891909102018054600180830154600280850180546040805161010096831615969096026000190190911692909204601f8101889004880285018801909252818452600160a060020a039094169650909491929183018282801561207c5780601f106120515761010080835404028352916020019161207c565b820191906000526020600020905b81548152906001019060200180831161205f57829003601f168201915b50505050600383015460048401805460408051602060026001851615610100026000190190941693909304601f810184900484028201840190925281815295969395939450908301828280156121135780601f106120e857610100808354040283529160200191612113565b820191906000526020600020905b8154815290600101906020018083116120f657829003601f168201915b5050505060058301805460408051602060026001851615610100026000190190941693909304601f81018490048402820184019092528181529495949350908301828280156121a35780601f10612178576101008083540402835291602001916121a3565b820191906000526020600020905b81548152906001019060200180831161218657829003601f168201915b5050505060068301805460408051602060026001851615610100026000190190941693909304601f81018490048402820184019092528181529495949350908301828280156122335780601f1061220857610100808354040283529160200191612233565b820191906000526020600020905b81548152906001019060200180831161221657829003601f168201915b5050505050908060070154905088565b600060ff60020a80831614801561146e5750506fffffffffffffffffffffffffffffffff16151590565b600090815260066020526040902054600160a060020a031690565b600160a060020a0381166000908152600b60205260409020600301546004906122b7904263ffffffff614c8d16565b116122c157600080fd5b600160a060020a0381166000908152600b602052604090206005015460ff61010090910416151560011461233f576040805160e560020a62461bcd02815260206004820152601c60248201527f4c6f616e20776173206e6f742066756e6465642f616363657074656400000000604482015290519081900360640190fd5b600160a060020a03811660009081526012602052604090205461c350146123b0576040805160e560020a62461bcd02815260206004820152601560248201527f4c6f616e206e6f742066756c6c792066756e6465640000000000000000000000604482015290519081900360640190fd5b60006123bb82614cd8565b601a54604080517fa9059cbb000000000000000000000000000000000000000000000000000000008152336004820152602481018490529051929350600160a060020a039091169163a9059cbb916044808201926020929091908290030181600087803b15801561242b57600080fd5b505af115801561243f573d6000803e3d6000fd5b505050506040513d602081101561245557600080fd5b50505050565b6fffffffffffffffffffffffffffffffff191690565b600160a060020a031660009081526001602052604090205490565b61249461292c565b15156124d8576040805160e560020a62461bcd028152602060048201819052602482015260008051602061561f833981519152604482015290519081900360640190fd5b60008054604051600160a060020a03909116907f8be0079c531659141344cd1fd0a4f28419497f9722a3daafe3b4186f6b6457e0908390a360008054600160a060020a0319169055565b600060ff60020a80831614801561146e5750506fffffffffffffffffffffffffffffffff161590565b600a6020908152600091825260409182902080546001808301546002808501805488516101009582161595909502600019011691909104601f8101879004870284018701909752868352600160a060020a0390931695909491929183018282801561207c5780601f106120515761010080835404028352916020019161207c565b6000858152600860205260409020548590600160a060020a031633146125f157600080fd5b6125fa8661367e565b151561260557600080fd5b60005b8481101561270b57600086868381811061261e57fe5b90506020020135600160a060020a031690506000858584818110151561264057fe5b60008c8152600460209081526040808320600160a060020a038916845282529091205491029290920135925061267e9183915063ffffffff6149e216565b60008a8152600460209081526040808320600160a060020a0387168085529083528184209490945580518d8152918201859052805133926000805160206155ff83398151915292908290030190a46126de82600160a060020a0316614a3f565b15612701576127013333848c856020604051908101604052806000815250614ec2565b5050600101612608565b50505050505050565b336000908152600b60205260409020541561279f576040805160e560020a62461bcd02815260206004820152602960248201527f557365722068617320616c726561647920696e697469617465642061204c6f6160448201527f6e2070726f636573730000000000000000000000000000000000000000000000606482015290519081900360840190fd5b336000908152600a602052604090206002908101546000196101006001831615020116041515612819576040805160e560020a62461bcd02815260206004820152601d60248201527f53747564656e74206861736e2774206265656e20616464656420796574000000604482015290519081900360640190fd5b6101006040519081016040528061c35081526020018281526020016000815260200142815260200161285560054261508c90919063ffffffff16565b81526000602080830182905260408084018390526060938401839052338352600b8252808320855181558583015160018201558582015160028201559385015160038501556080850151600485015560a08501516005909401805460c087015160e0909701511515620100000262ff0000199715156101000261ff001997151560ff199384161797909716969096179690961694909417909355600c8152828220829055600e8152828220805490941690935560128352818120819055601390925281205550565b600054600160a060020a031690565b600054600160a060020a0316331490565b6fffffffffffffffffffffffffffffffff1690565b336000818152600560209081526040808320600160a060020a03871680855290835292819020805460ff1916861515908117909155815190815290519293927f17307eab39ab6107e8899845ad3d59bd9653f200f220920489ca2b5937696c31929181900390910190a35050565b336000818152600260209081526040808320600160a060020a0387168452909152812054909161150c91859061177a908663ffffffff61498216565b612a0461292c565b1515612a48576040805160e560020a62461bcd028152602060048201819052602482015260008051602061561f833981519152604482015290519081900360640190fd5b6000600160a060020a03166011826040518082805190602001908083835b60208310612a855780518252601f199092019160209182019101612a66565b51815160209384036101000a6000190180199092169116179052920194855250604051938490030190922054600160a060020a0316929092149150612b169050576040805160e560020a62461bcd02815260206004820152601d60248201527f556e697665727369747920616c72656164792072656769737465726564000000604482015290519081900360640190fd5b816011826040518082805190602001908083835b60208310612b495780518252601f199092019160209182019101612b2a565b51815160209384036101000a600019018019909216911617905292019485525060405193849003019092208054600160a060020a031916600160a060020a03949094169390931790925550505050565b600061150c3384846147bc565b600160a060020a0388166000908152600a6020526040902060029081015460001961010060018316150201160415612c4e576040805160e560020a62461bcd02815260206004820152602f60248201527f416e20616464726573732063616e206f6e6c792068617665206f6e652053747560448201527f64656e74206173736f6369617465640000000000000000000000000000000000606482015290519081900360840190fd5b6000600160a060020a03166011836040518082805190602001908083835b60208310612c8b5780518252601f199092019160209182019101612c6c565b51815160209384036101000a6000190180199092169116179052920194855250604051938490030190922054600160a060020a031692909214159150612d1d9050576040805160e560020a62461bcd02815260206004820181905260248201527f556e6976657273697479206861736e2774206265656e20616464656420796574604482015290519081900360640190fd5b6011826040518082805190602001908083835b60208310612d4f5780518252601f199092019160209182019101612d30565b51815160209384036101000a6000190180199092169116179052920194855250604051938490030190922054600160a060020a031633149150612e049050576040805160e560020a62461bcd02815260206004820152602560248201527f53656e646572206973206e6f742061207265676973746572656420756e69766560448201527f7273697479000000000000000000000000000000000000000000000000000000606482015290519081900360840190fd5b601954604080517fcc10e40100000000000000000000000000000000000000000000000000000000815260016024820181905260048201928352845160448301528451600094600160a060020a03169363cc10e4019387939282916064019060208601908083838c5b83811015612e85578181015183820152602001612e6d565b50505050905090810190601f168015612eb25780820380516001836020036101000a031916815260200191505b509350505050602060405180830381600087803b158015612ed257600080fd5b505af1158015612ee6573d6000803e3d6000fd5b505050506040513d6020811015612efc57600080fd5b5051601954604080517ff941908800000000000000000000000000000000000000000000000000000000815260048101848152602482019283526016805460448401819052959650600160a060020a039094169463f94190889487949093909160649091019084908015612f9957602002820191906000526020600020905b8154600160a060020a03168152600190910190602001808311612f7b575b50509350505050600060405180830381600087803b158015612fba57600080fd5b505af1158015612fce573d6000803e3d6000fd5b5050601954604080517fcc10e40100000000000000000000000000000000000000000000000000000000815260006024820181905260048201928352875160448301528751909550600160a060020a03909316935063cc10e401928792869290918291606401906020860190808383885b8381101561305757818101518382015260200161303f565b50505050905090810190601f1680156130845780820380516001836020036101000a031916815260200191505b509350505050602060405180830381600087803b1580156130a457600080fd5b505af11580156130b8573d6000803e3d6000fd5b505050506040513d60208110156130ce57600080fd5b50516019546040517f78b27221000000000000000000000000000000000000000000000000000000008152600481018381526060602483019081526016805460648501819052959650600160a060020a03909416946378b2722194879490936017939092909160448101916084909101908690801561317657602002820191906000526020600020905b8154600160a060020a03168152600190910190602001808311613158575b505083810382528481815481526020019150805480156131b557602002820191906000526020600020905b8154815260200190600101908083116131a1575b505095505050505050600060405180830381600087803b1580156131d857600080fd5b505af11580156131ec573d6000803e3d6000fd5b50505050610100604051908101604052808b600160a060020a031681526020018a815260200189815260200188815260200187815260200185815260200186815260200183815250600a60008c600160a060020a0316600160a060020a0316815260200190815260200160002060008201518160000160006101000a815481600160a060020a030219169083600160a060020a031602179055506020820151816001015560408201518160020190805190602001906132ac929190615566565b5060608201516003820155608082015180516132d2916004840191602090910190615566565b5060a082015180516132ee916005840191602090910190615566565b5060c0820151805161330a916006840191602090910190615566565b5060e091820151600791909101556040805161010081018252600160a060020a038d8116825260208083018e81529383018d8152606084018d9052608084018c905260a084018a905260c084018b9052948301879052601580546001810180835560009290925284517f55f448fdea98c4d29eb340757ef0a66cd03dbb9538908a6a81d96026b71ec47560089092029182018054600160a060020a0319169190951617845594517f55f448fdea98c4d29eb340757ef0a66cd03dbb9538908a6a81d96026b71ec476860155945180519394929361340e937f55f448fdea98c4d29eb340757ef0a66cd03dbb9538908a6a81d96026b71ec47701929190910190615566565b506060820151600382015560808201518051613434916004840191602090910190615566565b5060a08201518051613450916005840191602090910190615566565b5060c0820151805161346c916006840191602090910190615566565b5060e082015181600701555050507f818fdaabb8bd66ad9c1c6f1afc31e7c033a43b7001fe287d96341b110cc2f4b08a8a8a8a8a8a8a6040518088600160a060020a0316600160a060020a031681526020018781526020018060200186815260200180602001806020018060200185810385528a818151815260200191508051906020019080838360005b8381101561350f5781810151838201526020016134f7565b50505050905090810190601f16801561353c5780820380516001836020036101000a031916815260200191505b5085810384528851815288516020918201918a019080838360005b8381101561356f578181015183820152602001613557565b50505050905090810190601f16801561359c5780820380516001836020036101000a031916815260200191505b50858103835287518152875160209182019189019080838360005b838110156135cf5781810151838201526020016135b7565b50505050905090810190601f1680156135fc5780820380516001836020036101000a031916815260200191505b50858103825286518152865160209182019188019080838360005b8381101561362f578181015183820152602001613617565b50505050905090810190601f16801561365c5780820380516001836020036101000a031916815260200191505b509b50505050505050505050505060405180910390a150505050505050505050565b60ff60020a161590565b60078054600101908190557001000000000000000000000000000000000281156136b35760ff60020a175b60008181526008602090815260408083208054600160a060020a0319163390811790915581518581529283018490528151849391926000805160206155ff833981519152928290030190a4600083111561178357807f6bb7ff708619ba0610cba295a58592e0451dee2622938c8755667688daf3529b858560405180806020018281038252848482818152602001925080828437600083820152604051601f909101601f19169092018290039550909350505050a29392505050565b600860205260009081526040902054600160a060020a031681565b600b60205260009081526040902080546001820154600283015460038401546004850154600590950154939492939192909160ff808216916101008104821691620100009091041688565b600d6020526000908152604090205481565b600160a060020a0381166000908152600b6020526040902060050154819060ff1615801561382f5750600160a060020a0381166000908152600b602052604090206004015415155b1515613885576040805160e560020a62461bcd02815260206004820152601e60248201527f557365722068617320616c726561647920612066756e646564206c6f616e0000604482015290519081900360640190fd5b600160a060020a0382166000908152600b602052604090206004015415156138f7576040805160e560020a62461bcd02815260206004820181905260248201527f4164647265737320686173206e6f74207265717565737465642061206c6f616e604482015290519081900360640190fd5b600160a060020a0382161515613957576040805160e560020a62461bcd02815260206004820152600f60248201527f41646472657373203020676976656e0000000000000000000000000000000000604482015290519081900360640190fd5b601a54604080517fdd62ed3e0000000000000000000000000000000000000000000000000000000081523360048201523060248201529051600092600160a060020a03169163dd62ed3e916044808301926020929190829003018186803b1580156139c157600080fd5b505afa1580156139d5573d6000803e3d6000fd5b505050506040513d60208110156139eb57600080fd5b5051600160a060020a0384166000908152600b6020526040902054909150613a1a90606463ffffffff6150f116565b8110158015613a2b57506101f48106155b1515613acd576040805160e560020a62461bcd02815260206004820152604560248201527f54686520616d6f756e742073656e74206d7573742062652061206d756c74697060448201527f6c696572206f66203530302e204561636820746f6b656e20636f73747320353060648201527f3020444149000000000000000000000000000000000000000000000000000000608482015290519081900360a40190fd5b600160a060020a0383166000908152600c602052604090205461c350038110613cf057600160a060020a0383166000908152600c6020526040902054613b1f9061c350036101f463ffffffff6150f116565b336000818152601060209081526040808320600160a060020a0389168452600a835281842060070154845282529182902080549094019093558051608081019091529081526014918101613b7b846101f463ffffffff6150f116565b8152600160a060020a0380871660208084018290526000828152600a825260408082206007015495810195909552865460018181018955978252828220875160049283029091018054918716600160a060020a031992831617815588850151998101999099558787015160028a01805491881691909216179055606090960151600390970196909655601a54918652600c81528386205484517f23b872dd000000000000000000000000000000000000000000000000000000008152339681019690965230602487015261c35003604486015292519116936323b872dd936064808201949392918390030190829087803b158015613c7857600080fd5b505af1158015613c8c573d6000803e3d6000fd5b505050506040513d6020811015613ca257600080fd5b5050600160a060020a0383166000908152600b60209081526040808320600501805460ff19166001179055600c8252808320805461c350818103909101909155601390925290912055613e9c565b613d02816101f463ffffffff6150f116565b336000818152601060209081526040808320600160a060020a038916808552600a845282852060070154855290835281842080549096019095558051608081018252938452938252600c815292902054601492820190613d6a906101f463ffffffff6150f116565b61c350038152600160a060020a0380871660208084018290526000828152600a825260408082206007015495810195909552865460018181018955978252828220875160049283029091018054918716600160a060020a031992831617815588850151998101999099558787015160028a01805491881691909216179055606090960151600390970196909655908552600c8152828520805487019055601a5483517f23b872dd000000000000000000000000000000000000000000000000000000008152339581019590955230602486015260448501879052925192909116936323b872dd9360648082019492918390030190829087803b158015613e6f57600080fd5b505af1158015613e83573d6000803e3d6000fd5b505050506040513d6020811015613e9957600080fd5b50505b505050565b600160a060020a03918216600090815260026020908152604080832093909416825291909152205490565b60ff60020a9081161490565b600160a060020a03918216600090815260056020908152604080832093909416825291909152205460ff1690565b600160a060020a0385161515613f66576040805160e560020a62461bcd02815260206004820152601b60248201527f63616e6e6f742073656e6420746f207a65726f20616464726573730000000000604482015290519081900360640190fd5b600160a060020a038616331480613fa55750600160a060020a038616600090815260056020908152604080832033845290915290205460ff1615156001145b1515614021576040805160e560020a62461bcd02815260206004820152602f60248201527f4e656564206f70657261746f7220617070726f76616c20666f7220337264207060448201527f61727479207472616e73666572732e0000000000000000000000000000000000606482015290519081900360840190fd5b61402a84613ecc565b1561408157600084815260066020526040902054600160a060020a0387811691161461405557600080fd5b60008481526006602052604090208054600160a060020a031916600160a060020a03871617905561410f565b6000848152600460209081526040808320600160a060020a038a1684529091529020546140b4908463ffffffff61498216565b6000858152600460209081526040808320600160a060020a038b811685529252808320939093558716815220546140eb90846149e2565b6000858152600460209081526040808320600160a060020a038a1684529091529020555b84600160a060020a031686600160a060020a031633600160a060020a03166000805160206155ff8339815191528787604051808381526020018281526020019250505060405180910390a461416c85600160a060020a0316614a3f565b156141b5576141b5338787878787878080601f016020809104026020016040519081016040528093929190818152602001838380828437600092019190915250614ec292505050565b505050505050565b6141c561292c565b1515614209576040805160e560020a62461bcd028152602060048201819052602482015260008051602061561f833981519152604482015290519081900360640190fd5b61421281615160565b50565b6000838152600860205260409020548390600160a060020a0316331461423a57600080fd5b61424384613ecc565b151561424e57600080fd5b600084815260096020526040902054600181019061427390849063ffffffff6149e216565b6000868152600960205260408120919091555b838110156141b557600085858381811061429c57fe5b8486018a17600081815260066020908152604080832080549583029790970135600160a060020a0316600160a060020a03199095168517909655855183815260019181019190915285519396509194869450909233926000805160206155ff83398151915292908290030190a461431b82600160a060020a0316614a3f565b1561433f5761433f3333848460016020604051908101604052806000815250614ec2565b5050600101614286565b336000908152600e602052604090205460ff1615156001146143db576040805160e560020a62461bcd02815260206004820152602b60248201527f54686973206164647265737320646f65736e277420686176652061206c6f616e60448201527f206173736f636961746564000000000000000000000000000000000000000000606482015290519081900360840190fd5b336000908152600b602052604090206005015462010000900460ff161561444c576040805160e560020a62461bcd02815260206004820152601360248201527f4c6f616e20616c72656164792072657061696400000000000000000000000000604482015290519081900360640190fd5b601a54604080517fdd62ed3e0000000000000000000000000000000000000000000000000000000081523360048201523060248201529051600092600160a060020a03169163dd62ed3e916044808301926020929190829003018186803b1580156144b657600080fd5b505afa1580156144ca573d6000803e3d6000fd5b505050506040513d60208110156144e057600080fd5b5051601a54604080517f23b872dd000000000000000000000000000000000000000000000000000000008152336004820152306024820152604481018490529051929350600160a060020a03909116916323b872dd916064808201926020929091908290030181600087803b15801561455857600080fd5b505af115801561456c573d6000803e3d6000fd5b505050506040513d602081101561458257600080fd5b5061458e905081615241565b3360009081526012602052604090205461c350141561421257336000908152600b60209081526040808320600581018054858355600183018690556002830186905560038301869055600490920185905562ffffff1962ff0000199092166201000017919091169055600e9091529020805460ff1916905550565b601480548290811061461757fe5b60009182526020909120600490910201805460018201546002830154600390930154600160a060020a03928316945090929091169084565b600160a060020a03831615156146d4576040805160e560020a62461bcd028152602060048201526024808201527f45524332303a20617070726f76652066726f6d20746865207a65726f2061646460448201527f7265737300000000000000000000000000000000000000000000000000000000606482015290519081900360840190fd5b600160a060020a038216151561475a576040805160e560020a62461bcd02815260206004820152602260248201527f45524332303a20617070726f766520746f20746865207a65726f20616464726560448201527f7373000000000000000000000000000000000000000000000000000000000000606482015290519081900360840190fd5b600160a060020a03808416600081815260026020908152604080832094871680845294825291829020859055815185815291517f8c5be1e5ebec7d5bd14f71427d1e84f3dd0314c0f7b2291e5b200ac8c7c3b9259281900390910190a3505050565b600160a060020a0383161515614842576040805160e560020a62461bcd02815260206004820152602560248201527f45524332303a207472616e736665722066726f6d20746865207a65726f20616460448201527f6472657373000000000000000000000000000000000000000000000000000000606482015290519081900360840190fd5b600160a060020a03821615156148c8576040805160e560020a62461bcd02815260206004820152602360248201527f45524332303a207472616e7366657220746f20746865207a65726f206164647260448201527f6573730000000000000000000000000000000000000000000000000000000000606482015290519081900360840190fd5b600160a060020a0383166000908152600160205260409020546148f1908263ffffffff61498216565b600160a060020a038085166000908152600160205260408082209390935590841681522054614926908263ffffffff6149e216565b600160a060020a0380841660008181526001602090815260409182902094909455805185815290519193928716927fddf252ad1be2c89b69c2b068fc378daa952ba7f163c4a11628f55a4df523b3ef92918290030190a3505050565b6000828211156149dc576040805160e560020a62461bcd02815260206004820152601e60248201527f536166654d6174683a207375627472616374696f6e206f766572666c6f770000604482015290519081900360640190fd5b50900390565b600082820183811015611783576040805160e560020a62461bcd02815260206004820152601b60248201527f536166654d6174683a206164646974696f6e206f766572666c6f770000000000604482015290519081900360640190fd5b6000903b1190565b63bc197c8160e060020a027bffffffffffffffffffffffffffffffffffffffffffffffffffffffff191684600160a060020a031663bc197c8188888787876040518663ffffffff1660e060020a0281526004018086600160a060020a0316600160a060020a0316815260200185600160a060020a0316600160a060020a03168152602001806020018060200180602001848103845287818151815260200191508051906020019060200280838360005b83811015614b0f578181015183820152602001614af7565b50505050905001848103835286818151815260200191508051906020019060200280838360005b83811015614b4e578181015183820152602001614b36565b50505050905001848103825285818151815260200191508051906020019080838360005b83811015614b8a578181015183820152602001614b72565b50505050905090810190601f168015614bb75780820380516001836020036101000a031916815260200191505b5098505050505050505050602060405180830381600087803b158015614bdc57600080fd5b505af1158015614bf0573d6000803e3d6000fd5b505050506040513d6020811015614c0657600080fd5b5051600160e060020a031916146141b5576040805160e560020a62461bcd02815260206004820152603e60248201527f636f6e74726163742072657475726e656420616e20756e6b6e6f776e2076616c60448201527f75652066726f6d206f6e45524331313535426174636852656365697665640000606482015290519081900360840190fd5b600081831115614c9c57600080fd5b60008080808080614cb2620151808a5b04615306565b91975095509350614cc66201518089614cac565b50509590950398975050505050505050565b6000805b601454811015614ebc5782600160a060020a0316601482815481101515614cff57fe5b6000918252602090912060026004909202010154600160a060020a03161415614eb4573360009081526010602052604081206014805483919085908110614d4257fe5b90600052602060002090600402016003015481526020019081526020016000205490506000614db06064614da484601260008a600160a060020a0316600160a060020a031681526020019081526020016000205461539e90919063ffffffff16565b9063ffffffff6150f116565b600160a060020a0386166000908152601360209081526040808320805485900390553383526010909152812060148054939450859391929187908110614df257fe5b90600052602060002090600402016003015481526020019081526020016000206000828254039250508190555080614e5d6064614da485600d60008b600160a060020a0316600160a060020a031681526020019081526020016000205461539e90919063ffffffff16565b600160a060020a0387166000908152600d602052604090205491019450614e9190606490614da4908563ffffffff61539e16565b600160a060020a0386166000908152600d60205260409020805491909103905550505b600101614cdc565b50919050565b63f23a6e6160e060020a027bffffffffffffffffffffffffffffffffffffffffffffffffffffffff191684600160a060020a031663f23a6e6188888787876040518663ffffffff1660e060020a0281526004018086600160a060020a0316600160a060020a0316815260200185600160a060020a0316600160a060020a0316815260200184815260200183815260200180602001828103825283818151815260200191508051906020019080838360005b83811015614f8b578181015183820152602001614f73565b50505050905090810190601f168015614fb85780820380516001836020036101000a031916815260200191505b509650505050505050602060405180830381600087803b158015614fdb57600080fd5b505af1158015614fef573d6000803e3d6000fd5b505050506040513d602081101561500557600080fd5b5051600160e060020a031916146141b5576040805160e560020a62461bcd02815260206004820152603960248201527f636f6e74726163742072657475726e656420616e20756e6b6e6f776e2076616c60448201527f75652066726f6d206f6e45524331313535526563656976656400000000000000606482015290519081900360840190fd5b600080808061509e6201518087614cac565b91870194509250905060006150b3848461543a565b9050808211156150c1578091505b620151808706620151806150d68686866154c0565b02019450868510156150e757600080fd5b5050505092915050565b600080821161514a576040805160e560020a62461bcd02815260206004820152601a60248201527f536166654d6174683a206469766973696f6e206279207a65726f000000000000604482015290519081900360640190fd5b6000828481151561515757fe5b04949350505050565b600160a060020a03811615156151e6576040805160e560020a62461bcd02815260206004820152602660248201527f4f776e61626c653a206e6577206f776e657220697320746865207a65726f206160448201527f6464726573730000000000000000000000000000000000000000000000000000606482015290519081900360840190fd5b60008054604051600160a060020a03808516939216917f8be0079c531659141344cd1fd0a4f28419497f9722a3daafe3b4186f6b6457e091a360008054600160a060020a031916600160a060020a0392909216919091179055565b336000908152600b60205260408120600301546152b090618e94906152a090615270904263ffffffff61552616565b336000908152600b602052604090206001015461529490606463ffffffff61539e16565b9063ffffffff61539e16565b61c350029063ffffffff6150f116565b90506152c2828263ffffffff61498216565b3360009081526012602090815260408083208054909401909355600d905220546152f2908263ffffffff6149e216565b336000908152600d60205260409020555050565b60008080836226496581018262023ab1600483020590506004600362023ab18302010590910390600062164b09610fa0600185010205905060046105b58202058303601f019250600061098f8460500281151561535f57fe5b0590506000605061098f83020585039050600b820560301994909401606402929092018301996002600c90940290910392909201975095509350505050565b60008215156153af5750600061146e565b8282028284828115156153be57fe5b0414611783576040805160e560020a62461bcd02815260206004820152602160248201527f536166654d6174683a206d756c7469706c69636174696f6e206f766572666c6f60448201527f7700000000000000000000000000000000000000000000000000000000000000606482015290519081900360840190fd5b6000816001148061544b5750816003145b806154565750816005145b806154615750816007145b8061546c5750816008145b80615477575081600a145b80615482575081600c145b1561548f5750601f61146e565b6002821461549f5750601e61146e565b6154a883615541565b6154b357601c6154b6565b601d5b60ff169392505050565b60006107b28410156154d157600080fd5b506225bad61960046064600c600d1986018190059687016113248101929092056003028390056112c09092016105b502929092059093016001199582029094039490940161016f029390930591909101030190565b60008183111561553557600080fd5b50620151809190030490565b60006004820615801561555657506064820615155b8061146e57505061019090061590565b828054600181600116156101000203166002900490600052602060002090601f016020900481019282601f106155a757805160ff19168380011785556155d4565b828001600101855582156155d4579182015b828111156155d45782518255916020019190600101906155b9565b506155e09291506155e4565b5090565b61171d91905b808211156155e057600081556001016155ea56fec3d58168c5ae7397731d063d5bbf3d657854427343f4c083240f7aacaa2d0f624f776e61626c653a2063616c6c6572206973206e6f7420746865206f776e6572a165627a7a72305820416f8abb101e307dcf8ab9337d113b18cc2d61ef95b131803eb37395b533501c0029",
  "source": "pragma solidity ^0.5.0;\r\n\r\nimport \"./ERC1155MixedFungibleMintable.sol\";\r\nimport \"./Ownable.sol\";\r\nimport \"./ERC20.sol\";\r\nimport \"./TimeHelper.sol\";\r\nimport \"./SafeMath.sol\";\r\n\r\n/**\r\n    @title Providentia, providing students with loan\r\n    @dev See https://providentia.netlify.com/\r\n    Note: Some values are hardcoded in order to represent a specific usecase\r\n */\r\n\r\ncontract Providentia is Ownable, ERC20, ERC1155MixedFungibleMintable{\r\n  // @dev Library used to calculate time differences\r\n  using BokkyPooBahsDateTimeLibrary for uint;\r\n  // @dev Library to prevent integer overflow/underflow\r\n  using SafeMath for uint;\r\n\r\n    // @dev Mapping used to store user data\r\n    mapping( address => StudentData ) public addressToData;\r\n    // @dev Mapping used to store the details of the Loan\r\n    mapping( address => StudentLoan) public addressToLoan;\r\n    // @dev Mapping used to track the Loan of the student\r\n    mapping( address => uint) public addressToBalance;\r\n    // @dev Mapping used to track the interest paid by the student\r\n    mapping( address => uint) public studentToInterest;\r\n    // @dev Mapping to know if the user has an outstanding loan\r\n    mapping( address => bool ) studentHasLoan;\r\n    // @dev address =>( idNFT => idFT )\r\n    mapping( address => mapping( uint => uint)) ownerToTypes;\r\n    // idNFT => amountTokens\r\n    // note: One NFT MUST have 100 FT attached, no more no less\r\n    mapping( address => mapping(uint => uint) ) tokensToValue;\r\n    // @dev Name of University To Address\r\n    mapping( string => address) addressToUniversity;\r\n    // @dev Address to amount of repaid loan\r\n    mapping( address => uint) addressToRepaid;\r\n    // @dev Address to amount remaining to investor( used to track withdrawals of investors)\r\n    mapping( address => uint) addressToInvestor;\r\n\r\n        /***********************************|\r\n        |        Variables and Events       |\r\n        |__________________________________*/\r\n\r\n    event studentCreated (\r\n        address addressStudent,\r\n        uint studentId,\r\n        string _name,\r\n        uint _age,\r\n        string _country,\r\n        string _profAccount,\r\n        string _university\r\n        );\r\n\r\n    struct StudentData {\r\n        address addressStudent;\r\n        uint studentId;\r\n        string name;\r\n        uint age;\r\n        string country;\r\n        string university;\r\n        string profAccount;\r\n        uint idNFT;\r\n    }\r\n\r\n    struct StudentLoan {\r\n        uint amountDAI;\r\n        uint interestLoan;\r\n        uint amountFunded;\r\n        uint startDate;\r\n        uint endDate;\r\n        bool loanFunded;\r\n        bool loanAccepted;\r\n        bool loanRepaid;\r\n    }\r\n\r\n    struct FunderTokens {\r\n      address _addressFunder;\r\n      uint _amount;\r\n      address _addressFunded;\r\n      uint idNFT;\r\n    }\r\n\r\n    FunderTokens[] public Investors;\r\n\r\n    StudentData[] public Students;\r\n\r\n    address[] sendTokens ;\r\n\r\n    uint[] valueSend = [100];\r\n\r\n    address stableCoinAddress ;\r\n\r\n    ERC1155MixedFungibleMintable _token;\r\n\r\n    ERC20 stableCoinContract = ERC20(stableCoinAddress);\r\n\r\n    modifier hasRequestedLoan(){\r\n      // Check if Student has already requested a loan\r\n        require( addressToLoan[msg.sender].amountDAI == 0, \"User has already initiated a Loan process\");\r\n        _;\r\n    }\r\n\r\n    modifier hasFundedLoan(address _addressToFund){\r\n      require( addressToLoan[_addressToFund].loanFunded == false && addressToLoan[_addressToFund].endDate != 0\r\n        , \"User has already a funded loan\");\r\n      _;\r\n    }\r\n\r\n    modifier hasActiveLoan(){\r\n      require(studentHasLoan[msg.sender] == true, \"This address doesn't have a loan associated\");\r\n      _;\r\n    }\r\n\r\n    modifier onlySchool(address _addressFunded){\r\n      require( addressToUniversity[addressToData[_addressFunded].university] == msg.sender,\r\n        \"The sender is not an approved school\");\r\n        _;\r\n    }\r\n\r\n    constructor(address _stableCoinAddress, ERC1155MixedFungibleMintable _tokenIERC1155) public{\r\n        stableCoinAddress = _stableCoinAddress;\r\n        _token = _tokenIERC1155;\r\n        sendTokens.push(msg.sender);\r\n    }\r\n\r\n    /**\r\n      @notice Function used to upgrade the contract address of DAI in case it changes\r\n      @param _addressCoin Address of the StableCoin Contract\r\n    */\r\n    function setStableCoinAddress(address _addressCoin) public onlyOwner{\r\n        stableCoinAddress = _addressCoin;\r\n    }\r\n\r\n    /**\r\n      @notice Function used to add the Student\r\n      @param _addressStudent Address of the Student to add\r\n      @param _studentId Id of the student\r\n      @param _name Name of the Student\r\n      @param _age Age of the Student\r\n      @param _country Country of the Student\r\n      @param _profAccount Github account of the Student\r\n      @param _university University in which the Student is attending to\r\n      @param _uri Used to store the JSON with the data of the Student\r\n    */\r\n    function addStudent(\r\n      address _addressStudent,\r\n      uint _studentId,\r\n      string memory _name,\r\n      uint _age,\r\n      string memory _country,\r\n      string memory _profAccount,\r\n      string memory _university,\r\n      string memory _uri\r\n    )\r\n      public\r\n\r\n    {\r\n\r\n        require(bytes(addressToData[_addressStudent].name).length == 0,\r\n        \"An address can only have one Student associated\");\r\n\r\n        require(addressToUniversity[_university] != address(0), \"University hasn't been added yet\");\r\n\r\n        require(msg.sender == addressToUniversity[_university], \"Sender is not a registered university\");\r\n\r\n        // Mint NFT\r\n        uint _type = _token.create(_uri, true);\r\n        // Send tokens to owner\r\n        _token.mintNonFungible(_type, sendTokens);\r\n        // Mint FT\r\n        uint _id = _token.create(_uri, false);\r\n        // Send tokens to owner\r\n        _token.mintFungible(_id, sendTokens, valueSend );\r\n\r\n        //Updae the mapping\r\n        addressToData[_addressStudent] = StudentData(\r\n          _addressStudent,\r\n          _studentId,\r\n          _name,\r\n          _age,\r\n          _country,\r\n          _university,\r\n          _profAccount,\r\n          _type\r\n          );\r\n\r\n        Students.push(StudentData(\r\n          _addressStudent,\r\n          _studentId,\r\n          _name,\r\n          _age,\r\n          _country,\r\n          _university,\r\n          _profAccount,\r\n          _type));\r\n\r\n          // Trigger event\r\n        emit studentCreated(\r\n          _addressStudent,\r\n          _studentId,\r\n          _name,\r\n          _age,\r\n          _country,\r\n          _profAccount,\r\n          _university\r\n          );\r\n    }\r\n\r\n    /**\r\n      @notice Function used to add the school, only the owner can add school, to prevent misbehavior\r\n      @param _addressSchool Ethereum address of the school\r\n      @param _universityName Name of the university to add\r\n    */\r\n    function addSchool(\r\n      address _addressSchool,\r\n      string memory _universityName\r\n      )\r\n      public onlyOwner{\r\n        require(addressToUniversity[_universityName] == address(0), \"University already registered\");\r\n        // Set address of the school\r\n        addressToUniversity[_universityName] = _addressSchool;\r\n    }\r\n\r\n    /**\r\n      @notice Function used to initiate a Loan process and get funded\r\n      @param _interestLoan Interest rate the student is willing to pay\r\n      @dev For this usecase the Student can request a fixed amount of 50000 DAI\r\n           and have a deadline of 5 years to repay the Loan\r\n    */\r\n    function requestLoan( uint _interestLoan) public hasRequestedLoan{\r\n\r\n        //Check if the Student has been added before letting him request a loan\r\n        require(bytes(addressToData[msg.sender].name).length != 0,\r\n        \"Student hasn't been added yet\");\r\n        /*  This version will use a fixed value of 50k for the amount of loan to\r\n            request, the loan has a deadline of 5 years */\r\n        addressToLoan[msg.sender] = StudentLoan(50000, _interestLoan, 0, now, now.addYears(5), false, false, false);\r\n        // Instantiate the mapping to 0\r\n        addressToBalance[msg.sender] = 0;\r\n        // When requesting a loan, the School hasn't accept it yet\r\n        studentHasLoan[msg.sender] = false;\r\n        // Instantiate the mapping\r\n        addressToRepaid[msg.sender] = 0;\r\n        //Instantiate the Mapping\r\n        addressToInvestor[msg.sender] = 0;\r\n\r\n    }\r\n\r\n    /**\r\n      @notice Function used to add money to the pool for the Student\r\n      @param _addressToFund Address of the user to be funded\r\n      @dev Each token costs 500 DAI and each token represents a share of the loan\r\n\r\n    */\r\n    function addMoneyPool(address _addressToFund) public hasFundedLoan(_addressToFund){\r\n      require(addressToLoan[_addressToFund].endDate != 0, \"Address has not requested a loan\");\r\n      require(_addressToFund != address(0), \"Address 0 given\");\r\n\r\n      // Check the allowance given to the contract\r\n      uint tokenAmount = stableCoinContract.allowance(msg.sender, address(this));\r\n      require(tokenAmount >= (addressToLoan[_addressToFund].amountDAI.div(100))\r\n        && ( tokenAmount % 500 ) == 0 ,\r\n        \"The amount sent must be a multiplier of 500. Each token costs 500 DAI\");\r\n      // If the investor sends more than the MAX_CAP which is 50K\r\n      if( tokenAmount >= 50000 - addressToBalance[_addressToFund] ){\r\n        /* Since each token costs 500 DAI, and the allowance is higher than\r\n          50000 - addressToBalnce[_addressToFund] only the difference will be\r\n          sent to the contract */\r\n        tokensToValue[msg.sender][addressToData[_addressToFund].idNFT] += (50000 - addressToBalance[_addressToFund]).div(500);\r\n        // Insert values in array\r\n        Investors.push(FunderTokens(msg.sender, tokenAmount.div(500), _addressToFund, addressToData[_addressToFund].idNFT));\r\n        // Transfer tokens to the contract\r\n        stableCoinContract.transferFrom(msg.sender, address(this), 50000 - addressToBalance[_addressToFund]);\r\n        // Set true to loan funded, it's used to track stage of loan\r\n        addressToLoan[_addressToFund].loanFunded = true;\r\n        // AddressToBalance will have 50k when the loan has been funded\r\n        addressToBalance[_addressToFund] +=50000 - addressToBalance[_addressToFund];\r\n        // Instantiate with an initial value of 50K as that's the amount of the loan\r\n        addressToInvestor[_addressToFund] = 50000;\r\n\r\n      }\r\nelse{\r\n     // Update shares of the Investor\r\n      tokensToValue[msg.sender][addressToData[_addressToFund].idNFT] += tokenAmount.div(500);\r\n      Investors.push(FunderTokens(msg.sender, 50000 - addressToBalance[_addressToFund].div(500), _addressToFund, addressToData[_addressToFund].idNFT));\r\n      // Add the amount funded to the mapping\r\n      addressToBalance[_addressToFund] += tokenAmount;\r\n      // Transfer DAI to the contract\r\n      stableCoinContract.transferFrom(msg.sender, address(this), tokenAmount);\r\n    }\r\n    }\r\n\r\n    /**\r\n      @notice Function to withdraw the loan of the Student\r\n      @param _amount Amount the user is willing to withdraw\r\n    */\r\n    function withdrawLoan(uint _amount) public{\r\n      require(addressToLoan[msg.sender].loanAccepted == true, \"Loan was not funded/accepted\");\r\n      require(_amount < addressToBalance[msg.sender] || addressToBalance[msg.sender] != 0);\r\n      // Transfer the tokens to the school\r\n      stableCoinContract.transfer(addressToUniversity[addressToData[msg.sender].university], _amount);\r\n      // Reduce amount of DAI from the mapping\r\n      addressToBalance[msg.sender] -= _amount;\r\n    }\r\n\r\n    /**\r\n      @notice Function to accept the proposed loan\r\n      @param _addressFunded Address of the user funded\r\n    */\r\n\r\n    function acceptLoan(address _addressFunded) public onlySchool(_addressFunded){\r\n      require(addressToLoan[_addressFunded].loanFunded == true, \"Loan has not been funded completely\");\r\n      // Set loan as accepted\r\n      addressToLoan[_addressFunded].loanAccepted = true;\r\n      // Student has been accepted so he has an outstanding loan\r\n      studentHasLoan[_addressFunded] = true;\r\n    }\r\n\r\n    /**\r\n      @notice Function used by the Student to repay the Loan\r\n      @dev First you need to call an approve transaction\r\n    */\r\n\r\n    function repayLoan() public hasActiveLoan{\r\n\r\n        require(addressToLoan[msg.sender].loanRepaid == false, \"Loan already repaid\");\r\n        // amount of DAI that will be used to repay the loan\r\n        uint tokenAmount = stableCoinContract.allowance(msg.sender, address(this));\r\n        // Transfer DAI to the contract\r\n        stableCoinContract.transferFrom(msg.sender, address(this), tokenAmount);\r\n        //Calculate Interest matured\r\n        _calculateInterest(tokenAmount);\r\n        // Check if the loan has been fully repaid\r\n        if(addressToRepaid[msg.sender] == 50000){\r\n          // Set loan repaid as true, Student hasn't got an outstanding loan anymore\r\n          addressToLoan[msg.sender].loanRepaid = true;\r\n          delete addressToLoan[msg.sender];\r\n          studentHasLoan[msg.sender] = false;\r\n        }\r\n    }\r\n\r\n    function _calculateInterest(uint tokenAmount) internal{\r\n      // Calculate the interest\r\n      uint _interest = ( 50000 * (addressToLoan[msg.sender].interestLoan.mul(100)).mul(addressToLoan[msg.sender].startDate.diffDays( now)) ).div(36500);\r\n      // Add tokenAmount to mapping\r\n      addressToRepaid[msg.sender] += tokenAmount.sub(_interest);\r\n      // Add interest to mapping\r\n      studentToInterest[msg.sender] = studentToInterest[msg.sender].add(_interest);\r\n    }\r\n\r\n    /**\r\n      @notice Function for the Investors to withdraw their share\r\n      @param _addressFunded Address of the funded student\r\n    */\r\n    function withdrawRepaidLoan(address _addressFunded) public {\r\n\r\n            require( addressToLoan[_addressFunded].startDate.diffYears(now) > 4);\r\n            require( addressToLoan[_addressFunded].loanAccepted == true, \"Loan was not funded/accepted\");\r\n            require( addressToRepaid[_addressFunded] == 50000, \"Loan not fully funded\");\r\n            //Calculate share\r\n            uint share = _calculateRepayment(_addressFunded);\r\n            //ERC20 stableCoinContract = ERC20(stableCoinAddress);\r\n            stableCoinContract.transfer(msg.sender, share);\r\n    }\r\n\r\n    function _calculateRepayment(address _addressFunded) internal returns(uint amount) {\r\n      for(uint i = 0; i<Investors.length; i++){\r\n        if(Investors[i]._addressFunded == _addressFunded){\r\n          uint _tokenAmount = tokensToValue[msg.sender][Investors[i].idNFT];\r\n          uint share = (addressToRepaid[_addressFunded].mul(_tokenAmount)).div(100);\r\n          //Reduce token value\r\n          addressToInvestor[_addressFunded] -= share;\r\n          //Reduce amount of tokens\r\n          tokensToValue[msg.sender][Investors[i].idNFT] -= _tokenAmount;\r\n          // Calculate share of interest\r\n          amount = (studentToInterest[_addressFunded].mul(_tokenAmount)).div(100) + share;\r\n          // Reduce Interest\r\n          studentToInterest[_addressFunded] -= (studentToInterest[_addressFunded].mul(_tokenAmount)).div(100);\r\n      }\r\n    }\r\n\r\n    }\r\n\r\n}\r\n",
  "sourcePath": "C:/Users/tredg/Providentia/contracts/Providentia.sol",
  "compiler": {
    "name": "solc",
    "version": "0.5.0+commit.1d4f565a.Emscripten.clang"
  },
  "schemaVersion": "3.0.11",
  "updatedAt": "2019-07-07T18:00:50.847Z",
  "devdoc": {
    "details": "See https://providentia.netlify.com/\r Note: Some values are hardcoded in order to represent a specific usecase\r",
    "methods": {
      "acceptLoan(address)": {
        "params": {
          "_addressFunded": "Address of the user funded\r"
        }
      },
      "addMoneyPool(address)": {
        "details": "Each token costs 500 DAI and each token represents a share of the loan\r",
        "params": {
          "_addressToFund": "Address of the user to be funded\r"
        }
      },
      "addSchool(address,string)": {
        "params": {
          "_addressSchool": "Ethereum address of the school\r",
          "_universityName": "Name of the university to add\r"
        }
      },
      "addStudent(address,uint256,string,uint256,string,string,string,string)": {
        "params": {
          "_addressStudent": "Address of the Student to add\r",
          "_age": "Age of the Student\r",
          "_country": "Country of the Student\r",
          "_name": "Name of the Student\r",
          "_profAccount": "Github account of the Student\r",
          "_studentId": "Id of the student\r",
          "_university": "University in which the Student is attending to\r",
          "_uri": "Used to store the JSON with the data of the Student\r"
        }
      },
      "allowance(address,address)": {
        "details": "See `IERC20.allowance`."
      },
      "approve(address,uint256)": {
        "details": "See `IERC20.approve`.     * Requirements:     * - `spender` cannot be the zero address."
      },
      "balanceOf(address)": {
        "details": "See `IERC20.balanceOf`."
      },
      "decreaseAllowance(address,uint256)": {
        "details": "Atomically decreases the allowance granted to `spender` by the caller.     * This is an alternative to `approve` that can be used as a mitigation for problems described in `IERC20.approve`.     * Emits an `Approval` event indicating the updated allowance.     * Requirements:     * - `spender` cannot be the zero address. - `spender` must have allowance for the caller of at least `subtractedValue`."
      },
      "increaseAllowance(address,uint256)": {
        "details": "Atomically increases the allowance granted to `spender` by the caller.     * This is an alternative to `approve` that can be used as a mitigation for problems described in `IERC20.approve`.     * Emits an `Approval` event indicating the updated allowance.     * Requirements:     * - `spender` cannot be the zero address."
      },
      "isApprovedForAll(address,address)": {
        "params": {
          "_operator": "Address of authorized operator\r",
          "_owner": "The owner of the Tokens\r"
        },
        "return": "True if the operator is approved, false if not\r"
      },
      "isOwner()": {
        "return": "true if msg.sender is the owner of the contract.\r"
      },
      "owner()": {
        "return": "the address of the owner.\r"
      },
      "renounceOwnership()": {
        "details": "Allows the current owner to relinquish control of the contract.\r It will not be possible to call the functions with the onlyOwner\r modifier anymore.\r"
      },
      "repayLoan()": {
        "details": "First you need to call an approve transaction\r"
      },
      "requestLoan(uint256)": {
        "details": "For this usecase the Student can request a fixed amount of 50000 DAI\r and have a deadline of 5 years to repay the Loan\r",
        "params": {
          "_interestLoan": "Interest rate the student is willing to pay\r"
        }
      },
      "setApprovalForAll(address,bool)": {
        "details": "MUST emit the ApprovalForAll event on success.\r",
        "params": {
          "_approved": "True if the operator is approved, false to revoke approval\r",
          "_operator": "Address to add to the set of authorized operators\r"
        }
      },
      "setStableCoinAddress(address)": {
        "params": {
          "_addressCoin": "Address of the StableCoin Contract\r"
        }
      },
      "totalSupply()": {
        "details": "See `IERC20.totalSupply`."
      },
      "transfer(address,uint256)": {
        "details": "See `IERC20.transfer`.     * Requirements:     * - `recipient` cannot be the zero address. - the caller must have a balance of at least `amount`."
      },
      "transferFrom(address,address,uint256)": {
        "details": "See `IERC20.transferFrom`.     * Emits an `Approval` event indicating the updated allowance. This is not required by the EIP. See the note at the beginning of `ERC20`;     * Requirements: - `sender` and `recipient` cannot be the zero address. - `sender` must have a balance of at least `value`. - the caller must have allowance for `sender`'s tokens of at least `amount`."
      },
      "transferOwnership(address)": {
        "details": "Allows the current owner to transfer control of the contract to a newOwner.\r",
        "params": {
          "newOwner": "The address to transfer ownership to.\r"
        }
      },
      "withdrawLoan(uint256)": {
        "params": {
          "_amount": "Amount the user is willing to withdraw\r"
        }
      },
      "withdrawRepaidLoan(address)": {
        "params": {
          "_addressFunded": "Address of the funded student\r"
        }
      }
    },
    "title": "Providentia, providing students with loan\r"
  },
  "userdoc": {
    "methods": {
      "acceptLoan(address)": {
        "notice": "Function to accept the proposed loan\r"
      },
      "addMoneyPool(address)": {
        "notice": "Function used to add money to the pool for the Student\r"
      },
      "addSchool(address,string)": {
        "notice": "Function used to add the school, only the owner can add school, to prevent misbehavior\r"
      },
      "addStudent(address,uint256,string,uint256,string,string,string,string)": {
        "notice": "Function used to add the Student\r"
      },
      "isApprovedForAll(address,address)": {
        "notice": "Queries the approval status of an operator for a given owner.\r"
      },
      "renounceOwnership()": {
        "notice": "Renouncing ownership will leave the contract without an owner,\r thereby removing any functionality that is only available to the owner.\r"
      },
      "repayLoan()": {
        "notice": "Function used by the Student to repay the Loan\r"
      },
      "requestLoan(uint256)": {
        "notice": "Function used to initiate a Loan process and get funded\r"
      },
      "setApprovalForAll(address,bool)": {
        "notice": "Enable or disable approval for a third party (\"operator\") to manage all of the caller's tokens.\r"
      },
      "setStableCoinAddress(address)": {
        "notice": "Function used to upgrade the contract address of DAI in case it changes\r"
      },
      "withdrawLoan(uint256)": {
        "notice": "Function to withdraw the loan of the Student\r"
      },
      "withdrawRepaidLoan(address)": {
        "notice": "Function for the Investors to withdraw their share\r"
      }
    }
  }
}