{
  "contractName": "Providentia",
  "abi": [
    {
      "constant": true,
      "inputs": [
        {
          "name": "_owner",
          "type": "address"
        },
        {
          "name": "_id",
          "type": "uint256"
        }
      ],
      "name": "balanceOf",
      "outputs": [
        {
          "name": "",
          "type": "uint256"
        }
      ],
      "payable": false,
      "stateMutability": "view",
      "type": "function"
    },
    {
      "constant": true,
      "inputs": [
        {
          "name": "_interfaceId",
          "type": "bytes4"
        }
      ],
      "name": "supportsInterface",
      "outputs": [
        {
          "name": "",
          "type": "bool"
        }
      ],
      "payable": false,
      "stateMutability": "view",
      "type": "function"
    },
    {
      "constant": true,
      "inputs": [
        {
          "name": "",
          "type": "uint256"
        }
      ],
      "name": "maxIndex",
      "outputs": [
        {
          "name": "",
          "type": "uint256"
        }
      ],
      "payable": false,
      "stateMutability": "view",
      "type": "function"
    },
    {
      "constant": false,
      "inputs": [
        {
          "name": "spender",
          "type": "address"
        },
        {
          "name": "value",
          "type": "uint256"
        }
      ],
      "name": "approve",
      "outputs": [
        {
          "name": "",
          "type": "bool"
        }
      ],
      "payable": false,
      "stateMutability": "nonpayable",
      "type": "function"
    },
    {
      "constant": true,
      "inputs": [],
      "name": "totalSupply",
      "outputs": [
        {
          "name": "",
          "type": "uint256"
        }
      ],
      "payable": false,
      "stateMutability": "view",
      "type": "function"
    },
    {
      "constant": true,
      "inputs": [
        {
          "name": "",
          "type": "address"
        }
      ],
      "name": "addressToBalance",
      "outputs": [
        {
          "name": "",
          "type": "uint256"
        }
      ],
      "payable": false,
      "stateMutability": "view",
      "type": "function"
    },
    {
      "constant": false,
      "inputs": [
        {
          "name": "sender",
          "type": "address"
        },
        {
          "name": "recipient",
          "type": "address"
        },
        {
          "name": "amount",
          "type": "uint256"
        }
      ],
      "name": "transferFrom",
      "outputs": [
        {
          "name": "",
          "type": "bool"
        }
      ],
      "payable": false,
      "stateMutability": "nonpayable",
      "type": "function"
    },
    {
      "constant": false,
      "inputs": [
        {
          "name": "_from",
          "type": "address"
        },
        {
          "name": "_to",
          "type": "address"
        },
        {
          "name": "_ids",
          "type": "uint256[]"
        },
        {
          "name": "_values",
          "type": "uint256[]"
        },
        {
          "name": "_data",
          "type": "bytes"
        }
      ],
      "name": "safeBatchTransferFrom",
      "outputs": [],
      "payable": false,
      "stateMutability": "nonpayable",
      "type": "function"
    },
    {
      "constant": false,
      "inputs": [
        {
          "name": "spender",
          "type": "address"
        },
        {
          "name": "addedValue",
          "type": "uint256"
        }
      ],
      "name": "increaseAllowance",
      "outputs": [
        {
          "name": "",
          "type": "bool"
        }
      ],
      "payable": false,
      "stateMutability": "nonpayable",
      "type": "function"
    },
    {
      "constant": true,
      "inputs": [
        {
          "name": "_owners",
          "type": "address[]"
        },
        {
          "name": "_ids",
          "type": "uint256[]"
        }
      ],
      "name": "balanceOfBatch",
      "outputs": [
        {
          "name": "",
          "type": "uint256[]"
        }
      ],
      "payable": false,
      "stateMutability": "view",
      "type": "function"
    },
    {
      "constant": true,
      "inputs": [
        {
          "name": "_id",
          "type": "uint256"
        }
      ],
      "name": "isNonFungibleItem",
      "outputs": [
        {
          "name": "",
          "type": "bool"
        }
      ],
      "payable": false,
      "stateMutability": "pure",
      "type": "function"
    },
    {
      "constant": true,
      "inputs": [
        {
          "name": "_id",
          "type": "uint256"
        }
      ],
      "name": "ownerOf",
      "outputs": [
        {
          "name": "",
          "type": "address"
        }
      ],
      "payable": false,
      "stateMutability": "view",
      "type": "function"
    },
    {
      "constant": true,
      "inputs": [
        {
          "name": "_id",
          "type": "uint256"
        }
      ],
      "name": "getNonFungibleBaseType",
      "outputs": [
        {
          "name": "",
          "type": "uint256"
        }
      ],
      "payable": false,
      "stateMutability": "pure",
      "type": "function"
    },
    {
      "constant": true,
      "inputs": [
        {
          "name": "account",
          "type": "address"
        }
      ],
      "name": "balanceOf",
      "outputs": [
        {
          "name": "",
          "type": "uint256"
        }
      ],
      "payable": false,
      "stateMutability": "view",
      "type": "function"
    },
    {
      "constant": false,
      "inputs": [],
      "name": "renounceOwnership",
      "outputs": [],
      "payable": false,
      "stateMutability": "nonpayable",
      "type": "function"
    },
    {
      "constant": true,
      "inputs": [
        {
          "name": "_id",
          "type": "uint256"
        }
      ],
      "name": "isNonFungibleBaseType",
      "outputs": [
        {
          "name": "",
          "type": "bool"
        }
      ],
      "payable": false,
      "stateMutability": "pure",
      "type": "function"
    },
    {
      "constant": true,
      "inputs": [
        {
          "name": "",
          "type": "address"
        }
      ],
      "name": "addressToData",
      "outputs": [
        {
          "name": "addressStudent",
          "type": "address"
        },
        {
          "name": "studentId",
          "type": "uint256"
        },
        {
          "name": "name",
          "type": "string"
        },
        {
          "name": "age",
          "type": "uint256"
        },
        {
          "name": "country",
          "type": "string"
        },
        {
          "name": "university",
          "type": "string"
        },
        {
          "name": "profAccount",
          "type": "string"
        },
        {
          "name": "idNFT",
          "type": "uint256"
        }
      ],
      "payable": false,
      "stateMutability": "view",
      "type": "function"
    },
    {
      "constant": false,
      "inputs": [
        {
          "name": "_id",
          "type": "uint256"
        },
        {
          "name": "_to",
          "type": "address[]"
        },
        {
          "name": "_quantities",
          "type": "uint256[]"
        }
      ],
      "name": "mintFungible",
      "outputs": [],
      "payable": false,
      "stateMutability": "nonpayable",
      "type": "function"
    },
    {
      "constant": true,
      "inputs": [],
      "name": "owner",
      "outputs": [
        {
          "name": "",
          "type": "address"
        }
      ],
      "payable": false,
      "stateMutability": "view",
      "type": "function"
    },
    {
      "constant": true,
      "inputs": [],
      "name": "isOwner",
      "outputs": [
        {
          "name": "",
          "type": "bool"
        }
      ],
      "payable": false,
      "stateMutability": "view",
      "type": "function"
    },
    {
      "constant": true,
      "inputs": [
        {
          "name": "_id",
          "type": "uint256"
        }
      ],
      "name": "getNonFungibleIndex",
      "outputs": [
        {
          "name": "",
          "type": "uint256"
        }
      ],
      "payable": false,
      "stateMutability": "pure",
      "type": "function"
    },
    {
      "constant": false,
      "inputs": [
        {
          "name": "_operator",
          "type": "address"
        },
        {
          "name": "_approved",
          "type": "bool"
        }
      ],
      "name": "setApprovalForAll",
      "outputs": [],
      "payable": false,
      "stateMutability": "nonpayable",
      "type": "function"
    },
    {
      "constant": false,
      "inputs": [
        {
          "name": "spender",
          "type": "address"
        },
        {
          "name": "subtractedValue",
          "type": "uint256"
        }
      ],
      "name": "decreaseAllowance",
      "outputs": [
        {
          "name": "",
          "type": "bool"
        }
      ],
      "payable": false,
      "stateMutability": "nonpayable",
      "type": "function"
    },
    {
      "constant": false,
      "inputs": [
        {
          "name": "recipient",
          "type": "address"
        },
        {
          "name": "amount",
          "type": "uint256"
        }
      ],
      "name": "transfer",
      "outputs": [
        {
          "name": "",
          "type": "bool"
        }
      ],
      "payable": false,
      "stateMutability": "nonpayable",
      "type": "function"
    },
    {
      "constant": true,
      "inputs": [
        {
          "name": "_id",
          "type": "uint256"
        }
      ],
      "name": "isFungible",
      "outputs": [
        {
          "name": "",
          "type": "bool"
        }
      ],
      "payable": false,
      "stateMutability": "pure",
      "type": "function"
    },
    {
      "constant": false,
      "inputs": [
        {
          "name": "_uri",
          "type": "string"
        },
        {
          "name": "_isNF",
          "type": "bool"
        }
      ],
      "name": "create",
      "outputs": [
        {
          "name": "_type",
          "type": "uint256"
        }
      ],
      "payable": false,
      "stateMutability": "nonpayable",
      "type": "function"
    },
    {
      "constant": true,
      "inputs": [
        {
          "name": "",
          "type": "uint256"
        }
      ],
      "name": "creators",
      "outputs": [
        {
          "name": "",
          "type": "address"
        }
      ],
      "payable": false,
      "stateMutability": "view",
      "type": "function"
    },
    {
      "constant": true,
      "inputs": [
        {
          "name": "",
          "type": "address"
        }
      ],
      "name": "addressToLoan",
      "outputs": [
        {
          "name": "amountDAI",
          "type": "uint256"
        },
        {
          "name": "interestLoan",
          "type": "uint256"
        },
        {
          "name": "amountFunded",
          "type": "uint256"
        },
        {
          "name": "startDate",
          "type": "uint256"
        },
        {
          "name": "endDate",
          "type": "uint256"
        },
        {
          "name": "loanFunded",
          "type": "bool"
        },
        {
          "name": "loanAccepted",
          "type": "bool"
        }
      ],
      "payable": false,
      "stateMutability": "view",
      "type": "function"
    },
    {
      "constant": true,
      "inputs": [
        {
          "name": "",
          "type": "address"
        }
      ],
      "name": "studentToInterest",
      "outputs": [
        {
          "name": "",
          "type": "uint256"
        }
      ],
      "payable": false,
      "stateMutability": "view",
      "type": "function"
    },
    {
      "constant": true,
      "inputs": [
        {
          "name": "owner",
          "type": "address"
        },
        {
          "name": "spender",
          "type": "address"
        }
      ],
      "name": "allowance",
      "outputs": [
        {
          "name": "",
          "type": "uint256"
        }
      ],
      "payable": false,
      "stateMutability": "view",
      "type": "function"
    },
    {
      "constant": true,
      "inputs": [
        {
          "name": "_id",
          "type": "uint256"
        }
      ],
      "name": "isNonFungible",
      "outputs": [
        {
          "name": "",
          "type": "bool"
        }
      ],
      "payable": false,
      "stateMutability": "pure",
      "type": "function"
    },
    {
      "constant": true,
      "inputs": [
        {
          "name": "_owner",
          "type": "address"
        },
        {
          "name": "_operator",
          "type": "address"
        }
      ],
      "name": "isApprovedForAll",
      "outputs": [
        {
          "name": "",
          "type": "bool"
        }
      ],
      "payable": false,
      "stateMutability": "view",
      "type": "function"
    },
    {
      "constant": false,
      "inputs": [
        {
          "name": "_from",
          "type": "address"
        },
        {
          "name": "_to",
          "type": "address"
        },
        {
          "name": "_id",
          "type": "uint256"
        },
        {
          "name": "_value",
          "type": "uint256"
        },
        {
          "name": "_data",
          "type": "bytes"
        }
      ],
      "name": "safeTransferFrom",
      "outputs": [],
      "payable": false,
      "stateMutability": "nonpayable",
      "type": "function"
    },
    {
      "constant": false,
      "inputs": [
        {
          "name": "newOwner",
          "type": "address"
        }
      ],
      "name": "transferOwnership",
      "outputs": [],
      "payable": false,
      "stateMutability": "nonpayable",
      "type": "function"
    },
    {
      "constant": false,
      "inputs": [
        {
          "name": "_type",
          "type": "uint256"
        },
        {
          "name": "_to",
          "type": "address[]"
        }
      ],
      "name": "mintNonFungible",
      "outputs": [],
      "payable": false,
      "stateMutability": "nonpayable",
      "type": "function"
    },
    {
      "constant": true,
      "inputs": [
        {
          "name": "",
          "type": "uint256"
        }
      ],
      "name": "Investors",
      "outputs": [
        {
          "name": "_addressFunder",
          "type": "address"
        },
        {
          "name": "_amount",
          "type": "uint256"
        },
        {
          "name": "_addressFunded",
          "type": "address"
        },
        {
          "name": "idNFT",
          "type": "uint256"
        }
      ],
      "payable": false,
      "stateMutability": "view",
      "type": "function"
    },
    {
      "inputs": [
        {
          "name": "_stableCoinAddress",
          "type": "address"
        },
        {
          "name": "_tokenIERC1155",
          "type": "address"
        }
      ],
      "payable": false,
      "stateMutability": "nonpayable",
      "type": "constructor"
    },
    {
      "anonymous": false,
      "inputs": [
        {
          "indexed": false,
          "name": "addressStudent",
          "type": "address"
        },
        {
          "indexed": false,
          "name": "studentId",
          "type": "uint256"
        },
        {
          "indexed": false,
          "name": "_name",
          "type": "string"
        },
        {
          "indexed": false,
          "name": "_age",
          "type": "uint256"
        },
        {
          "indexed": false,
          "name": "_country",
          "type": "string"
        },
        {
          "indexed": false,
          "name": "_profAccount",
          "type": "string"
        },
        {
          "indexed": false,
          "name": "_university",
          "type": "string"
        }
      ],
      "name": "studentCreated",
      "type": "event"
    },
    {
      "anonymous": false,
      "inputs": [
        {
          "indexed": true,
          "name": "_operator",
          "type": "address"
        },
        {
          "indexed": true,
          "name": "_from",
          "type": "address"
        },
        {
          "indexed": true,
          "name": "_to",
          "type": "address"
        },
        {
          "indexed": false,
          "name": "_id",
          "type": "uint256"
        },
        {
          "indexed": false,
          "name": "_value",
          "type": "uint256"
        }
      ],
      "name": "TransferSingle",
      "type": "event"
    },
    {
      "anonymous": false,
      "inputs": [
        {
          "indexed": true,
          "name": "_operator",
          "type": "address"
        },
        {
          "indexed": true,
          "name": "_from",
          "type": "address"
        },
        {
          "indexed": true,
          "name": "_to",
          "type": "address"
        },
        {
          "indexed": false,
          "name": "_ids",
          "type": "uint256[]"
        },
        {
          "indexed": false,
          "name": "_values",
          "type": "uint256[]"
        }
      ],
      "name": "TransferBatch",
      "type": "event"
    },
    {
      "anonymous": false,
      "inputs": [
        {
          "indexed": true,
          "name": "_owner",
          "type": "address"
        },
        {
          "indexed": true,
          "name": "_operator",
          "type": "address"
        },
        {
          "indexed": false,
          "name": "_approved",
          "type": "bool"
        }
      ],
      "name": "ApprovalForAll",
      "type": "event"
    },
    {
      "anonymous": false,
      "inputs": [
        {
          "indexed": false,
          "name": "_value",
          "type": "string"
        },
        {
          "indexed": true,
          "name": "_id",
          "type": "uint256"
        }
      ],
      "name": "URI",
      "type": "event"
    },
    {
      "anonymous": false,
      "inputs": [
        {
          "indexed": true,
          "name": "from",
          "type": "address"
        },
        {
          "indexed": true,
          "name": "to",
          "type": "address"
        },
        {
          "indexed": false,
          "name": "value",
          "type": "uint256"
        }
      ],
      "name": "Transfer",
      "type": "event"
    },
    {
      "anonymous": false,
      "inputs": [
        {
          "indexed": true,
          "name": "owner",
          "type": "address"
        },
        {
          "indexed": true,
          "name": "spender",
          "type": "address"
        },
        {
          "indexed": false,
          "name": "value",
          "type": "uint256"
        }
      ],
      "name": "Approval",
      "type": "event"
    },
    {
      "anonymous": false,
      "inputs": [
        {
          "indexed": true,
          "name": "previousOwner",
          "type": "address"
        },
        {
          "indexed": true,
          "name": "newOwner",
          "type": "address"
        }
      ],
      "name": "OwnershipTransferred",
      "type": "event"
    },
    {
      "constant": false,
      "inputs": [
        {
          "name": "_addressCoin",
          "type": "address"
        }
      ],
      "name": "setStableCoinAddress",
      "outputs": [],
      "payable": false,
      "stateMutability": "nonpayable",
      "type": "function"
    },
    {
      "constant": false,
      "inputs": [
        {
          "name": "_addressStudent",
          "type": "address"
        },
        {
          "name": "_studentId",
          "type": "uint256"
        },
        {
          "name": "_name",
          "type": "string"
        },
        {
          "name": "_age",
          "type": "uint256"
        },
        {
          "name": "_country",
          "type": "string"
        },
        {
          "name": "_profAccount",
          "type": "string"
        },
        {
          "name": "_university",
          "type": "string"
        },
        {
          "name": "_uri",
          "type": "string"
        }
      ],
      "name": "addStudent",
      "outputs": [],
      "payable": false,
      "stateMutability": "nonpayable",
      "type": "function"
    },
    {
      "constant": false,
      "inputs": [
        {
          "name": "_addressSchool",
          "type": "address"
        },
        {
          "name": "_universityName",
          "type": "string"
        }
      ],
      "name": "addSchool",
      "outputs": [],
      "payable": false,
      "stateMutability": "nonpayable",
      "type": "function"
    },
    {
      "constant": false,
      "inputs": [
        {
          "name": "_interestLoan",
          "type": "uint256"
        }
      ],
      "name": "requestLoan",
      "outputs": [],
      "payable": false,
      "stateMutability": "nonpayable",
      "type": "function"
    },
    {
      "constant": false,
      "inputs": [
        {
          "name": "_addressToFund",
          "type": "address"
        }
      ],
      "name": "addMoneyPool",
      "outputs": [],
      "payable": false,
      "stateMutability": "nonpayable",
      "type": "function"
    },
    {
      "constant": false,
      "inputs": [
        {
          "name": "_amount",
          "type": "uint256"
        }
      ],
      "name": "withdrawLoan",
      "outputs": [],
      "payable": false,
      "stateMutability": "nonpayable",
      "type": "function"
    },
    {
      "constant": false,
      "inputs": [
        {
          "name": "_addressFunded",
          "type": "address"
        }
      ],
      "name": "acceptLoan",
      "outputs": [],
      "payable": false,
      "stateMutability": "nonpayable",
      "type": "function"
    },
    {
      "constant": false,
      "inputs": [],
      "name": "repayLoan",
      "outputs": [],
      "payable": false,
      "stateMutability": "nonpayable",
      "type": "function"
    },
    {
      "constant": false,
      "inputs": [
        {
          "name": "_addressFunded",
          "type": "address"
        }
      ],
      "name": "withdrawRepaidLoan",
      "outputs": [],
      "payable": false,
      "stateMutability": "nonpayable",
      "type": "function"
    },
    {
      "constant": true,
      "inputs": [
        {
          "name": "_addressFunded",
          "type": "address"
        }
      ],
      "name": "getShare",
      "outputs": [
        {
          "name": "_share",
          "type": "uint256"
        }
      ],
      "payable": false,
      "stateMutability": "view",
      "type": "function"
    },
    {
      "constant": true,
      "inputs": [
        {
          "name": "_addressFunded",
          "type": "address"
        }
      ],
      "name": "tokensAmount",
      "outputs": [
        {
          "name": "_amount",
          "type": "uint256"
        }
      ],
      "payable": false,
      "stateMutability": "view",
      "type": "function"
    }
  ],
  "bytecode": "0x60a0604052606460809081526200001b9060149060016200010f565b503480156200002957600080fd5b5060405160408062004fe8833981018060405260408110156200004b57600080fd5b50805160209091015160008054600160a060020a0319163317808255604051600160a060020a039190911691907f8be0079c531659141344cd1fd0a4f28419497f9722a3daafe3b4186f6b6457e0908290a360158054600160a060020a03938416600160a060020a031991821617909155601680549290931691811691909117909155601380546001810182556000919091527f66de8ffda797e3de9c05e8fc57b3bf0ec28a930d40b0d285d93c06501cf6a0900180549091163317905562000184565b82805482825590600052602060002090810192821562000152579160200282015b8281111562000152578251829060ff1690559160200191906001019062000130565b506200016092915062000164565b5090565b6200018191905b808211156200016057600081556001016200016b565b90565b614e5480620001946000396000f3fe6080604052600436106102205763ffffffff60e060020a600035041662fdd58e811461022557806301ffc9a71461027057806308d7d469146102b8578063095ea7b3146102e257806310f108881461031b57806318160ddd14610350578063237c980a1461036557806323b872dd146103985780632a104d8d146103db5780632eb2c2d614610405578063395093511461053f57806344879b3b146105785780634b3ab9c5146105ab5780634e1273f4146105de5780635e81b958146106fd5780636352211e146107275780636b14c51e1461076d5780636f969c2d146107a057806370a08231146107ca578063715018a6146107fd5780637269a32714610812578063740298f61461083c57806378b2722114610a475780638453cbd714610b1d5780638d5d342914610b505780638da5cb5b14610b7a5780638f32d59b14610b8f5780639cca1c6414610ba4578063a22cb46514610bce578063a457c2d714610c09578063a714c5de14610c42578063a9059cbb14610d05578063a9310a5214610d3e578063adebf6f21461102b578063cc10e40114611055578063cd53d08e146110d4578063d47d3b0a146110fe578063d5d5ebd21461116d578063d778b721146111a0578063dd62ed3e146111d3578063e44591f01461120e578063e985e9c514611238578063f242432a14611273578063f2fde38b14611315578063f941908814611348578063f966ade7146113cc578063fbae5e7d146113e1575b600080fd5b34801561023157600080fd5b5061025e6004803603604081101561024857600080fd5b50600160a060020a038135169060200135611440565b60408051918252519081900360200190f35b34801561027c57600080fd5b506102a46004803603602081101561029357600080fd5b5035600160e060020a0319166114b0565b604080519115158252519081900360200190f35b3480156102c457600080fd5b5061025e600480360360208110156102db57600080fd5b5035611529565b3480156102ee57600080fd5b506102a46004803603604081101561030557600080fd5b50600160a060020a03813516906020013561153b565b34801561032757600080fd5b5061034e6004803603602081101561033e57600080fd5b5035600160a060020a0316611551565b005b34801561035c57600080fd5b5061025e611755565b34801561037157600080fd5b5061025e6004803603602081101561038857600080fd5b5035600160a060020a031661175c565b3480156103a457600080fd5b506102a4600480360360608110156103bb57600080fd5b50600160a060020a0381358116916020810135909116906040013561176e565b3480156103e757600080fd5b5061034e600480360360208110156103fe57600080fd5b50356117c6565b34801561041157600080fd5b5061034e600480360360a081101561042857600080fd5b600160a060020a03823581169260208101359091169181019060608101604082013564010000000081111561045c57600080fd5b82018360208201111561046e57600080fd5b8035906020019184602083028401116401000000008311171561049057600080fd5b9193909290916020810190356401000000008111156104ae57600080fd5b8201836020820111156104c057600080fd5b803590602001918460208302840111640100000000831117156104e257600080fd5b91939092909160208101903564010000000081111561050057600080fd5b82018360208201111561051257600080fd5b8035906020019184600183028401116401000000008311171561053457600080fd5b50909250905061189a565b34801561054b57600080fd5b506102a46004803603604081101561056257600080fd5b50600160a060020a038135169060200135611d02565b34801561058457600080fd5b5061034e6004803603602081101561059b57600080fd5b5035600160a060020a0316611d3e565b3480156105b757600080fd5b5061025e600480360360208110156105ce57600080fd5b5035600160a060020a0316611dac565b3480156105ea57600080fd5b506106ad6004803603604081101561060157600080fd5b81019060208101813564010000000081111561061c57600080fd5b82018360208201111561062e57600080fd5b8035906020019184602083028401116401000000008311171561065057600080fd5b91939092909160208101903564010000000081111561066e57600080fd5b82018360208201111561068057600080fd5b803590602001918460208302840111640100000000831117156106a257600080fd5b509092509050611e87565b60408051602080825283518183015283519192839290830191858101910280838360005b838110156106e95781810151838201526020016106d1565b505050509050019250505060405180910390f35b34801561070957600080fd5b506102a46004803603602081101561072057600080fd5b5035611fd2565b34801561073357600080fd5b506107516004803603602081101561074a57600080fd5b5035611ffc565b60408051600160a060020a039092168252519081900360200190f35b34801561077957600080fd5b5061034e6004803603602081101561079057600080fd5b5035600160a060020a0316612017565b3480156107ac57600080fd5b5061025e600480360360208110156107c357600080fd5b50356120c4565b3480156107d657600080fd5b5061025e600480360360208110156107ed57600080fd5b5035600160a060020a03166120da565b34801561080957600080fd5b5061034e6120f5565b34801561081e57600080fd5b506102a46004803603602081101561083557600080fd5b503561218b565b34801561084857600080fd5b5061086f6004803603602081101561085f57600080fd5b5035600160a060020a03166121b4565b6040518089600160a060020a0316600160a060020a031681526020018881526020018060200187815260200180602001806020018060200186815260200185810385528b818151815260200191508051906020019080838360005b838110156108e25781810151838201526020016108ca565b50505050905090810190601f16801561090f5780820380516001836020036101000a031916815260200191505b5085810384528951815289516020918201918b019080838360005b8381101561094257818101518382015260200161092a565b50505050905090810190601f16801561096f5780820380516001836020036101000a031916815260200191505b5085810383528851815288516020918201918a019080838360005b838110156109a257818101518382015260200161098a565b50505050905090810190601f1680156109cf5780820380516001836020036101000a031916815260200191505b50858103825287518152875160209182019189019080838360005b83811015610a025781810151838201526020016109ea565b50505050905090810190601f168015610a2f5780820380516001836020036101000a031916815260200191505b509c5050505050505050505050505060405180910390f35b348015610a5357600080fd5b5061034e60048036036060811015610a6a57600080fd5b81359190810190604081016020820135640100000000811115610a8c57600080fd5b820183602082011115610a9e57600080fd5b80359060200191846020830284011164010000000083111715610ac057600080fd5b919390929091602081019035640100000000811115610ade57600080fd5b820183602082011115610af057600080fd5b80359060200191846020830284011164010000000083111715610b1257600080fd5b509092509050612427565b348015610b2957600080fd5b5061025e60048036036020811015610b4057600080fd5b5035600160a060020a031661256f565b348015610b5c57600080fd5b5061034e60048036036020811015610b7357600080fd5b5035612605565b348015610b8657600080fd5b506107516127d6565b348015610b9b57600080fd5b506102a46127e5565b348015610bb057600080fd5b5061025e60048036036020811015610bc757600080fd5b50356127f6565b348015610bda57600080fd5b5061034e60048036036040811015610bf157600080fd5b50600160a060020a038135169060200135151561280b565b348015610c1557600080fd5b506102a460048036036040811015610c2c57600080fd5b50600160a060020a038135169060200135612879565b348015610c4e57600080fd5b5061034e60048036036040811015610c6557600080fd5b600160a060020a038235169190810190604081016020820135640100000000811115610c9057600080fd5b820183602082011115610ca257600080fd5b80359060200191846001830284011164010000000083111715610cc457600080fd5b91908080601f0160208091040260200160405190810160405280939291908181526020018383808284376000920191909152509295506128b5945050505050565b348015610d1157600080fd5b506102a460048036036040811015610d2857600080fd5b50600160a060020a038135169060200135612984565b348015610d4a57600080fd5b5061034e6004803603610100811015610d6257600080fd5b600160a060020a0382351691602081013591810190606081016040820135640100000000811115610d9257600080fd5b820183602082011115610da457600080fd5b80359060200191846001830284011164010000000083111715610dc657600080fd5b91908080601f01602080910402602001604051908101604052809392919081815260200183838082843760009201919091525092958435959094909350604081019250602001359050640100000000811115610e2157600080fd5b820183602082011115610e3357600080fd5b80359060200191846001830284011164010000000083111715610e5557600080fd5b91908080601f0160208091040260200160405190810160405280939291908181526020018383808284376000920191909152509295949360208101935035915050640100000000811115610ea857600080fd5b820183602082011115610eba57600080fd5b80359060200191846001830284011164010000000083111715610edc57600080fd5b91908080601f0160208091040260200160405190810160405280939291908181526020018383808284376000920191909152509295949360208101935035915050640100000000811115610f2f57600080fd5b820183602082011115610f4157600080fd5b80359060200191846001830284011164010000000083111715610f6357600080fd5b91908080601f0160208091040260200160405190810160405280939291908181526020018383808284376000920191909152509295949360208101935035915050640100000000811115610fb657600080fd5b820183602082011115610fc857600080fd5b80359060200191846001830284011164010000000083111715610fea57600080fd5b91908080601f016020809104026020016040519081016040528093929190818152602001838380828437600092019190915250929550612991945050505050565b34801561103757600080fd5b506102a46004803603602081101561104e57600080fd5b5035613220565b34801561106157600080fd5b5061025e6004803603604081101561107857600080fd5b81019060208101813564010000000081111561109357600080fd5b8201836020820111156110a557600080fd5b803590602001918460018302840111640100000000831117156110c757600080fd5b919350915035151561322a565b3480156110e057600080fd5b50610751600480360360208110156110f757600080fd5b5035613311565b34801561110a57600080fd5b506111316004803603602081101561112157600080fd5b5035600160a060020a031661332c565b6040805197885260208801969096528686019490945260608601929092526080850152151560a0840152151560c0830152519081900360e00190f35b34801561117957600080fd5b5061025e6004803603602081101561119057600080fd5b5035600160a060020a031661336d565b3480156111ac57600080fd5b5061034e600480360360208110156111c357600080fd5b5035600160a060020a031661337f565b3480156111df57600080fd5b5061025e600480360360408110156111f657600080fd5b50600160a060020a038135811691602001351661392c565b34801561121a57600080fd5b506102a46004803603602081101561123157600080fd5b5035613957565b34801561124457600080fd5b506102a46004803603604081101561125b57600080fd5b50600160a060020a0381358116916020013516613963565b34801561127f57600080fd5b5061034e600480360360a081101561129657600080fd5b600160a060020a03823581169260208101359091169160408201359160608101359181019060a0810160808201356401000000008111156112d657600080fd5b8201836020820111156112e857600080fd5b8035906020019184600183028401116401000000008311171561130a57600080fd5b509092509050613991565b34801561132157600080fd5b5061034e6004803603602081101561133857600080fd5b5035600160a060020a0316613c40565b34801561135457600080fd5b5061034e6004803603604081101561136b57600080fd5b8135919081019060408101602082013564010000000081111561138d57600080fd5b82018360208201111561139f57600080fd5b803590602001918460208302840111640100000000831117156113c157600080fd5b509092509050613c98565b3480156113d857600080fd5b5061034e613dcc565b3480156113ed57600080fd5b5061140b6004803603602081101561140457600080fd5b5035613fa5565b60408051600160a060020a03958616815260208101949094529190931682820152606082019290925290519081900360800190f35b600061144b82611fd2565b1561148557600082815260066020526040902054600160a060020a0384811691161461147857600061147b565b60015b60ff1690506114aa565b506000818152600460209081526040808320600160a060020a03861684529091529020545b92915050565b6000600160e060020a031982167f01ffc9a70000000000000000000000000000000000000000000000000000000014806115135750600160e060020a031982167fd9b67a2600000000000000000000000000000000000000000000000000000000145b1561152057506001611524565b5060005b919050565b60096020526000908152604090205481565b6000611548338484613feb565b50600192915050565b8033600160a060020a03166011600a600084600160a060020a0316600160a060020a0316815260200190815260200160002060050160405180828054600181600116156101000203166002900480156115e15780601f106115bf5761010080835404028352918201916115e1565b820191906000526020600020905b8154815290600101906020018083116115cd575b5050928352505060405190819003602001902054600160a060020a031614611678576040805160e560020a62461bcd028152602060048201526024808201527f5468652073656e646572206973206e6f7420616e20617070726f76656420736360448201527f686f6f6c00000000000000000000000000000000000000000000000000000000606482015290519081900360840190fd5b600160a060020a0382166000908152600b602052604090206005015460ff161515600114611716576040805160e560020a62461bcd02815260206004820152602360248201527f4c6f616e20686173206e6f74206265656e2066756e64656420636f6d706c657460448201527f656c790000000000000000000000000000000000000000000000000000000000606482015290519081900360840190fd5b50600160a060020a03166000908152600b60209081526040808320600501805461ff001916610100179055600e9091529020805460ff19166001179055565b6003545b90565b600c6020526000908152604090205481565b600061177b848484614158565b600160a060020a0384166000908152600260209081526040808320338085529252909120546117bb9186916117b6908663ffffffff61431e16565b613feb565b5060015b9392505050565b336000908152600c60205260409020548110806117f15750336000908152600c602052604090205415155b15156117fc57600080fd5b601554604080517fa9059cbb000000000000000000000000000000000000000000000000000000008152336004820152602481018490529051600160a060020a0390921691829163a9059cbb9160448083019260209291908290030181600087803b15801561186a57600080fd5b505af115801561187e573d6000803e3d6000fd5b505050506040513d602081101561189457600080fd5b50505050565b600160a060020a03871615156118fa576040805160e560020a62461bcd02815260206004820152601b60248201527f63616e6e6f742073656e6420746f207a65726f20616464726573730000000000604482015290519081900360640190fd5b848314611951576040805160e560020a62461bcd02815260206004820152601760248201527f4172726179206c656e677468206d757374206d61746368000000000000000000604482015290519081900360640190fd5b600160a060020a0388163314806119905750600160a060020a038816600090815260056020908152604080832033845290915290205460ff1615156001145b1515611a0c576040805160e560020a62461bcd02815260206004820152602f60248201527f4e656564206f70657261746f7220617070726f76616c20666f7220337264207060448201527f61727479207472616e73666572732e0000000000000000000000000000000000606482015290519081900360840190fd5b60005b85811015611b8b576000878783818110611a2557fe5b90506020020135905060008686848181101515611a3e57fe5b905060200201359050611a5082613957565b15611aa757600082815260066020526040902054600160a060020a038c8116911614611a7b57600080fd5b60008281526006602052604090208054600160a060020a031916600160a060020a038c16179055611b81565b6000828152600460209081526040808320600160a060020a038f168452909152902054611ada908263ffffffff61431e16565b6004600084815260200190815260200160002060008d600160a060020a0316600160a060020a0316815260200190815260200160002081905550611b5d6004600084815260200190815260200160002060008c600160a060020a0316600160a060020a03168152602001908152602001600020548261437e90919063ffffffff16565b6000838152600460209081526040808320600160a060020a038f1684529091529020555b5050600101611a0f565b5086600160a060020a031688600160a060020a031633600160a060020a03167f4a39dc06d4c0dbc64b70af90fd698a233a518aa5d07e595d983b8c0526c8f7fb898989896040518080602001806020018381038352878782818152602001925060200280828437600083820152601f01601f19169091018481038352858152602090810191508690860280828437600083820152604051601f909101601f19169092018290039850909650505050505050a4611c4f87600160a060020a03166143db565b15611cf857611cf833898989898080602002602001604051908101604052809392919081815260200183836020028082843760009201919091525050604080516020808d0282810182019093528c82529093508c92508b91829185019084908082843760009201919091525050604080516020601f8c018190048102820181019092528a815292508a91508990819084018382808284376000920191909152506143e392505050565b5050505050505050565b336000818152600260209081526040808320600160a060020a038716845290915281205490916115489185906117b6908663ffffffff61437e16565b611d466127e5565b1515611d8a576040805160e560020a62461bcd0281526020600482018190526024820152600080516020614e09833981519152604482015290519081900360640190fd5b60158054600160a060020a031916600160a060020a0392909216919091179055565b6000805b601254811015611e815782600160a060020a0316601282815481101515611dd357fe5b6000918252602090912060026004909202010154600160a060020a03161415611e79573360009081526010602052604081206012805483919085908110611e1657fe5b9060005260206000209060040201600301548152602001908152602001600020549050611e75611e5060648361462990919063ffffffff16565b600160a060020a0386166000908152600c60205260409020549063ffffffff61469816565b9250505b600101611db0565b50919050565b6060838214611e9557600080fd5b604080518581526020808702820101909152606090858015611ec1578160200160208202803883390190505b50905060005b85811015611fc8576000858583818110611edd57fe5b905060200201359050611eef81611fd2565b15611f5a57878783818110611f0057fe5b60008481526006602090815260409091205491029290920135600160a060020a039081169216919091149050611f37576000611f3a565b60015b60ff168383815181101515611f4b57fe5b60209081029091010152611fbf565b600081815260046020526040812090898985818110611f7557fe5b90506020020135600160a060020a0316600160a060020a0316600160a060020a03168152602001908152602001600020548383815181101515611fb457fe5b602090810290910101525b50600101611ec7565b5095945050505050565b600060ff60020a8083161480156114aa5750506fffffffffffffffffffffffffffffffff16151590565b600090815260066020526040902054600160a060020a031690565b600061202282614734565b601554604080517fa9059cbb000000000000000000000000000000000000000000000000000000008152336004820152602481018490529051929350600160a060020a0390911691829163a9059cbb9160448083019260209291908290030181600087803b15801561209357600080fd5b505af11580156120a7573d6000803e3d6000fd5b505050506040513d60208110156120bd57600080fd5b5050505050565b6fffffffffffffffffffffffffffffffff191690565b600160a060020a031660009081526001602052604090205490565b6120fd6127e5565b1515612141576040805160e560020a62461bcd0281526020600482018190526024820152600080516020614e09833981519152604482015290519081900360640190fd5b60008054604051600160a060020a03909116907f8be0079c531659141344cd1fd0a4f28419497f9722a3daafe3b4186f6b6457e0908390a360008054600160a060020a0319169055565b600060ff60020a8083161480156114aa5750506fffffffffffffffffffffffffffffffff161590565b600a6020908152600091825260409182902080546001808301546002808501805488516101009582161595909502600019011691909104601f8101879004870284018701909752868352600160a060020a039093169590949192918301828280156122605780601f1061223557610100808354040283529160200191612260565b820191906000526020600020905b81548152906001019060200180831161224357829003601f168201915b50505050600383015460048401805460408051602060026001851615610100026000190190941693909304601f810184900484028201840190925281815295969395939450908301828280156122f75780601f106122cc576101008083540402835291602001916122f7565b820191906000526020600020905b8154815290600101906020018083116122da57829003601f168201915b5050505060058301805460408051602060026001851615610100026000190190941693909304601f81018490048402820184019092528181529495949350908301828280156123875780601f1061235c57610100808354040283529160200191612387565b820191906000526020600020905b81548152906001019060200180831161236a57829003601f168201915b5050505060068301805460408051602060026001851615610100026000190190941693909304601f81018490048402820184019092528181529495949350908301828280156124175780601f106123ec57610100808354040283529160200191612417565b820191906000526020600020905b8154815290600101906020018083116123fa57829003601f168201915b5050505050908060070154905088565b6000858152600860205260409020548590600160a060020a0316331461244c57600080fd5b61245586613220565b151561246057600080fd5b60005b8481101561256657600086868381811061247957fe5b90506020020135600160a060020a031690506000858584818110151561249b57fe5b60008c8152600460209081526040808320600160a060020a03891684528252909120549102929092013592506124d99183915063ffffffff61437e16565b60008a8152600460209081526040808320600160a060020a0387168085529083528184209490945580518d815291820185905280513392600080516020614de983398151915292908290030190a461253982600160a060020a03166143db565b1561255c5761255c3333848c8560206040519081016040528060008152506147e4565b5050600101612463565b50505050505050565b6000805b601254811015611e815782600160a060020a031660128281548110151561259657fe5b6000918252602090912060026004909202010154600160a060020a031614156125fd5733600090815260106020526040812060128054919291849081106125d957fe5b90600052602060002090600402016003015481526020019081526020016000205491505b600101612573565b336000908152600b602052604090205415612690576040805160e560020a62461bcd02815260206004820152602960248201527f557365722068617320616c726561647920696e697469617465642061204c6f6160448201527f6e2070726f636573730000000000000000000000000000000000000000000000606482015290519081900360840190fd5b336000908152600a60205260409020600290810154600019610100600183161502011604151561270a576040805160e560020a62461bcd02815260206004820152601d60248201527f53747564656e74206861736e2774206265656e20616464656420796574000000604482015290519081900360640190fd5b60e06040519081016040528061c3508152602001828152602001600081526020014281526020016127456005426149ae90919063ffffffff16565b8152600060208083018290526040928301829052338252600b815282822084518155848201516001820155848401516002820155606085015160038201556080850151600482015560a08501516005909101805460c09096015115156101000261ff001992151560ff199788161792909216919091179055600c8152828220829055600e9052208054909116905550565b600054600160a060020a031690565b600054600160a060020a0316331490565b6fffffffffffffffffffffffffffffffff1690565b336000818152600560209081526040808320600160a060020a03871680855290835292819020805460ff1916861515908117909155815190815290519293927f17307eab39ab6107e8899845ad3d59bd9653f200f220920489ca2b5937696c31929181900390910190a35050565b336000818152600260209081526040808320600160a060020a038716845290915281205490916115489185906117b6908663ffffffff61431e16565b6128bd6127e5565b1515612901576040805160e560020a62461bcd0281526020600482018190526024820152600080516020614e09833981519152604482015290519081900360640190fd5b816011826040518082805190602001908083835b602083106129345780518252601f199092019160209182019101612915565b51815160209384036101000a600019018019909216911617905292019485525060405193849003019092208054600160a060020a031916600160a060020a03949094169390931790925550505050565b6000611548338484614158565b600160a060020a0388166000908152600a6020526040902060029081015460001961010060018316150201160415612a39576040805160e560020a62461bcd02815260206004820152602f60248201527f416e20616464726573732063616e206f6e6c792068617665206f6e652053747560448201527f64656e74206173736f6369617465640000000000000000000000000000000000606482015290519081900360840190fd5b6000600160a060020a03166011836040518082805190602001908083835b60208310612a765780518252601f199092019160209182019101612a57565b51815160209384036101000a6000190180199092169116179052920194855250604051938490030190922054600160a060020a031692909214159150612b089050576040805160e560020a62461bcd02815260206004820181905260248201527f556e6976657273697479206861736e2774206265656e20616464656420796574604482015290519081900360640190fd5b601654604080517fcc10e40100000000000000000000000000000000000000000000000000000000815260016024820181905260048201928352845160448301528451600094600160a060020a03169363cc10e4019387939282916064019060208601908083838c5b83811015612b89578181015183820152602001612b71565b50505050905090810190601f168015612bb65780820380516001836020036101000a031916815260200191505b509350505050602060405180830381600087803b158015612bd657600080fd5b505af1158015612bea573d6000803e3d6000fd5b505050506040513d6020811015612c0057600080fd5b5051601654604080517ff941908800000000000000000000000000000000000000000000000000000000815260048101848152602482019283526013805460448401819052959650600160a060020a039094169463f94190889487949093909160649091019084908015612c9d57602002820191906000526020600020905b8154600160a060020a03168152600190910190602001808311612c7f575b50509350505050600060405180830381600087803b158015612cbe57600080fd5b505af1158015612cd2573d6000803e3d6000fd5b5050601654604080517fcc10e40100000000000000000000000000000000000000000000000000000000815260006024820181905260048201928352875160448301528751909550600160a060020a03909316935063cc10e401928792869290918291606401906020860190808383885b83811015612d5b578181015183820152602001612d43565b50505050905090810190601f168015612d885780820380516001836020036101000a031916815260200191505b509350505050602060405180830381600087803b158015612da857600080fd5b505af1158015612dbc573d6000803e3d6000fd5b505050506040513d6020811015612dd257600080fd5b50516016546040517f78b27221000000000000000000000000000000000000000000000000000000008152600481018381526060602483019081526013805460648501819052959650600160a060020a03909416946378b27221948794909360149390929091604481019160849091019086908015612e7a57602002820191906000526020600020905b8154600160a060020a03168152600190910190602001808311612e5c575b50508381038252848181548152602001915080548015612eb957602002820191906000526020600020905b815481526020019060010190808311612ea5575b505095505050505050600060405180830381600087803b158015612edc57600080fd5b505af1158015612ef0573d6000803e3d6000fd5b50505050610100604051908101604052808b600160a060020a031681526020018a815260200189815260200188815260200187815260200185815260200186815260200183815250600a60008c600160a060020a0316600160a060020a0316815260200190815260200160002060008201518160000160006101000a815481600160a060020a030219169083600160a060020a03160217905550602082015181600101556040820151816002019080519060200190612fb0929190614d50565b506060820151600382015560808201518051612fd6916004840191602090910190614d50565b5060a08201518051612ff2916005840191602090910190614d50565b5060c0820151805161300e916006840191602090910190614d50565b5060e082015181600701559050507f818fdaabb8bd66ad9c1c6f1afc31e7c033a43b7001fe287d96341b110cc2f4b08a8a8a8a8a8a8a6040518088600160a060020a0316600160a060020a031681526020018781526020018060200186815260200180602001806020018060200185810385528a818151815260200191508051906020019080838360005b838110156130b1578181015183820152602001613099565b50505050905090810190601f1680156130de5780820380516001836020036101000a031916815260200191505b5085810384528851815288516020918201918a019080838360005b838110156131115781810151838201526020016130f9565b50505050905090810190601f16801561313e5780820380516001836020036101000a031916815260200191505b50858103835287518152875160209182019189019080838360005b83811015613171578181015183820152602001613159565b50505050905090810190601f16801561319e5780820380516001836020036101000a031916815260200191505b50858103825286518152865160209182019188019080838360005b838110156131d15781810151838201526020016131b9565b50505050905090810190601f1680156131fe5780820380516001836020036101000a031916815260200191505b509b50505050505050505050505060405180910390a150505050505050505050565b60ff60020a161590565b60078054600101908190557001000000000000000000000000000000000281156132555760ff60020a175b60008181526008602090815260408083208054600160a060020a031916339081179091558151858152928301849052815184939192600080516020614de9833981519152928290030190a460008311156117bf57807f6bb7ff708619ba0610cba295a58592e0451dee2622938c8755667688daf3529b858560405180806020018281038252848482818152602001925080828437600083820152604051601f909101601f19169092018290039550909350505050a29392505050565b600860205260009081526040902054600160a060020a031681565b600b60205260009081526040902080546001820154600283015460038401546004850154600590950154939492939192909160ff8082169161010090041687565b600d6020526000908152604090205481565b600160a060020a0381166000908152600b6020526040902060050154819060ff16156133f5576040805160e560020a62461bcd02815260206004820152601e60248201527f557365722068617320616c726561647920612066756e646564206c6f616e0000604482015290519081900360640190fd5b601554604080517fdd62ed3e0000000000000000000000000000000000000000000000000000000081523360048201523060248201529051600160a060020a0390921691600091839163dd62ed3e91604480820192602092909190829003018186803b15801561346457600080fd5b505afa158015613478573d6000803e3d6000fd5b505050506040513d602081101561348e57600080fd5b5051600160a060020a0385166000908152600b60205260409020549091506134bd90606463ffffffff61462916565b81101580156134ce57506101f48106155b1515613570576040805160e560020a62461bcd02815260206004820152604560248201527f54686520616d6f756e742073656e74206d7573742062652061206d756c74697060448201527f6c696572206f66203530302e204561636820746f6b656e20636f73747320353060648201527f3020444149000000000000000000000000000000000000000000000000000000608482015290519081900360a40190fd5b600160a060020a0384166000908152600c602052604090205461c35003811061378257600160a060020a0384166000908152600c60205260409020546135c29061c350036101f463ffffffff61462916565b336000818152601060209081526040808320600160a060020a038a168452600a83528184206007015484528252918290208054909401909355805160808101909152908152601291810161361e846101f463ffffffff61462916565b8152600160a060020a0380881660208084018290526000828152600a825260408082206007015495810195909552865460018181018955978252828220875160049283029091018054918716600160a060020a031992831617815588850151818b0155888801516002820180549189169190931617909155606090970151600390970196909655918252600b8152838220600501805460ff1916909617909555600c85528281205483517f23b872dd000000000000000000000000000000000000000000000000000000008152339581019590955230602486015261c3500360448501529151908616936323b872dd93606480820194929392918390030190829087803b15801561372e57600080fd5b505af1158015613742573d6000803e3d6000fd5b505050506040513d602081101561375857600080fd5b5050600160a060020a0384166000908152600c60205260409020805461c350819003019055611894565b613794816101f463ffffffff61462916565b336000818152601060209081526040808320600160a060020a038a16808552600a8452828520600701548552908352818420959095558051608081018252938452938252600c8152929020546012928201906137f8906101f463ffffffff61462916565b61c350038152600160a060020a0380881660208084018290526000828152600a825260408082206007015495810195909552865460018181018955978252828220875160049283029091018054918716600160a060020a031992831617815588850151998101999099558787015160028a01805491881691909216179055606090960151600390970196909655908552600c815282852080548701905582517f23b872dd0000000000000000000000000000000000000000000000000000000081523394810194909452306024850152604484018690529151908616936323b872dd936064808201949392918390030190829087803b1580156138fa57600080fd5b505af115801561390e573d6000803e3d6000fd5b505050506040513d602081101561392457600080fd5b505050505050565b600160a060020a03918216600090815260026020908152604080832093909416825291909152205490565b60ff60020a9081161490565b600160a060020a03918216600090815260056020908152604080832093909416825291909152205460ff1690565b600160a060020a03851615156139f1576040805160e560020a62461bcd02815260206004820152601b60248201527f63616e6e6f742073656e6420746f207a65726f20616464726573730000000000604482015290519081900360640190fd5b600160a060020a038616331480613a305750600160a060020a038616600090815260056020908152604080832033845290915290205460ff1615156001145b1515613aac576040805160e560020a62461bcd02815260206004820152602f60248201527f4e656564206f70657261746f7220617070726f76616c20666f7220337264207060448201527f61727479207472616e73666572732e0000000000000000000000000000000000606482015290519081900360840190fd5b613ab584613957565b15613b0c57600084815260066020526040902054600160a060020a03878116911614613ae057600080fd5b60008481526006602052604090208054600160a060020a031916600160a060020a038716179055613b9a565b6000848152600460209081526040808320600160a060020a038a168452909152902054613b3f908463ffffffff61431e16565b6000858152600460209081526040808320600160a060020a038b81168552925280832093909355871681522054613b76908461437e565b6000858152600460209081526040808320600160a060020a038a1684529091529020555b84600160a060020a031686600160a060020a031633600160a060020a0316600080516020614de98339815191528787604051808381526020018281526020019250505060405180910390a4613bf785600160a060020a03166143db565b1561392457613924338787878787878080601f0160208091040260200160405190810160405280939291908181526020018383808284376000920191909152506147e492505050565b613c486127e5565b1515613c8c576040805160e560020a62461bcd0281526020600482018190526024820152600080516020614e09833981519152604482015290519081900360640190fd5b613c9581614a14565b50565b6000838152600860205260409020548390600160a060020a03163314613cbd57600080fd5b613cc684613957565b1515613cd157600080fd5b6000848152600960205260409020546001810190613cf690849063ffffffff61437e16565b6000868152600960205260408120919091555b83811015613924576000858583818110613d1f57fe5b8486018a17600081815260066020908152604080832080549583029790970135600160a060020a0316600160a060020a0319909516851790965585518381526001918101919091528551939650919486945090923392600080516020614de983398151915292908290030190a4613d9e82600160a060020a03166143db565b15613dc257613dc233338484600160206040519081016040528060008152506147e4565b5050600101613d09565b336000908152600e602052604090205460ff161515600114613e5e576040805160e560020a62461bcd02815260206004820152602b60248201527f54686973206164647265737320646f65736e277420686176652061206c6f616e60448201527f206173736f636961746564000000000000000000000000000000000000000000606482015290519081900360840190fd5b601554604080517fdd62ed3e0000000000000000000000000000000000000000000000000000000081523360048201523060248201529051600160a060020a0390921691600091839163dd62ed3e91604480820192602092909190829003018186803b158015613ecd57600080fd5b505afa158015613ee1573d6000803e3d6000fd5b505050506040513d6020811015613ef757600080fd5b5051604080517f23b872dd000000000000000000000000000000000000000000000000000000008152336004820152306024820152604481018390529051919250600160a060020a038416916323b872dd916064808201926020929091908290030181600087803b158015613f6b57600080fd5b505af1158015613f7f573d6000803e3d6000fd5b505050506040513d6020811015613f9557600080fd5b50613fa1905081614af5565b5050565b6012805482908110613fb357fe5b60009182526020909120600490910201805460018201546002830154600390930154600160a060020a03928316945090929091169084565b600160a060020a0383161515614070576040805160e560020a62461bcd028152602060048201526024808201527f45524332303a20617070726f76652066726f6d20746865207a65726f2061646460448201527f7265737300000000000000000000000000000000000000000000000000000000606482015290519081900360840190fd5b600160a060020a03821615156140f6576040805160e560020a62461bcd02815260206004820152602260248201527f45524332303a20617070726f766520746f20746865207a65726f20616464726560448201527f7373000000000000000000000000000000000000000000000000000000000000606482015290519081900360840190fd5b600160a060020a03808416600081815260026020908152604080832094871680845294825291829020859055815185815291517f8c5be1e5ebec7d5bd14f71427d1e84f3dd0314c0f7b2291e5b200ac8c7c3b9259281900390910190a3505050565b600160a060020a03831615156141de576040805160e560020a62461bcd02815260206004820152602560248201527f45524332303a207472616e736665722066726f6d20746865207a65726f20616460448201527f6472657373000000000000000000000000000000000000000000000000000000606482015290519081900360840190fd5b600160a060020a0382161515614264576040805160e560020a62461bcd02815260206004820152602360248201527f45524332303a207472616e7366657220746f20746865207a65726f206164647260448201527f6573730000000000000000000000000000000000000000000000000000000000606482015290519081900360840190fd5b600160a060020a03831660009081526001602052604090205461428d908263ffffffff61431e16565b600160a060020a0380851660009081526001602052604080822093909355908416815220546142c2908263ffffffff61437e16565b600160a060020a0380841660008181526001602090815260409182902094909455805185815290519193928716927fddf252ad1be2c89b69c2b068fc378daa952ba7f163c4a11628f55a4df523b3ef92918290030190a3505050565b600082821115614378576040805160e560020a62461bcd02815260206004820152601e60248201527f536166654d6174683a207375627472616374696f6e206f766572666c6f770000604482015290519081900360640190fd5b50900390565b6000828201838110156117bf576040805160e560020a62461bcd02815260206004820152601b60248201527f536166654d6174683a206164646974696f6e206f766572666c6f770000000000604482015290519081900360640190fd5b6000903b1190565b63bc197c8160e060020a027bffffffffffffffffffffffffffffffffffffffffffffffffffffffff191684600160a060020a031663bc197c8188888787876040518663ffffffff1660e060020a0281526004018086600160a060020a0316600160a060020a0316815260200185600160a060020a0316600160a060020a03168152602001806020018060200180602001848103845287818151815260200191508051906020019060200280838360005b838110156144ab578181015183820152602001614493565b50505050905001848103835286818151815260200191508051906020019060200280838360005b838110156144ea5781810151838201526020016144d2565b50505050905001848103825285818151815260200191508051906020019080838360005b8381101561452657818101518382015260200161450e565b50505050905090810190601f1680156145535780820380516001836020036101000a031916815260200191505b5098505050505050505050602060405180830381600087803b15801561457857600080fd5b505af115801561458c573d6000803e3d6000fd5b505050506040513d60208110156145a257600080fd5b5051600160e060020a03191614613924576040805160e560020a62461bcd02815260206004820152603e60248201527f636f6e74726163742072657475726e656420616e20756e6b6e6f776e2076616c60448201527f75652066726f6d206f6e45524331313535426174636852656365697665640000606482015290519081900360840190fd5b6000808211614682576040805160e560020a62461bcd02815260206004820152601a60248201527f536166654d6174683a206469766973696f6e206279207a65726f000000000000604482015290519081900360640190fd5b6000828481151561468f57fe5b04949350505050565b60008215156146a9575060006114aa565b8282028284828115156146b857fe5b04146117bf576040805160e560020a62461bcd02815260206004820152602160248201527f536166654d6174683a206d756c7469706c69636174696f6e206f766572666c6f60448201527f7700000000000000000000000000000000000000000000000000000000000000606482015290519081900360840190fd5b6000805b601254811015611e815782600160a060020a031660128281548110151561475b57fe5b6000918252602090912060026004909202010154600160a060020a031614156147dc57336000908152601060205260408120601280548391908590811061479e57fe5b90600052602060002090600402016003015481526020019081526020016000205490506147d8611e5060648361462990919063ffffffff16565b9250505b600101614738565b63f23a6e6160e060020a027bffffffffffffffffffffffffffffffffffffffffffffffffffffffff191684600160a060020a031663f23a6e6188888787876040518663ffffffff1660e060020a0281526004018086600160a060020a0316600160a060020a0316815260200185600160a060020a0316600160a060020a0316815260200184815260200183815260200180602001828103825283818151815260200191508051906020019080838360005b838110156148ad578181015183820152602001614895565b50505050905090810190601f1680156148da5780820380516001836020036101000a031916815260200191505b509650505050505050602060405180830381600087803b1580156148fd57600080fd5b505af1158015614911573d6000803e3d6000fd5b505050506040513d602081101561492757600080fd5b5051600160e060020a03191614613924576040805160e560020a62461bcd02815260206004820152603960248201527f636f6e74726163742072657475726e656420616e20756e6b6e6f776e2076616c60448201527f75652066726f6d206f6e45524331313535526563656976656400000000000000606482015290519081900360840190fd5b60008080806149c1620151808704614b8c565b91870194509250905060006149d68484614c24565b9050808211156149e4578091505b620151808706620151806149f9868686614caa565b0201945086851015614a0a57600080fd5b5050505092915050565b600160a060020a0381161515614a9a576040805160e560020a62461bcd02815260206004820152602660248201527f4f776e61626c653a206e6577206f776e657220697320746865207a65726f206160448201527f6464726573730000000000000000000000000000000000000000000000000000606482015290519081900360840190fd5b60008054604051600160a060020a03808516939216917f8be0079c531659141344cd1fd0a4f28419497f9722a3daafe3b4186f6b6457e091a360008054600160a060020a031916600160a060020a0392909216919091179055565b336000908152600b6020526040812060030154614b6490618e9490614b5490614b24904263ffffffff614d1016565b336000908152600b6020526040902060010154614b4890606463ffffffff61469816565b9063ffffffff61469816565b61c350029063ffffffff61462916565b336000908152600d6020526040902054909150614b87908263ffffffff61437e16565b505050565b60008080836226496581018262023ab1600483020590506004600362023ab18302010590910390600062164b09610fa0600185010205905060046105b58202058303601f019250600061098f84605002811515614be557fe5b0590506000605061098f83020585039050600b820560301994909401606402929092018301996002600c90940290910392909201975095509350505050565b60008160011480614c355750816003145b80614c405750816005145b80614c4b5750816007145b80614c565750816008145b80614c61575081600a145b80614c6c575081600c145b15614c795750601f6114aa565b60028214614c895750601e6114aa565b614c9283614d2b565b614c9d57601c614ca0565b601d5b60ff169392505050565b60006107b2841015614cbb57600080fd5b506225bad61960046064600c600d1986018190059687016113248101929092056003028390056112c09092016105b502929092059093016001199582029094039490940161016f029390930591909101030190565b600081831115614d1f57600080fd5b50620151809190030490565b600060048206158015614d4057506064820615155b806114aa57505061019090061590565b828054600181600116156101000203166002900490600052602060002090601f016020900481019282601f10614d9157805160ff1916838001178555614dbe565b82800160010185558215614dbe579182015b82811115614dbe578251825591602001919060010190614da3565b50614dca929150614dce565b5090565b61175991905b80821115614dca5760008155600101614dd456fec3d58168c5ae7397731d063d5bbf3d657854427343f4c083240f7aacaa2d0f624f776e61626c653a2063616c6c6572206973206e6f7420746865206f776e6572a165627a7a723058202368979accdb719d16050eb065486b4af44cd42f0299c31886201db9c534de670029",
  "source": "pragma solidity ^0.5.0;\r\n\r\nimport \"./ERC1155MixedFungibleMintable.sol\";\r\nimport \"./Ownable.sol\";\r\nimport \"./ERC20.sol\";\r\nimport \"./TimeHelper.sol\";\r\nimport \"./SafeMath.sol\";\r\n\r\n/**\r\n    @title Providentia, providing students with loan\r\n    @dev See { insert website }\r\n    Note: Some values are hardcoded in order to represent a specific usecase\r\n */\r\n\r\ncontract Providentia is Ownable, ERC20, ERC1155MixedFungibleMintable{\r\n  // @dev Library used to calculate time differences\r\n  using BokkyPooBahsDateTimeLibrary for uint;\r\n  using SafeMath for uint;\r\n\r\n    // @dev Mapping used to store user data\r\n    mapping( address => StudentData ) public addressToData;\r\n    // @dev Mappiing used to store the details of the Loan\r\n    mapping( address => StudentLoan) public addressToLoan;\r\n    // @dev Mapping used to track the Loan of the student\r\n    mapping( address => uint) public addressToBalance;\r\n    // @dev Mapping used to track the interest paid by the student\r\n    mapping( address => uint) public studentToInterest;\r\n    // @dev Mapping to know if the user has an outstanding loan\r\n    mapping( address => bool ) studentHasLoan;\r\n    // @dev address =>( idNFT => idFT )\r\n    mapping( address => mapping( uint => uint)) ownerToTypes;\r\n    // idNFT => amountTokens\r\n    // note: One NFT MUST have 100 FT attached, no more no less\r\n    mapping( address => mapping(uint => uint) ) tokensToValue;\r\n\r\n    mapping( string => address) addressToUniversity;\r\n\r\n        /***********************************|\r\n        |        Variables and Events       |\r\n        |__________________________________*/\r\n\r\n    event studentCreated (\r\n        address addressStudent,\r\n        uint studentId,\r\n        string _name,\r\n        uint _age,\r\n        string _country,\r\n        string _profAccount,\r\n        string _university\r\n        );\r\n\r\n    struct StudentData {\r\n        address addressStudent;\r\n        uint studentId;\r\n        string name;\r\n        uint age;\r\n        string country;\r\n        string university;\r\n        string profAccount;\r\n        uint idNFT;\r\n    }\r\n\r\n    struct StudentLoan {\r\n        uint amountDAI;\r\n        uint interestLoan;\r\n        uint amountFunded;\r\n        uint startDate;\r\n        uint endDate;\r\n        bool loanFunded;\r\n        bool loanAccepted;\r\n    }\r\n\r\n    struct FunderTokens {\r\n      address _addressFunder;\r\n      uint _amount;\r\n      address _addressFunded;\r\n      uint idNFT;\r\n    }\r\n\r\n    FunderTokens[] public Investors;\r\n\r\n    address[] sendTokens ;\r\n\r\n    uint[] valueSend = [100];\r\n\r\n    address stableCoinAddress ;\r\n\r\n    ERC1155MixedFungibleMintable _token;\r\n\r\n    modifier hasRequestedLoan(){\r\n      // Check if Student has already requested a loan\r\n        require( addressToLoan[msg.sender].amountDAI == 0, \"User has already initiated a Loan process\");\r\n        _;\r\n    }\r\n\r\n    modifier hasFundedLoan(address _addressToFund){\r\n      require( addressToLoan[_addressToFund].loanFunded == false, \"User has already a funded loan\");\r\n      _;\r\n    }\r\n\r\n    modifier hasActiveLoan(){\r\n      require(studentHasLoan[msg.sender] == true, \"This address doesn't have a loan associated\");\r\n      _;\r\n    }\r\n\r\n    modifier onlySchool(address _addressFunded){\r\n      require( addressToUniversity[addressToData[_addressFunded].university] == msg.sender,\r\n        \"The sender is not an approved school\");\r\n        _;\r\n    }\r\n\r\n    constructor(address _stableCoinAddress, ERC1155MixedFungibleMintable _tokenIERC1155) public{\r\n        stableCoinAddress = _stableCoinAddress;\r\n        _token = _tokenIERC1155;\r\n        sendTokens.push(msg.sender);\r\n    }\r\n\r\n    /**\r\n      @notice Function used to upgrade the contract address of DAI in case it changes\r\n      @param _addressCoin Address of the StableCoin Contract\r\n    */\r\n    function setStableCoinAddress(address _addressCoin) public onlyOwner{\r\n        stableCoinAddress = _addressCoin;\r\n    }\r\n\r\n    /**\r\n      @notice Function used to add the Student\r\n      @param _name Name of the Student\r\n      @param _age Age of the Student\r\n      @param _country Country of the Student\r\n      @param _profAccount Github account of the Student\r\n      @param _university University in which the Student is attending to\r\n      @param _uri Used to store the JSON with the data of the Student\r\n    */\r\n    function addStudent(\r\n      address _addressStudent,\r\n      uint _studentId,\r\n      string memory _name,\r\n      uint _age,\r\n      string memory _country,\r\n      string memory _profAccount,\r\n      string memory _university,\r\n      string memory _uri\r\n    )\r\n      public\r\n\r\n    {\r\n\r\n        require(bytes(addressToData[_addressStudent].name).length == 0,\r\n        \"An address can only have one Student associated\");\r\n\r\n        require(addressToUniversity[_university] != address(0), \"University hasn't been added yet\");\r\n\r\n        uint _type = _token.create(_uri, true);\r\n        _token.mintNonFungible(_type, sendTokens);\r\n        uint _id = _token.create(_uri, false);\r\n        _token.mintFungible(_id, sendTokens, valueSend );\r\n\r\n        addressToData[_addressStudent] = StudentData(\r\n          _addressStudent,\r\n          _studentId,\r\n          _name,\r\n          _age,\r\n          _country,\r\n          _university,\r\n          _profAccount,\r\n          _type\r\n          );\r\n\r\n        emit studentCreated(\r\n          _addressStudent,\r\n          _studentId,\r\n          _name,\r\n          _age,\r\n          _country,\r\n          _profAccount,\r\n          _university\r\n          );\r\n    }\r\n\r\n    function addSchool(\r\n      address _addressSchool,\r\n      string memory _universityName\r\n      )\r\n      public onlyOwner{\r\n\r\n        addressToUniversity[_universityName] = _addressSchool;\r\n    }\r\n\r\n    /**\r\n      @notice Function used to initiate a Loan process and get funded\r\n      @param _interestLoan Interest rate the student is willing to pay\r\n      @dev For this usecase the Student can request a fixed amount of 50000 DAI\r\n           and have a deadline of 5 years to repay the Loan\r\n    */\r\n    function requestLoan( uint _interestLoan) public hasRequestedLoan{\r\n\r\n        //Check if the Student has been added before letting him request a loan\r\n        require(bytes(addressToData[msg.sender].name).length != 0,\r\n        \"Student hasn't been added yet\");\r\n\r\n        //Update the Mapping\r\n        addressToLoan[msg.sender] = StudentLoan(50000, _interestLoan, 0, now, now.addYears(5), false, false);\r\n\r\n        addressToBalance[msg.sender] = 0;\r\n        // When requesting a loan the Student hasn't accept it yet\r\n        studentHasLoan[msg.sender] = false;\r\n\r\n    }\r\n\r\n    /**\r\n      @notice Function used to add money to the pool for the Student\r\n      @param _addressToFund Address of the user to be funded\r\n      @dev Each token costs 500 DAI and each token represents a share of the loan\r\n\r\n    */\r\n    function addMoneyPool(address _addressToFund) public hasFundedLoan(_addressToFund){\r\n      ERC20 stableCoinContract = ERC20(stableCoinAddress);\r\n      uint tokenAmount = stableCoinContract.allowance(msg.sender, address(this));\r\n\r\n      require(tokenAmount >= (addressToLoan[_addressToFund].amountDAI.div(100))\r\n      && ( tokenAmount % 500 ) == 0 ,\r\n      \"The amount sent must be a multiplier of 500. Each token costs 500 DAI\");\r\n\r\n      // If the investor sends more than the MAX_CAP which is 50K\r\n      if( tokenAmount >= 50000 - addressToBalance[_addressToFund] ){\r\n        tokensToValue[msg.sender][addressToData[_addressToFund].idNFT] += (50000 - addressToBalance[_addressToFund]).div(500);\r\n        Investors.push(FunderTokens(msg.sender, tokenAmount.div(500), _addressToFund, addressToData[_addressToFund].idNFT));\r\n        addressToLoan[_addressToFund].loanFunded = true;\r\n        stableCoinContract.transferFrom(msg.sender, address(this), 50000 - addressToBalance[_addressToFund]);\r\n        addressToBalance[_addressToFund] +=50000 - addressToBalance[_addressToFund];\r\n\r\n      }\r\nelse{\r\n      tokensToValue[msg.sender][addressToData[_addressToFund].idNFT] = tokenAmount.div(500);\r\n      Investors.push(FunderTokens(msg.sender, 50000 - addressToBalance[_addressToFund].div(500), _addressToFund, addressToData[_addressToFund].idNFT));\r\n      addressToBalance[_addressToFund] += tokenAmount;\r\n      stableCoinContract.transferFrom(msg.sender, address(this), tokenAmount);\r\n    }\r\n      //\r\n    }\r\n\r\n    /**\r\n      @notice Function to withdraw the loan of the Student\r\n      @param _amount Amount the user is willing to withdraw\r\n    */\r\n    function withdrawLoan(uint _amount) public{\r\n      require(_amount < addressToBalance[msg.sender] || addressToBalance[msg.sender] != 0);\r\n      ERC20 stableCoinContract = ERC20(stableCoinAddress);\r\n\r\n      stableCoinContract.transfer(msg.sender, _amount);\r\n    }\r\n\r\n    /**\r\n      @notice Function to accept the proposed loan\r\n    */\r\n\r\n\r\n    function acceptLoan(address _addressFunded) public onlySchool(_addressFunded){\r\n      require(addressToLoan[_addressFunded].loanFunded == true, \"Loan has not been funded completely\");\r\n      addressToLoan[_addressFunded].loanAccepted = true;\r\n      studentHasLoan[_addressFunded] = true;\r\n    }\r\n\r\n\r\n/*\r\n      @notice Function to release the tokens to the Investor\r\n      @param _addressFunded Address of the funded User\r\n\r\n\r\n    function releaseTokens(address _addressFunded) public {\r\n\r\n      // check user has 50K\r\n        require( addressToBalance[_addressFunded] == 50000, \"Student has not been funded completely\");\r\n        //Check user has at least one token\r\n        for( uint i=0; i<Investors.length; i++){\r\n          if(Investors[i]._addressFunded == _addressFunded){\r\n            uint amountStake = tokensToValue[msg.sender][Investors[i].idNFT];\r\n            require( amountStake != 0, \"wed\");\r\n            _token.safeTransferFrom(sendTokens[0], msg.sender, ownerToTypes[msg.sender][Investors[i].idNFT], amountStake, \"onERC1155Received\" );\r\n            //Set 0 for the token value\r\n          }\r\n        }\r\n    }*/\r\n\r\n\r\n    /**\r\n      @notice Function used by the Student to repay the Loan\r\n      @dev First you need to call an approve transaction\r\n    */\r\n    //Check the logic here as it's a bit flawed\r\n    function repayLoan() public hasActiveLoan{\r\n\r\n        ERC20 stableCoinContract = ERC20(stableCoinAddress);\r\n        uint tokenAmount = stableCoinContract.allowance(msg.sender, address(this));\r\n\r\n        stableCoinContract.transferFrom(msg.sender, address(this), tokenAmount);\r\n        //Calculate Interest matured\r\n        _calculateInterest(tokenAmount);\r\n    }\r\n\r\n    function _calculateInterest(uint tokenAmount) internal{\r\n      uint _interest = ( 50000 * (addressToLoan[msg.sender].interestLoan.mul(100)).mul(addressToLoan[msg.sender].startDate.diffDays( now)) ).div(36500);\r\n    //  addressToBalance[msg.sender].sub(tokenAmount.sub(_interest));\r\n      studentToInterest[msg.sender].add(_interest);\r\n    }\r\n\r\n    /**\r\n      @notice Function for the Investors to withdraw their share\r\n      @param _addressFunded Address of the funded student\r\n    */\r\n    function withdrawRepaidLoan(address _addressFunded) public {\r\n\r\n            uint share = _calculateRepayment(_addressFunded);\r\n            ERC20 stableCoinContract = ERC20(stableCoinAddress);\r\n            stableCoinContract.transfer(msg.sender, share);\r\n\r\n    }\r\n\r\n    function _calculateRepayment(address _addressFunded) internal returns(uint share) {\r\n      for(uint i = 0; i<Investors.length; i++){\r\n        if(Investors[i]._addressFunded == _addressFunded){\r\n          uint _tokenAmount = tokensToValue[msg.sender][Investors[i].idNFT];\r\n          share = (addressToBalance[_addressFunded].mul(_tokenAmount.div(100)));\r\n          //Reduce token value\r\n      }\r\n    }\r\n\r\n    }\r\n\r\n    function getShare(address _addressFunded) public view returns(uint _share){\r\n      for(uint i = 0; i<Investors.length; i++){\r\n        if(Investors[i]._addressFunded == _addressFunded){\r\n          uint _tokenAmount = tokensToValue[msg.sender][Investors[i].idNFT];\r\n          _share = (addressToBalance[_addressFunded].mul(_tokenAmount.div(100)));\r\n          //Reduce token value\r\n      }\r\n\r\n    }\r\n  }\r\n\r\n  function tokensAmount(address _addressFunded) public view returns(uint _amount){\r\n    for(uint i = 0; i<Investors.length; i++){\r\n      if(Investors[i]._addressFunded == _addressFunded){\r\n        _amount = tokensToValue[msg.sender][Investors[i].idNFT];\r\n\r\n    }\r\n\r\n  }\r\n  }\r\n\r\n\r\n\r\n}\r\n",
  "sourcePath": "C:/Users/tredg/Providentia/contracts/Providentia.sol",
  "compiler": {
    "name": "solc",
    "version": "0.5.0+commit.1d4f565a.Emscripten.clang"
  },
  "schemaVersion": "3.0.11",
  "updatedAt": "2019-07-06T17:29:03.327Z",
  "devdoc": {
    "details": "See { insert website }\r Note: Some values are hardcoded in order to represent a specific usecase\r",
    "methods": {
      "addMoneyPool(address)": {
        "details": "Each token costs 500 DAI and each token represents a share of the loan\r",
        "params": {
          "_addressToFund": "Address of the user to be funded\r"
        }
      },
      "addStudent(address,uint256,string,uint256,string,string,string,string)": {
        "params": {
          "_age": "Age of the Student\r",
          "_country": "Country of the Student\r",
          "_name": "Name of the Student\r",
          "_profAccount": "Github account of the Student\r",
          "_university": "University in which the Student is attending to\r",
          "_uri": "Used to store the JSON with the data of the Student\r"
        }
      },
      "allowance(address,address)": {
        "details": "See `IERC20.allowance`."
      },
      "approve(address,uint256)": {
        "details": "See `IERC20.approve`.     * Requirements:     * - `spender` cannot be the zero address."
      },
      "balanceOf(address)": {
        "details": "See `IERC20.balanceOf`."
      },
      "decreaseAllowance(address,uint256)": {
        "details": "Atomically decreases the allowance granted to `spender` by the caller.     * This is an alternative to `approve` that can be used as a mitigation for problems described in `IERC20.approve`.     * Emits an `Approval` event indicating the updated allowance.     * Requirements:     * - `spender` cannot be the zero address. - `spender` must have allowance for the caller of at least `subtractedValue`."
      },
      "increaseAllowance(address,uint256)": {
        "details": "Atomically increases the allowance granted to `spender` by the caller.     * This is an alternative to `approve` that can be used as a mitigation for problems described in `IERC20.approve`.     * Emits an `Approval` event indicating the updated allowance.     * Requirements:     * - `spender` cannot be the zero address."
      },
      "isApprovedForAll(address,address)": {
        "params": {
          "_operator": "Address of authorized operator\r",
          "_owner": "The owner of the Tokens\r"
        },
        "return": "True if the operator is approved, false if not\r"
      },
      "isOwner()": {
        "return": "true if msg.sender is the owner of the contract.\r"
      },
      "owner()": {
        "return": "the address of the owner.\r"
      },
      "renounceOwnership()": {
        "details": "Allows the current owner to relinquish control of the contract.\r It will not be possible to call the functions with the onlyOwner\r modifier anymore.\r"
      },
      "repayLoan()": {
        "details": "First you need to call an approve transaction\r"
      },
      "requestLoan(uint256)": {
        "details": "For this usecase the Student can request a fixed amount of 50000 DAI\r and have a deadline of 5 years to repay the Loan\r",
        "params": {
          "_interestLoan": "Interest rate the student is willing to pay\r"
        }
      },
      "setApprovalForAll(address,bool)": {
        "details": "MUST emit the ApprovalForAll event on success.\r",
        "params": {
          "_approved": "True if the operator is approved, false to revoke approval\r",
          "_operator": "Address to add to the set of authorized operators\r"
        }
      },
      "setStableCoinAddress(address)": {
        "params": {
          "_addressCoin": "Address of the StableCoin Contract\r"
        }
      },
      "totalSupply()": {
        "details": "See `IERC20.totalSupply`."
      },
      "transfer(address,uint256)": {
        "details": "See `IERC20.transfer`.     * Requirements:     * - `recipient` cannot be the zero address. - the caller must have a balance of at least `amount`."
      },
      "transferFrom(address,address,uint256)": {
        "details": "See `IERC20.transferFrom`.     * Emits an `Approval` event indicating the updated allowance. This is not required by the EIP. See the note at the beginning of `ERC20`;     * Requirements: - `sender` and `recipient` cannot be the zero address. - `sender` must have a balance of at least `value`. - the caller must have allowance for `sender`'s tokens of at least `amount`."
      },
      "transferOwnership(address)": {
        "details": "Allows the current owner to transfer control of the contract to a newOwner.\r",
        "params": {
          "newOwner": "The address to transfer ownership to.\r"
        }
      },
      "withdrawLoan(uint256)": {
        "params": {
          "_amount": "Amount the user is willing to withdraw\r"
        }
      },
      "withdrawRepaidLoan(address)": {
        "params": {
          "_addressFunded": "Address of the funded student\r"
        }
      }
    },
    "title": "Providentia, providing students with loan\r"
  },
  "userdoc": {
    "methods": {
      "acceptLoan(address)": {
        "notice": "Function to accept the proposed loan\r"
      },
      "addMoneyPool(address)": {
        "notice": "Function used to add money to the pool for the Student\r"
      },
      "addStudent(address,uint256,string,uint256,string,string,string,string)": {
        "notice": "Function used to add the Student\r"
      },
      "isApprovedForAll(address,address)": {
        "notice": "Queries the approval status of an operator for a given owner.\r"
      },
      "renounceOwnership()": {
        "notice": "Renouncing ownership will leave the contract without an owner,\r thereby removing any functionality that is only available to the owner.\r"
      },
      "repayLoan()": {
        "notice": "Function used by the Student to repay the Loan\r"
      },
      "requestLoan(uint256)": {
        "notice": "Function used to initiate a Loan process and get funded\r"
      },
      "setApprovalForAll(address,bool)": {
        "notice": "Enable or disable approval for a third party (\"operator\") to manage all of the caller's tokens.\r"
      },
      "setStableCoinAddress(address)": {
        "notice": "Function used to upgrade the contract address of DAI in case it changes\r"
      },
      "withdrawLoan(uint256)": {
        "notice": "Function to withdraw the loan of the Student\r"
      },
      "withdrawRepaidLoan(address)": {
        "notice": "Function for the Investors to withdraw their share\r"
      }
    }
  }
}