{
  "contractName": "Providentia",
  "abi": [
    {
      "constant": true,
      "inputs": [
        {
          "name": "_owner",
          "type": "address"
        },
        {
          "name": "_id",
          "type": "uint256"
        }
      ],
      "name": "balanceOf",
      "outputs": [
        {
          "name": "",
          "type": "uint256"
        }
      ],
      "payable": false,
      "stateMutability": "view",
      "type": "function"
    },
    {
      "constant": true,
      "inputs": [
        {
          "name": "_interfaceId",
          "type": "bytes4"
        }
      ],
      "name": "supportsInterface",
      "outputs": [
        {
          "name": "",
          "type": "bool"
        }
      ],
      "payable": false,
      "stateMutability": "view",
      "type": "function"
    },
    {
      "constant": true,
      "inputs": [
        {
          "name": "",
          "type": "uint256"
        }
      ],
      "name": "maxIndex",
      "outputs": [
        {
          "name": "",
          "type": "uint256"
        }
      ],
      "payable": false,
      "stateMutability": "view",
      "type": "function"
    },
    {
      "constant": false,
      "inputs": [
        {
          "name": "spender",
          "type": "address"
        },
        {
          "name": "value",
          "type": "uint256"
        }
      ],
      "name": "approve",
      "outputs": [
        {
          "name": "",
          "type": "bool"
        }
      ],
      "payable": false,
      "stateMutability": "nonpayable",
      "type": "function"
    },
    {
      "constant": true,
      "inputs": [],
      "name": "totalSupply",
      "outputs": [
        {
          "name": "",
          "type": "uint256"
        }
      ],
      "payable": false,
      "stateMutability": "view",
      "type": "function"
    },
    {
      "constant": true,
      "inputs": [
        {
          "name": "",
          "type": "address"
        }
      ],
      "name": "addressToBalance",
      "outputs": [
        {
          "name": "",
          "type": "uint256"
        }
      ],
      "payable": false,
      "stateMutability": "view",
      "type": "function"
    },
    {
      "constant": false,
      "inputs": [
        {
          "name": "sender",
          "type": "address"
        },
        {
          "name": "recipient",
          "type": "address"
        },
        {
          "name": "amount",
          "type": "uint256"
        }
      ],
      "name": "transferFrom",
      "outputs": [
        {
          "name": "",
          "type": "bool"
        }
      ],
      "payable": false,
      "stateMutability": "nonpayable",
      "type": "function"
    },
    {
      "constant": false,
      "inputs": [
        {
          "name": "_from",
          "type": "address"
        },
        {
          "name": "_to",
          "type": "address"
        },
        {
          "name": "_ids",
          "type": "uint256[]"
        },
        {
          "name": "_values",
          "type": "uint256[]"
        },
        {
          "name": "_data",
          "type": "bytes"
        }
      ],
      "name": "safeBatchTransferFrom",
      "outputs": [],
      "payable": false,
      "stateMutability": "nonpayable",
      "type": "function"
    },
    {
      "constant": false,
      "inputs": [
        {
          "name": "spender",
          "type": "address"
        },
        {
          "name": "addedValue",
          "type": "uint256"
        }
      ],
      "name": "increaseAllowance",
      "outputs": [
        {
          "name": "",
          "type": "bool"
        }
      ],
      "payable": false,
      "stateMutability": "nonpayable",
      "type": "function"
    },
    {
      "constant": true,
      "inputs": [
        {
          "name": "_owners",
          "type": "address[]"
        },
        {
          "name": "_ids",
          "type": "uint256[]"
        }
      ],
      "name": "balanceOfBatch",
      "outputs": [
        {
          "name": "",
          "type": "uint256[]"
        }
      ],
      "payable": false,
      "stateMutability": "view",
      "type": "function"
    },
    {
      "constant": true,
      "inputs": [
        {
          "name": "_id",
          "type": "uint256"
        }
      ],
      "name": "isNonFungibleItem",
      "outputs": [
        {
          "name": "",
          "type": "bool"
        }
      ],
      "payable": false,
      "stateMutability": "pure",
      "type": "function"
    },
    {
      "constant": true,
      "inputs": [
        {
          "name": "_id",
          "type": "uint256"
        }
      ],
      "name": "ownerOf",
      "outputs": [
        {
          "name": "",
          "type": "address"
        }
      ],
      "payable": false,
      "stateMutability": "view",
      "type": "function"
    },
    {
      "constant": true,
      "inputs": [
        {
          "name": "_id",
          "type": "uint256"
        }
      ],
      "name": "getNonFungibleBaseType",
      "outputs": [
        {
          "name": "",
          "type": "uint256"
        }
      ],
      "payable": false,
      "stateMutability": "pure",
      "type": "function"
    },
    {
      "constant": true,
      "inputs": [
        {
          "name": "account",
          "type": "address"
        }
      ],
      "name": "balanceOf",
      "outputs": [
        {
          "name": "",
          "type": "uint256"
        }
      ],
      "payable": false,
      "stateMutability": "view",
      "type": "function"
    },
    {
      "constant": false,
      "inputs": [],
      "name": "renounceOwnership",
      "outputs": [],
      "payable": false,
      "stateMutability": "nonpayable",
      "type": "function"
    },
    {
      "constant": true,
      "inputs": [
        {
          "name": "_id",
          "type": "uint256"
        }
      ],
      "name": "isNonFungibleBaseType",
      "outputs": [
        {
          "name": "",
          "type": "bool"
        }
      ],
      "payable": false,
      "stateMutability": "pure",
      "type": "function"
    },
    {
      "constant": true,
      "inputs": [
        {
          "name": "",
          "type": "address"
        }
      ],
      "name": "addressToData",
      "outputs": [
        {
          "name": "addressStudent",
          "type": "address"
        },
        {
          "name": "studentId",
          "type": "uint256"
        },
        {
          "name": "name",
          "type": "string"
        },
        {
          "name": "age",
          "type": "uint256"
        },
        {
          "name": "country",
          "type": "string"
        },
        {
          "name": "university",
          "type": "string"
        },
        {
          "name": "profAccount",
          "type": "string"
        },
        {
          "name": "idNFT",
          "type": "uint256"
        }
      ],
      "payable": false,
      "stateMutability": "view",
      "type": "function"
    },
    {
      "constant": false,
      "inputs": [
        {
          "name": "_id",
          "type": "uint256"
        },
        {
          "name": "_to",
          "type": "address[]"
        },
        {
          "name": "_quantities",
          "type": "uint256[]"
        }
      ],
      "name": "mintFungible",
      "outputs": [],
      "payable": false,
      "stateMutability": "nonpayable",
      "type": "function"
    },
    {
      "constant": true,
      "inputs": [],
      "name": "owner",
      "outputs": [
        {
          "name": "",
          "type": "address"
        }
      ],
      "payable": false,
      "stateMutability": "view",
      "type": "function"
    },
    {
      "constant": true,
      "inputs": [],
      "name": "isOwner",
      "outputs": [
        {
          "name": "",
          "type": "bool"
        }
      ],
      "payable": false,
      "stateMutability": "view",
      "type": "function"
    },
    {
      "constant": true,
      "inputs": [
        {
          "name": "_id",
          "type": "uint256"
        }
      ],
      "name": "getNonFungibleIndex",
      "outputs": [
        {
          "name": "",
          "type": "uint256"
        }
      ],
      "payable": false,
      "stateMutability": "pure",
      "type": "function"
    },
    {
      "constant": false,
      "inputs": [
        {
          "name": "_operator",
          "type": "address"
        },
        {
          "name": "_approved",
          "type": "bool"
        }
      ],
      "name": "setApprovalForAll",
      "outputs": [],
      "payable": false,
      "stateMutability": "nonpayable",
      "type": "function"
    },
    {
      "constant": false,
      "inputs": [
        {
          "name": "spender",
          "type": "address"
        },
        {
          "name": "subtractedValue",
          "type": "uint256"
        }
      ],
      "name": "decreaseAllowance",
      "outputs": [
        {
          "name": "",
          "type": "bool"
        }
      ],
      "payable": false,
      "stateMutability": "nonpayable",
      "type": "function"
    },
    {
      "constant": false,
      "inputs": [
        {
          "name": "recipient",
          "type": "address"
        },
        {
          "name": "amount",
          "type": "uint256"
        }
      ],
      "name": "transfer",
      "outputs": [
        {
          "name": "",
          "type": "bool"
        }
      ],
      "payable": false,
      "stateMutability": "nonpayable",
      "type": "function"
    },
    {
      "constant": true,
      "inputs": [
        {
          "name": "_id",
          "type": "uint256"
        }
      ],
      "name": "isFungible",
      "outputs": [
        {
          "name": "",
          "type": "bool"
        }
      ],
      "payable": false,
      "stateMutability": "pure",
      "type": "function"
    },
    {
      "constant": false,
      "inputs": [
        {
          "name": "_uri",
          "type": "string"
        },
        {
          "name": "_isNF",
          "type": "bool"
        }
      ],
      "name": "create",
      "outputs": [
        {
          "name": "_type",
          "type": "uint256"
        }
      ],
      "payable": false,
      "stateMutability": "nonpayable",
      "type": "function"
    },
    {
      "constant": true,
      "inputs": [
        {
          "name": "",
          "type": "uint256"
        }
      ],
      "name": "creators",
      "outputs": [
        {
          "name": "",
          "type": "address"
        }
      ],
      "payable": false,
      "stateMutability": "view",
      "type": "function"
    },
    {
      "constant": true,
      "inputs": [
        {
          "name": "",
          "type": "address"
        }
      ],
      "name": "addressToLoan",
      "outputs": [
        {
          "name": "amountDAI",
          "type": "uint256"
        },
        {
          "name": "interestLoan",
          "type": "uint256"
        },
        {
          "name": "amountFunded",
          "type": "uint256"
        },
        {
          "name": "startDate",
          "type": "uint256"
        },
        {
          "name": "endDate",
          "type": "uint256"
        },
        {
          "name": "loanFunded",
          "type": "bool"
        },
        {
          "name": "loanAccepted",
          "type": "bool"
        }
      ],
      "payable": false,
      "stateMutability": "view",
      "type": "function"
    },
    {
      "constant": true,
      "inputs": [
        {
          "name": "",
          "type": "address"
        }
      ],
      "name": "studentToInterest",
      "outputs": [
        {
          "name": "",
          "type": "uint256"
        }
      ],
      "payable": false,
      "stateMutability": "view",
      "type": "function"
    },
    {
      "constant": true,
      "inputs": [
        {
          "name": "owner",
          "type": "address"
        },
        {
          "name": "spender",
          "type": "address"
        }
      ],
      "name": "allowance",
      "outputs": [
        {
          "name": "",
          "type": "uint256"
        }
      ],
      "payable": false,
      "stateMutability": "view",
      "type": "function"
    },
    {
      "constant": true,
      "inputs": [
        {
          "name": "_id",
          "type": "uint256"
        }
      ],
      "name": "isNonFungible",
      "outputs": [
        {
          "name": "",
          "type": "bool"
        }
      ],
      "payable": false,
      "stateMutability": "pure",
      "type": "function"
    },
    {
      "constant": true,
      "inputs": [
        {
          "name": "_owner",
          "type": "address"
        },
        {
          "name": "_operator",
          "type": "address"
        }
      ],
      "name": "isApprovedForAll",
      "outputs": [
        {
          "name": "",
          "type": "bool"
        }
      ],
      "payable": false,
      "stateMutability": "view",
      "type": "function"
    },
    {
      "constant": false,
      "inputs": [
        {
          "name": "_from",
          "type": "address"
        },
        {
          "name": "_to",
          "type": "address"
        },
        {
          "name": "_id",
          "type": "uint256"
        },
        {
          "name": "_value",
          "type": "uint256"
        },
        {
          "name": "_data",
          "type": "bytes"
        }
      ],
      "name": "safeTransferFrom",
      "outputs": [],
      "payable": false,
      "stateMutability": "nonpayable",
      "type": "function"
    },
    {
      "constant": false,
      "inputs": [
        {
          "name": "newOwner",
          "type": "address"
        }
      ],
      "name": "transferOwnership",
      "outputs": [],
      "payable": false,
      "stateMutability": "nonpayable",
      "type": "function"
    },
    {
      "constant": false,
      "inputs": [
        {
          "name": "_type",
          "type": "uint256"
        },
        {
          "name": "_to",
          "type": "address[]"
        }
      ],
      "name": "mintNonFungible",
      "outputs": [],
      "payable": false,
      "stateMutability": "nonpayable",
      "type": "function"
    },
    {
      "constant": true,
      "inputs": [
        {
          "name": "",
          "type": "uint256"
        }
      ],
      "name": "Investors",
      "outputs": [
        {
          "name": "_addressFunder",
          "type": "address"
        },
        {
          "name": "_amount",
          "type": "uint256"
        },
        {
          "name": "_addressFunded",
          "type": "address"
        },
        {
          "name": "idNFT",
          "type": "uint256"
        }
      ],
      "payable": false,
      "stateMutability": "view",
      "type": "function"
    },
    {
      "inputs": [
        {
          "name": "_stableCoinAddress",
          "type": "address"
        },
        {
          "name": "_tokenIERC1155",
          "type": "address"
        }
      ],
      "payable": false,
      "stateMutability": "nonpayable",
      "type": "constructor"
    },
    {
      "anonymous": false,
      "inputs": [
        {
          "indexed": false,
          "name": "addressStudent",
          "type": "address"
        },
        {
          "indexed": false,
          "name": "studentId",
          "type": "uint256"
        },
        {
          "indexed": false,
          "name": "_name",
          "type": "string"
        },
        {
          "indexed": false,
          "name": "_age",
          "type": "uint256"
        },
        {
          "indexed": false,
          "name": "_country",
          "type": "string"
        },
        {
          "indexed": false,
          "name": "_profAccount",
          "type": "string"
        },
        {
          "indexed": false,
          "name": "_university",
          "type": "string"
        }
      ],
      "name": "studentCreated",
      "type": "event"
    },
    {
      "anonymous": false,
      "inputs": [
        {
          "indexed": true,
          "name": "_operator",
          "type": "address"
        },
        {
          "indexed": true,
          "name": "_from",
          "type": "address"
        },
        {
          "indexed": true,
          "name": "_to",
          "type": "address"
        },
        {
          "indexed": false,
          "name": "_id",
          "type": "uint256"
        },
        {
          "indexed": false,
          "name": "_value",
          "type": "uint256"
        }
      ],
      "name": "TransferSingle",
      "type": "event"
    },
    {
      "anonymous": false,
      "inputs": [
        {
          "indexed": true,
          "name": "_operator",
          "type": "address"
        },
        {
          "indexed": true,
          "name": "_from",
          "type": "address"
        },
        {
          "indexed": true,
          "name": "_to",
          "type": "address"
        },
        {
          "indexed": false,
          "name": "_ids",
          "type": "uint256[]"
        },
        {
          "indexed": false,
          "name": "_values",
          "type": "uint256[]"
        }
      ],
      "name": "TransferBatch",
      "type": "event"
    },
    {
      "anonymous": false,
      "inputs": [
        {
          "indexed": true,
          "name": "_owner",
          "type": "address"
        },
        {
          "indexed": true,
          "name": "_operator",
          "type": "address"
        },
        {
          "indexed": false,
          "name": "_approved",
          "type": "bool"
        }
      ],
      "name": "ApprovalForAll",
      "type": "event"
    },
    {
      "anonymous": false,
      "inputs": [
        {
          "indexed": false,
          "name": "_value",
          "type": "string"
        },
        {
          "indexed": true,
          "name": "_id",
          "type": "uint256"
        }
      ],
      "name": "URI",
      "type": "event"
    },
    {
      "anonymous": false,
      "inputs": [
        {
          "indexed": true,
          "name": "from",
          "type": "address"
        },
        {
          "indexed": true,
          "name": "to",
          "type": "address"
        },
        {
          "indexed": false,
          "name": "value",
          "type": "uint256"
        }
      ],
      "name": "Transfer",
      "type": "event"
    },
    {
      "anonymous": false,
      "inputs": [
        {
          "indexed": true,
          "name": "owner",
          "type": "address"
        },
        {
          "indexed": true,
          "name": "spender",
          "type": "address"
        },
        {
          "indexed": false,
          "name": "value",
          "type": "uint256"
        }
      ],
      "name": "Approval",
      "type": "event"
    },
    {
      "anonymous": false,
      "inputs": [
        {
          "indexed": true,
          "name": "previousOwner",
          "type": "address"
        },
        {
          "indexed": true,
          "name": "newOwner",
          "type": "address"
        }
      ],
      "name": "OwnershipTransferred",
      "type": "event"
    },
    {
      "constant": false,
      "inputs": [
        {
          "name": "_addressCoin",
          "type": "address"
        }
      ],
      "name": "setStableCoinAddress",
      "outputs": [],
      "payable": false,
      "stateMutability": "nonpayable",
      "type": "function"
    },
    {
      "constant": false,
      "inputs": [
        {
          "name": "_addressStudent",
          "type": "address"
        },
        {
          "name": "_studentId",
          "type": "uint256"
        },
        {
          "name": "_name",
          "type": "string"
        },
        {
          "name": "_age",
          "type": "uint256"
        },
        {
          "name": "_country",
          "type": "string"
        },
        {
          "name": "_profAccount",
          "type": "string"
        },
        {
          "name": "_university",
          "type": "string"
        },
        {
          "name": "_uri",
          "type": "string"
        }
      ],
      "name": "addStudent",
      "outputs": [],
      "payable": false,
      "stateMutability": "nonpayable",
      "type": "function"
    },
    {
      "constant": false,
      "inputs": [
        {
          "name": "_addressSchool",
          "type": "address"
        },
        {
          "name": "_universityName",
          "type": "string"
        }
      ],
      "name": "addSchool",
      "outputs": [],
      "payable": false,
      "stateMutability": "nonpayable",
      "type": "function"
    },
    {
      "constant": false,
      "inputs": [
        {
          "name": "_interestLoan",
          "type": "uint256"
        }
      ],
      "name": "requestLoan",
      "outputs": [],
      "payable": false,
      "stateMutability": "nonpayable",
      "type": "function"
    },
    {
      "constant": false,
      "inputs": [
        {
          "name": "_addressToFund",
          "type": "address"
        }
      ],
      "name": "addMoneyPool",
      "outputs": [],
      "payable": false,
      "stateMutability": "nonpayable",
      "type": "function"
    },
    {
      "constant": false,
      "inputs": [
        {
          "name": "_amount",
          "type": "uint256"
        }
      ],
      "name": "withdrawLoan",
      "outputs": [],
      "payable": false,
      "stateMutability": "nonpayable",
      "type": "function"
    },
    {
      "constant": false,
      "inputs": [
        {
          "name": "_addressFunded",
          "type": "address"
        }
      ],
      "name": "acceptLoan",
      "outputs": [],
      "payable": false,
      "stateMutability": "nonpayable",
      "type": "function"
    },
    {
      "constant": false,
      "inputs": [],
      "name": "repayLoan",
      "outputs": [],
      "payable": false,
      "stateMutability": "nonpayable",
      "type": "function"
    },
    {
      "constant": false,
      "inputs": [
        {
          "name": "_addressFunded",
          "type": "address"
        }
      ],
      "name": "withdrawRepaidLoan",
      "outputs": [],
      "payable": false,
      "stateMutability": "nonpayable",
      "type": "function"
    },
    {
      "constant": true,
      "inputs": [
        {
          "name": "_addressFunded",
          "type": "address"
        }
      ],
      "name": "getShare",
      "outputs": [
        {
          "name": "_share",
          "type": "uint256"
        }
      ],
      "payable": false,
      "stateMutability": "view",
      "type": "function"
    }
  ],
  "bytecode": "0x60a0604052606460809081526200001b9060149060016200010f565b503480156200002957600080fd5b5060405160408062004f98833981018060405260408110156200004b57600080fd5b50805160209091015160008054600160a060020a0319163317808255604051600160a060020a039190911691907f8be0079c531659141344cd1fd0a4f28419497f9722a3daafe3b4186f6b6457e0908290a360158054600160a060020a03938416600160a060020a031991821617909155601680549290931691811691909117909155601380546001810182556000919091527f66de8ffda797e3de9c05e8fc57b3bf0ec28a930d40b0d285d93c06501cf6a0900180549091163317905562000184565b82805482825590600052602060002090810192821562000152579160200282015b8281111562000152578251829060ff1690559160200191906001019062000130565b506200016092915062000164565b5090565b6200018191905b808211156200016057600081556001016200016b565b90565b614e0480620001946000396000f3fe6080604052600436106102155763ffffffff60e060020a600035041662fdd58e811461021a57806301ffc9a71461026557806308d7d469146102ad578063095ea7b3146102d757806310f108881461031057806318160ddd14610345578063237c980a1461035a57806323b872dd1461038d5780632a104d8d146103d05780632eb2c2d6146103fa578063395093511461053457806344879b3b1461056d5780634b3ab9c5146105a05780634e1273f4146105d35780635e81b958146106f25780636352211e1461071c5780636b14c51e146107625780636f969c2d1461079557806370a08231146107bf578063715018a6146107f25780637269a32714610807578063740298f61461083157806378b2722114610a3c5780638d5d342914610b125780638da5cb5b14610b3c5780638f32d59b14610b515780639cca1c6414610b66578063a22cb46514610b90578063a457c2d714610bcb578063a714c5de14610c04578063a9059cbb14610cc7578063a9310a5214610d00578063adebf6f214610fed578063cc10e40114611017578063cd53d08e14611096578063d47d3b0a146110c0578063d5d5ebd21461112f578063d778b72114611162578063dd62ed3e14611195578063e44591f0146111d0578063e985e9c5146111fa578063f242432a14611235578063f2fde38b146112d7578063f94190881461130a578063f966ade71461138e578063fbae5e7d146113a3575b600080fd5b34801561022657600080fd5b506102536004803603604081101561023d57600080fd5b50600160a060020a038135169060200135611402565b60408051918252519081900360200190f35b34801561027157600080fd5b506102996004803603602081101561028857600080fd5b5035600160e060020a031916611472565b604080519115158252519081900360200190f35b3480156102b957600080fd5b50610253600480360360208110156102d057600080fd5b50356114eb565b3480156102e357600080fd5b50610299600480360360408110156102fa57600080fd5b50600160a060020a0381351690602001356114fd565b34801561031c57600080fd5b506103436004803603602081101561033357600080fd5b5035600160a060020a0316611513565b005b34801561035157600080fd5b50610253611717565b34801561036657600080fd5b506102536004803603602081101561037d57600080fd5b5035600160a060020a031661171e565b34801561039957600080fd5b50610299600480360360608110156103b057600080fd5b50600160a060020a03813581169160208101359091169060400135611730565b3480156103dc57600080fd5b50610343600480360360208110156103f357600080fd5b5035611788565b34801561040657600080fd5b50610343600480360360a081101561041d57600080fd5b600160a060020a03823581169260208101359091169181019060608101604082013564010000000081111561045157600080fd5b82018360208201111561046357600080fd5b8035906020019184602083028401116401000000008311171561048557600080fd5b9193909290916020810190356401000000008111156104a357600080fd5b8201836020820111156104b557600080fd5b803590602001918460208302840111640100000000831117156104d757600080fd5b9193909290916020810190356401000000008111156104f557600080fd5b82018360208201111561050757600080fd5b8035906020019184600183028401116401000000008311171561052957600080fd5b50909250905061185c565b34801561054057600080fd5b506102996004803603604081101561055757600080fd5b50600160a060020a038135169060200135611cc4565b34801561057957600080fd5b506103436004803603602081101561059057600080fd5b5035600160a060020a0316611d00565b3480156105ac57600080fd5b50610253600480360360208110156105c357600080fd5b5035600160a060020a0316611d6e565b3480156105df57600080fd5b506106a2600480360360408110156105f657600080fd5b81019060208101813564010000000081111561061157600080fd5b82018360208201111561062357600080fd5b8035906020019184602083028401116401000000008311171561064557600080fd5b91939092909160208101903564010000000081111561066357600080fd5b82018360208201111561067557600080fd5b8035906020019184602083028401116401000000008311171561069757600080fd5b509092509050611e49565b60408051602080825283518183015283519192839290830191858101910280838360005b838110156106de5781810151838201526020016106c6565b505050509050019250505060405180910390f35b3480156106fe57600080fd5b506102996004803603602081101561071557600080fd5b5035611f94565b34801561072857600080fd5b506107466004803603602081101561073f57600080fd5b5035611fbe565b60408051600160a060020a039092168252519081900360200190f35b34801561076e57600080fd5b506103436004803603602081101561078557600080fd5b5035600160a060020a0316611fd9565b3480156107a157600080fd5b50610253600480360360208110156107b857600080fd5b5035612086565b3480156107cb57600080fd5b50610253600480360360208110156107e257600080fd5b5035600160a060020a031661209c565b3480156107fe57600080fd5b506103436120b7565b34801561081357600080fd5b506102996004803603602081101561082a57600080fd5b503561214d565b34801561083d57600080fd5b506108646004803603602081101561085457600080fd5b5035600160a060020a0316612176565b6040518089600160a060020a0316600160a060020a031681526020018881526020018060200187815260200180602001806020018060200186815260200185810385528b818151815260200191508051906020019080838360005b838110156108d75781810151838201526020016108bf565b50505050905090810190601f1680156109045780820380516001836020036101000a031916815260200191505b5085810384528951815289516020918201918b019080838360005b8381101561093757818101518382015260200161091f565b50505050905090810190601f1680156109645780820380516001836020036101000a031916815260200191505b5085810383528851815288516020918201918a019080838360005b8381101561099757818101518382015260200161097f565b50505050905090810190601f1680156109c45780820380516001836020036101000a031916815260200191505b50858103825287518152875160209182019189019080838360005b838110156109f75781810151838201526020016109df565b50505050905090810190601f168015610a245780820380516001836020036101000a031916815260200191505b509c5050505050505050505050505060405180910390f35b348015610a4857600080fd5b5061034360048036036060811015610a5f57600080fd5b81359190810190604081016020820135640100000000811115610a8157600080fd5b820183602082011115610a9357600080fd5b80359060200191846020830284011164010000000083111715610ab557600080fd5b919390929091602081019035640100000000811115610ad357600080fd5b820183602082011115610ae557600080fd5b80359060200191846020830284011164010000000083111715610b0757600080fd5b5090925090506123e9565b348015610b1e57600080fd5b5061034360048036036020811015610b3557600080fd5b5035612531565b348015610b4857600080fd5b50610746612702565b348015610b5d57600080fd5b50610299612711565b348015610b7257600080fd5b5061025360048036036020811015610b8957600080fd5b5035612722565b348015610b9c57600080fd5b5061034360048036036040811015610bb357600080fd5b50600160a060020a0381351690602001351515612737565b348015610bd757600080fd5b5061029960048036036040811015610bee57600080fd5b50600160a060020a0381351690602001356127a5565b348015610c1057600080fd5b5061034360048036036040811015610c2757600080fd5b600160a060020a038235169190810190604081016020820135640100000000811115610c5257600080fd5b820183602082011115610c6457600080fd5b80359060200191846001830284011164010000000083111715610c8657600080fd5b91908080601f0160208091040260200160405190810160405280939291908181526020018383808284376000920191909152509295506127e1945050505050565b348015610cd357600080fd5b5061029960048036036040811015610cea57600080fd5b50600160a060020a038135169060200135612934565b348015610d0c57600080fd5b506103436004803603610100811015610d2457600080fd5b600160a060020a0382351691602081013591810190606081016040820135640100000000811115610d5457600080fd5b820183602082011115610d6657600080fd5b80359060200191846001830284011164010000000083111715610d8857600080fd5b91908080601f01602080910402602001604051908101604052809392919081815260200183838082843760009201919091525092958435959094909350604081019250602001359050640100000000811115610de357600080fd5b820183602082011115610df557600080fd5b80359060200191846001830284011164010000000083111715610e1757600080fd5b91908080601f0160208091040260200160405190810160405280939291908181526020018383808284376000920191909152509295949360208101935035915050640100000000811115610e6a57600080fd5b820183602082011115610e7c57600080fd5b80359060200191846001830284011164010000000083111715610e9e57600080fd5b91908080601f0160208091040260200160405190810160405280939291908181526020018383808284376000920191909152509295949360208101935035915050640100000000811115610ef157600080fd5b820183602082011115610f0357600080fd5b80359060200191846001830284011164010000000083111715610f2557600080fd5b91908080601f0160208091040260200160405190810160405280939291908181526020018383808284376000920191909152509295949360208101935035915050640100000000811115610f7857600080fd5b820183602082011115610f8a57600080fd5b80359060200191846001830284011164010000000083111715610fac57600080fd5b91908080601f016020809104026020016040519081016040528093929190818152602001838380828437600092019190915250929550612941945050505050565b348015610ff957600080fd5b506102996004803603602081101561101057600080fd5b50356131d0565b34801561102357600080fd5b506102536004803603604081101561103a57600080fd5b81019060208101813564010000000081111561105557600080fd5b82018360208201111561106757600080fd5b8035906020019184600183028401116401000000008311171561108957600080fd5b91935091503515156131da565b3480156110a257600080fd5b50610746600480360360208110156110b957600080fd5b50356132c1565b3480156110cc57600080fd5b506110f3600480360360208110156110e357600080fd5b5035600160a060020a03166132dc565b6040805197885260208801969096528686019490945260608601929092526080850152151560a0840152151560c0830152519081900360e00190f35b34801561113b57600080fd5b506102536004803603602081101561115257600080fd5b5035600160a060020a031661331d565b34801561116e57600080fd5b506103436004803603602081101561118557600080fd5b5035600160a060020a031661332f565b3480156111a157600080fd5b50610253600480360360408110156111b857600080fd5b50600160a060020a03813581169160200135166138dc565b3480156111dc57600080fd5b50610299600480360360208110156111f357600080fd5b5035613907565b34801561120657600080fd5b506102996004803603604081101561121d57600080fd5b50600160a060020a0381358116916020013516613913565b34801561124157600080fd5b50610343600480360360a081101561125857600080fd5b600160a060020a03823581169260208101359091169160408201359160608101359181019060a08101608082013564010000000081111561129857600080fd5b8201836020820111156112aa57600080fd5b803590602001918460018302840111640100000000831117156112cc57600080fd5b509092509050613941565b3480156112e357600080fd5b50610343600480360360208110156112fa57600080fd5b5035600160a060020a0316613bf0565b34801561131657600080fd5b506103436004803603604081101561132d57600080fd5b8135919081019060408101602082013564010000000081111561134f57600080fd5b82018360208201111561136157600080fd5b8035906020019184602083028401116401000000008311171561138357600080fd5b509092509050613c48565b34801561139a57600080fd5b50610343613d7c565b3480156113af57600080fd5b506113cd600480360360208110156113c657600080fd5b5035613f55565b60408051600160a060020a03958616815260208101949094529190931682820152606082019290925290519081900360800190f35b600061140d82611f94565b1561144757600082815260066020526040902054600160a060020a0384811691161461143a57600061143d565b60015b60ff16905061146c565b506000818152600460209081526040808320600160a060020a03861684529091529020545b92915050565b6000600160e060020a031982167f01ffc9a70000000000000000000000000000000000000000000000000000000014806114d55750600160e060020a031982167fd9b67a2600000000000000000000000000000000000000000000000000000000145b156114e2575060016114e6565b5060005b919050565b60096020526000908152604090205481565b600061150a338484613f9b565b50600192915050565b8033600160a060020a03166011600a600084600160a060020a0316600160a060020a0316815260200190815260200160002060050160405180828054600181600116156101000203166002900480156115a35780601f106115815761010080835404028352918201916115a3565b820191906000526020600020905b81548152906001019060200180831161158f575b5050928352505060405190819003602001902054600160a060020a03161461163a576040805160e560020a62461bcd028152602060048201526024808201527f5468652073656e646572206973206e6f7420616e20617070726f76656420736360448201527f686f6f6c00000000000000000000000000000000000000000000000000000000606482015290519081900360840190fd5b600160a060020a0382166000908152600b602052604090206005015460ff1615156001146116d8576040805160e560020a62461bcd02815260206004820152602360248201527f4c6f616e20686173206e6f74206265656e2066756e64656420636f6d706c657460448201527f656c790000000000000000000000000000000000000000000000000000000000606482015290519081900360840190fd5b50600160a060020a03166000908152600b60209081526040808320600501805461ff001916610100179055600e9091529020805460ff19166001179055565b6003545b90565b600c6020526000908152604090205481565b600061173d848484614108565b600160a060020a03841660009081526002602090815260408083203380855292529091205461177d918691611778908663ffffffff6142ce16565b613f9b565b5060015b9392505050565b336000908152600c60205260409020548110806117b35750336000908152600c602052604090205415155b15156117be57600080fd5b601554604080517fa9059cbb000000000000000000000000000000000000000000000000000000008152336004820152602481018490529051600160a060020a0390921691829163a9059cbb9160448083019260209291908290030181600087803b15801561182c57600080fd5b505af1158015611840573d6000803e3d6000fd5b505050506040513d602081101561185657600080fd5b50505050565b600160a060020a03871615156118bc576040805160e560020a62461bcd02815260206004820152601b60248201527f63616e6e6f742073656e6420746f207a65726f20616464726573730000000000604482015290519081900360640190fd5b848314611913576040805160e560020a62461bcd02815260206004820152601760248201527f4172726179206c656e677468206d757374206d61746368000000000000000000604482015290519081900360640190fd5b600160a060020a0388163314806119525750600160a060020a038816600090815260056020908152604080832033845290915290205460ff1615156001145b15156119ce576040805160e560020a62461bcd02815260206004820152602f60248201527f4e656564206f70657261746f7220617070726f76616c20666f7220337264207060448201527f61727479207472616e73666572732e0000000000000000000000000000000000606482015290519081900360840190fd5b60005b85811015611b4d5760008787838181106119e757fe5b90506020020135905060008686848181101515611a0057fe5b905060200201359050611a1282613907565b15611a6957600082815260066020526040902054600160a060020a038c8116911614611a3d57600080fd5b60008281526006602052604090208054600160a060020a031916600160a060020a038c16179055611b43565b6000828152600460209081526040808320600160a060020a038f168452909152902054611a9c908263ffffffff6142ce16565b6004600084815260200190815260200160002060008d600160a060020a0316600160a060020a0316815260200190815260200160002081905550611b1f6004600084815260200190815260200160002060008c600160a060020a0316600160a060020a03168152602001908152602001600020548261432e90919063ffffffff16565b6000838152600460209081526040808320600160a060020a038f1684529091529020555b50506001016119d1565b5086600160a060020a031688600160a060020a031633600160a060020a03167f4a39dc06d4c0dbc64b70af90fd698a233a518aa5d07e595d983b8c0526c8f7fb898989896040518080602001806020018381038352878782818152602001925060200280828437600083820152601f01601f19169091018481038352858152602090810191508690860280828437600083820152604051601f909101601f19169092018290039850909650505050505050a4611c1187600160a060020a031661438b565b15611cba57611cba33898989898080602002602001604051908101604052809392919081815260200183836020028082843760009201919091525050604080516020808d0282810182019093528c82529093508c92508b91829185019084908082843760009201919091525050604080516020601f8c018190048102820181019092528a815292508a915089908190840183828082843760009201919091525061439392505050565b5050505050505050565b336000818152600260209081526040808320600160a060020a0387168452909152812054909161150a918590611778908663ffffffff61432e16565b611d08612711565b1515611d4c576040805160e560020a62461bcd0281526020600482018190526024820152600080516020614db9833981519152604482015290519081900360640190fd5b60158054600160a060020a031916600160a060020a0392909216919091179055565b6000805b601254811015611e435782600160a060020a0316601282815481101515611d9557fe5b6000918252602090912060026004909202010154600160a060020a03161415611e3b573360009081526010602052604081206012805483919085908110611dd857fe5b9060005260206000209060040201600301548152602001908152602001600020549050611e37611e126064836145d990919063ffffffff16565b600160a060020a0386166000908152600c60205260409020549063ffffffff61464816565b9250505b600101611d72565b50919050565b6060838214611e5757600080fd5b604080518581526020808702820101909152606090858015611e83578160200160208202803883390190505b50905060005b85811015611f8a576000858583818110611e9f57fe5b905060200201359050611eb181611f94565b15611f1c57878783818110611ec257fe5b60008481526006602090815260409091205491029290920135600160a060020a039081169216919091149050611ef9576000611efc565b60015b60ff168383815181101515611f0d57fe5b60209081029091010152611f81565b600081815260046020526040812090898985818110611f3757fe5b90506020020135600160a060020a0316600160a060020a0316600160a060020a03168152602001908152602001600020548383815181101515611f7657fe5b602090810290910101525b50600101611e89565b5095945050505050565b600060ff60020a80831614801561146c5750506fffffffffffffffffffffffffffffffff16151590565b600090815260066020526040902054600160a060020a031690565b6000611fe4826146e4565b601554604080517fa9059cbb000000000000000000000000000000000000000000000000000000008152336004820152602481018490529051929350600160a060020a0390911691829163a9059cbb9160448083019260209291908290030181600087803b15801561205557600080fd5b505af1158015612069573d6000803e3d6000fd5b505050506040513d602081101561207f57600080fd5b5050505050565b6fffffffffffffffffffffffffffffffff191690565b600160a060020a031660009081526001602052604090205490565b6120bf612711565b1515612103576040805160e560020a62461bcd0281526020600482018190526024820152600080516020614db9833981519152604482015290519081900360640190fd5b60008054604051600160a060020a03909116907f8be0079c531659141344cd1fd0a4f28419497f9722a3daafe3b4186f6b6457e0908390a360008054600160a060020a0319169055565b600060ff60020a80831614801561146c5750506fffffffffffffffffffffffffffffffff161590565b600a6020908152600091825260409182902080546001808301546002808501805488516101009582161595909502600019011691909104601f8101879004870284018701909752868352600160a060020a039093169590949192918301828280156122225780601f106121f757610100808354040283529160200191612222565b820191906000526020600020905b81548152906001019060200180831161220557829003601f168201915b50505050600383015460048401805460408051602060026001851615610100026000190190941693909304601f810184900484028201840190925281815295969395939450908301828280156122b95780601f1061228e576101008083540402835291602001916122b9565b820191906000526020600020905b81548152906001019060200180831161229c57829003601f168201915b5050505060058301805460408051602060026001851615610100026000190190941693909304601f81018490048402820184019092528181529495949350908301828280156123495780601f1061231e57610100808354040283529160200191612349565b820191906000526020600020905b81548152906001019060200180831161232c57829003601f168201915b5050505060068301805460408051602060026001851615610100026000190190941693909304601f81018490048402820184019092528181529495949350908301828280156123d95780601f106123ae576101008083540402835291602001916123d9565b820191906000526020600020905b8154815290600101906020018083116123bc57829003601f168201915b5050505050908060070154905088565b6000858152600860205260409020548590600160a060020a0316331461240e57600080fd5b612417866131d0565b151561242257600080fd5b60005b8481101561252857600086868381811061243b57fe5b90506020020135600160a060020a031690506000858584818110151561245d57fe5b60008c8152600460209081526040808320600160a060020a038916845282529091205491029290920135925061249b9183915063ffffffff61432e16565b60008a8152600460209081526040808320600160a060020a0387168085529083528184209490945580518d815291820185905280513392600080516020614d9983398151915292908290030190a46124fb82600160a060020a031661438b565b1561251e5761251e3333848c856020604051908101604052806000815250614794565b5050600101612425565b50505050505050565b336000908152600b6020526040902054156125bc576040805160e560020a62461bcd02815260206004820152602960248201527f557365722068617320616c726561647920696e697469617465642061204c6f6160448201527f6e2070726f636573730000000000000000000000000000000000000000000000606482015290519081900360840190fd5b336000908152600a602052604090206002908101546000196101006001831615020116041515612636576040805160e560020a62461bcd02815260206004820152601d60248201527f53747564656e74206861736e2774206265656e20616464656420796574000000604482015290519081900360640190fd5b60e06040519081016040528061c35081526020018281526020016000815260200142815260200161267160054261495e90919063ffffffff16565b8152600060208083018290526040928301829052338252600b815282822084518155848201516001820155848401516002820155606085015160038201556080850151600482015560a08501516005909101805460c09096015115156101000261ff001992151560ff199788161792909216919091179055600c8152828220829055600e9052208054909116905550565b600054600160a060020a031690565b600054600160a060020a0316331490565b6fffffffffffffffffffffffffffffffff1690565b336000818152600560209081526040808320600160a060020a03871680855290835292819020805460ff1916861515908117909155815190815290519293927f17307eab39ab6107e8899845ad3d59bd9653f200f220920489ca2b5937696c31929181900390910190a35050565b336000818152600260209081526040808320600160a060020a0387168452909152812054909161150a918590611778908663ffffffff6142ce16565b6127e9612711565b151561282d576040805160e560020a62461bcd0281526020600482018190526024820152600080516020614db9833981519152604482015290519081900360640190fd5b6000600160a060020a03166011826040518082805190602001908083835b6020831061286a5780518252601f19909201916020918201910161284b565b51815160209384036101000a6000190180199092169116179052920194855250604051938490030190922054600160a060020a0316929092141591506128b1905057600080fd5b816011826040518082805190602001908083835b602083106128e45780518252601f1990920191602091820191016128c5565b51815160209384036101000a600019018019909216911617905292019485525060405193849003019092208054600160a060020a031916600160a060020a03949094169390931790925550505050565b600061150a338484614108565b600160a060020a0388166000908152600a60205260409020600290810154600019610100600183161502011604156129e9576040805160e560020a62461bcd02815260206004820152602f60248201527f416e20616464726573732063616e206f6e6c792068617665206f6e652053747560448201527f64656e74206173736f6369617465640000000000000000000000000000000000606482015290519081900360840190fd5b6000600160a060020a03166011836040518082805190602001908083835b60208310612a265780518252601f199092019160209182019101612a07565b51815160209384036101000a6000190180199092169116179052920194855250604051938490030190922054600160a060020a031692909214159150612ab89050576040805160e560020a62461bcd02815260206004820181905260248201527f556e6976657273697479206861736e2774206265656e20616464656420796574604482015290519081900360640190fd5b601654604080517fcc10e40100000000000000000000000000000000000000000000000000000000815260016024820181905260048201928352845160448301528451600094600160a060020a03169363cc10e4019387939282916064019060208601908083838c5b83811015612b39578181015183820152602001612b21565b50505050905090810190601f168015612b665780820380516001836020036101000a031916815260200191505b509350505050602060405180830381600087803b158015612b8657600080fd5b505af1158015612b9a573d6000803e3d6000fd5b505050506040513d6020811015612bb057600080fd5b5051601654604080517ff941908800000000000000000000000000000000000000000000000000000000815260048101848152602482019283526013805460448401819052959650600160a060020a039094169463f94190889487949093909160649091019084908015612c4d57602002820191906000526020600020905b8154600160a060020a03168152600190910190602001808311612c2f575b50509350505050600060405180830381600087803b158015612c6e57600080fd5b505af1158015612c82573d6000803e3d6000fd5b5050601654604080517fcc10e40100000000000000000000000000000000000000000000000000000000815260006024820181905260048201928352875160448301528751909550600160a060020a03909316935063cc10e401928792869290918291606401906020860190808383885b83811015612d0b578181015183820152602001612cf3565b50505050905090810190601f168015612d385780820380516001836020036101000a031916815260200191505b509350505050602060405180830381600087803b158015612d5857600080fd5b505af1158015612d6c573d6000803e3d6000fd5b505050506040513d6020811015612d8257600080fd5b50516016546040517f78b27221000000000000000000000000000000000000000000000000000000008152600481018381526060602483019081526013805460648501819052959650600160a060020a03909416946378b27221948794909360149390929091604481019160849091019086908015612e2a57602002820191906000526020600020905b8154600160a060020a03168152600190910190602001808311612e0c575b50508381038252848181548152602001915080548015612e6957602002820191906000526020600020905b815481526020019060010190808311612e55575b505095505050505050600060405180830381600087803b158015612e8c57600080fd5b505af1158015612ea0573d6000803e3d6000fd5b50505050610100604051908101604052808b600160a060020a031681526020018a815260200189815260200188815260200187815260200185815260200186815260200183815250600a60008c600160a060020a0316600160a060020a0316815260200190815260200160002060008201518160000160006101000a815481600160a060020a030219169083600160a060020a03160217905550602082015181600101556040820151816002019080519060200190612f60929190614d00565b506060820151600382015560808201518051612f86916004840191602090910190614d00565b5060a08201518051612fa2916005840191602090910190614d00565b5060c08201518051612fbe916006840191602090910190614d00565b5060e082015181600701559050507f818fdaabb8bd66ad9c1c6f1afc31e7c033a43b7001fe287d96341b110cc2f4b08a8a8a8a8a8a8a6040518088600160a060020a0316600160a060020a031681526020018781526020018060200186815260200180602001806020018060200185810385528a818151815260200191508051906020019080838360005b83811015613061578181015183820152602001613049565b50505050905090810190601f16801561308e5780820380516001836020036101000a031916815260200191505b5085810384528851815288516020918201918a019080838360005b838110156130c15781810151838201526020016130a9565b50505050905090810190601f1680156130ee5780820380516001836020036101000a031916815260200191505b50858103835287518152875160209182019189019080838360005b83811015613121578181015183820152602001613109565b50505050905090810190601f16801561314e5780820380516001836020036101000a031916815260200191505b50858103825286518152865160209182019188019080838360005b83811015613181578181015183820152602001613169565b50505050905090810190601f1680156131ae5780820380516001836020036101000a031916815260200191505b509b50505050505050505050505060405180910390a150505050505050505050565b60ff60020a161590565b60078054600101908190557001000000000000000000000000000000000281156132055760ff60020a175b60008181526008602090815260408083208054600160a060020a031916339081179091558151858152928301849052815184939192600080516020614d99833981519152928290030190a4600083111561178157807f6bb7ff708619ba0610cba295a58592e0451dee2622938c8755667688daf3529b858560405180806020018281038252848482818152602001925080828437600083820152604051601f909101601f19169092018290039550909350505050a29392505050565b600860205260009081526040902054600160a060020a031681565b600b60205260009081526040902080546001820154600283015460038401546004850154600590950154939492939192909160ff8082169161010090041687565b600d6020526000908152604090205481565b600160a060020a0381166000908152600b6020526040902060050154819060ff16156133a5576040805160e560020a62461bcd02815260206004820152601e60248201527f557365722068617320616c726561647920612066756e646564206c6f616e0000604482015290519081900360640190fd5b601554604080517fdd62ed3e0000000000000000000000000000000000000000000000000000000081523360048201523060248201529051600160a060020a0390921691600091839163dd62ed3e91604480820192602092909190829003018186803b15801561341457600080fd5b505afa158015613428573d6000803e3d6000fd5b505050506040513d602081101561343e57600080fd5b5051600160a060020a0385166000908152600b602052604090205490915061346d90606463ffffffff6145d916565b811015801561347e57506101f48106155b1515613520576040805160e560020a62461bcd02815260206004820152604560248201527f54686520616d6f756e742073656e74206d7573742062652061206d756c74697060448201527f6c696572206f66203530302e204561636820746f6b656e20636f73747320353060648201527f3020444149000000000000000000000000000000000000000000000000000000608482015290519081900360a40190fd5b600160a060020a0384166000908152600c602052604090205461c35003811061373257600160a060020a0384166000908152600c60205260409020546135729061c350036101f463ffffffff6145d916565b336000818152601060209081526040808320600160a060020a038a168452600a8352818420600701548452825291829020805490940190935580516080810190915290815260129181016135ce846101f463ffffffff6145d916565b8152600160a060020a0380881660208084018290526000828152600a825260408082206007015495810195909552865460018181018955978252828220875160049283029091018054918716600160a060020a031992831617815588850151818b0155888801516002820180549189169190931617909155606090970151600390970196909655918252600b8152838220600501805460ff1916909617909555600c85528281205483517f23b872dd000000000000000000000000000000000000000000000000000000008152339581019590955230602486015261c3500360448501529151908616936323b872dd93606480820194929392918390030190829087803b1580156136de57600080fd5b505af11580156136f2573d6000803e3d6000fd5b505050506040513d602081101561370857600080fd5b5050600160a060020a0384166000908152600c60205260409020805461c350819003019055611856565b613744816101f463ffffffff6145d916565b336000818152601060209081526040808320600160a060020a038a16808552600a8452828520600701548552908352818420959095558051608081018252938452938252600c8152929020546012928201906137a8906101f463ffffffff6145d916565b61c350038152600160a060020a0380881660208084018290526000828152600a825260408082206007015495810195909552865460018181018955978252828220875160049283029091018054918716600160a060020a031992831617815588850151998101999099558787015160028a01805491881691909216179055606090960151600390970196909655908552600c815282852080548701905582517f23b872dd0000000000000000000000000000000000000000000000000000000081523394810194909452306024850152604484018690529151908616936323b872dd936064808201949392918390030190829087803b1580156138aa57600080fd5b505af11580156138be573d6000803e3d6000fd5b505050506040513d60208110156138d457600080fd5b505050505050565b600160a060020a03918216600090815260026020908152604080832093909416825291909152205490565b60ff60020a9081161490565b600160a060020a03918216600090815260056020908152604080832093909416825291909152205460ff1690565b600160a060020a03851615156139a1576040805160e560020a62461bcd02815260206004820152601b60248201527f63616e6e6f742073656e6420746f207a65726f20616464726573730000000000604482015290519081900360640190fd5b600160a060020a0386163314806139e05750600160a060020a038616600090815260056020908152604080832033845290915290205460ff1615156001145b1515613a5c576040805160e560020a62461bcd02815260206004820152602f60248201527f4e656564206f70657261746f7220617070726f76616c20666f7220337264207060448201527f61727479207472616e73666572732e0000000000000000000000000000000000606482015290519081900360840190fd5b613a6584613907565b15613abc57600084815260066020526040902054600160a060020a03878116911614613a9057600080fd5b60008481526006602052604090208054600160a060020a031916600160a060020a038716179055613b4a565b6000848152600460209081526040808320600160a060020a038a168452909152902054613aef908463ffffffff6142ce16565b6000858152600460209081526040808320600160a060020a038b81168552925280832093909355871681522054613b26908461432e565b6000858152600460209081526040808320600160a060020a038a1684529091529020555b84600160a060020a031686600160a060020a031633600160a060020a0316600080516020614d998339815191528787604051808381526020018281526020019250505060405180910390a4613ba785600160a060020a031661438b565b156138d4576138d4338787878787878080601f01602080910402602001604051908101604052809392919081815260200183838082843760009201919091525061479492505050565b613bf8612711565b1515613c3c576040805160e560020a62461bcd0281526020600482018190526024820152600080516020614db9833981519152604482015290519081900360640190fd5b613c45816149c4565b50565b6000838152600860205260409020548390600160a060020a03163314613c6d57600080fd5b613c7684613907565b1515613c8157600080fd5b6000848152600960205260409020546001810190613ca690849063ffffffff61432e16565b6000868152600960205260408120919091555b838110156138d4576000858583818110613ccf57fe5b8486018a17600081815260066020908152604080832080549583029790970135600160a060020a0316600160a060020a0319909516851790965585518381526001918101919091528551939650919486945090923392600080516020614d9983398151915292908290030190a4613d4e82600160a060020a031661438b565b15613d7257613d723333848460016020604051908101604052806000815250614794565b5050600101613cb9565b336000908152600e602052604090205460ff161515600114613e0e576040805160e560020a62461bcd02815260206004820152602b60248201527f54686973206164647265737320646f65736e277420686176652061206c6f616e60448201527f206173736f636961746564000000000000000000000000000000000000000000606482015290519081900360840190fd5b601554604080517fdd62ed3e0000000000000000000000000000000000000000000000000000000081523360048201523060248201529051600160a060020a0390921691600091839163dd62ed3e91604480820192602092909190829003018186803b158015613e7d57600080fd5b505afa158015613e91573d6000803e3d6000fd5b505050506040513d6020811015613ea757600080fd5b5051604080517f23b872dd000000000000000000000000000000000000000000000000000000008152336004820152306024820152604481018390529051919250600160a060020a038416916323b872dd916064808201926020929091908290030181600087803b158015613f1b57600080fd5b505af1158015613f2f573d6000803e3d6000fd5b505050506040513d6020811015613f4557600080fd5b50613f51905081614aa5565b5050565b6012805482908110613f6357fe5b60009182526020909120600490910201805460018201546002830154600390930154600160a060020a03928316945090929091169084565b600160a060020a0383161515614020576040805160e560020a62461bcd028152602060048201526024808201527f45524332303a20617070726f76652066726f6d20746865207a65726f2061646460448201527f7265737300000000000000000000000000000000000000000000000000000000606482015290519081900360840190fd5b600160a060020a03821615156140a6576040805160e560020a62461bcd02815260206004820152602260248201527f45524332303a20617070726f766520746f20746865207a65726f20616464726560448201527f7373000000000000000000000000000000000000000000000000000000000000606482015290519081900360840190fd5b600160a060020a03808416600081815260026020908152604080832094871680845294825291829020859055815185815291517f8c5be1e5ebec7d5bd14f71427d1e84f3dd0314c0f7b2291e5b200ac8c7c3b9259281900390910190a3505050565b600160a060020a038316151561418e576040805160e560020a62461bcd02815260206004820152602560248201527f45524332303a207472616e736665722066726f6d20746865207a65726f20616460448201527f6472657373000000000000000000000000000000000000000000000000000000606482015290519081900360840190fd5b600160a060020a0382161515614214576040805160e560020a62461bcd02815260206004820152602360248201527f45524332303a207472616e7366657220746f20746865207a65726f206164647260448201527f6573730000000000000000000000000000000000000000000000000000000000606482015290519081900360840190fd5b600160a060020a03831660009081526001602052604090205461423d908263ffffffff6142ce16565b600160a060020a038085166000908152600160205260408082209390935590841681522054614272908263ffffffff61432e16565b600160a060020a0380841660008181526001602090815260409182902094909455805185815290519193928716927fddf252ad1be2c89b69c2b068fc378daa952ba7f163c4a11628f55a4df523b3ef92918290030190a3505050565b600082821115614328576040805160e560020a62461bcd02815260206004820152601e60248201527f536166654d6174683a207375627472616374696f6e206f766572666c6f770000604482015290519081900360640190fd5b50900390565b600082820183811015611781576040805160e560020a62461bcd02815260206004820152601b60248201527f536166654d6174683a206164646974696f6e206f766572666c6f770000000000604482015290519081900360640190fd5b6000903b1190565b63bc197c8160e060020a027bffffffffffffffffffffffffffffffffffffffffffffffffffffffff191684600160a060020a031663bc197c8188888787876040518663ffffffff1660e060020a0281526004018086600160a060020a0316600160a060020a0316815260200185600160a060020a0316600160a060020a03168152602001806020018060200180602001848103845287818151815260200191508051906020019060200280838360005b8381101561445b578181015183820152602001614443565b50505050905001848103835286818151815260200191508051906020019060200280838360005b8381101561449a578181015183820152602001614482565b50505050905001848103825285818151815260200191508051906020019080838360005b838110156144d65781810151838201526020016144be565b50505050905090810190601f1680156145035780820380516001836020036101000a031916815260200191505b5098505050505050505050602060405180830381600087803b15801561452857600080fd5b505af115801561453c573d6000803e3d6000fd5b505050506040513d602081101561455257600080fd5b5051600160e060020a031916146138d4576040805160e560020a62461bcd02815260206004820152603e60248201527f636f6e74726163742072657475726e656420616e20756e6b6e6f776e2076616c60448201527f75652066726f6d206f6e45524331313535426174636852656365697665640000606482015290519081900360840190fd5b6000808211614632576040805160e560020a62461bcd02815260206004820152601a60248201527f536166654d6174683a206469766973696f6e206279207a65726f000000000000604482015290519081900360640190fd5b6000828481151561463f57fe5b04949350505050565b60008215156146595750600061146c565b82820282848281151561466857fe5b0414611781576040805160e560020a62461bcd02815260206004820152602160248201527f536166654d6174683a206d756c7469706c69636174696f6e206f766572666c6f60448201527f7700000000000000000000000000000000000000000000000000000000000000606482015290519081900360840190fd5b6000805b601254811015611e435782600160a060020a031660128281548110151561470b57fe5b6000918252602090912060026004909202010154600160a060020a0316141561478c57336000908152601060205260408120601280548391908590811061474e57fe5b9060005260206000209060040201600301548152602001908152602001600020549050614788611e126064836145d990919063ffffffff16565b9250505b6001016146e8565b63f23a6e6160e060020a027bffffffffffffffffffffffffffffffffffffffffffffffffffffffff191684600160a060020a031663f23a6e6188888787876040518663ffffffff1660e060020a0281526004018086600160a060020a0316600160a060020a0316815260200185600160a060020a0316600160a060020a0316815260200184815260200183815260200180602001828103825283818151815260200191508051906020019080838360005b8381101561485d578181015183820152602001614845565b50505050905090810190601f16801561488a5780820380516001836020036101000a031916815260200191505b509650505050505050602060405180830381600087803b1580156148ad57600080fd5b505af11580156148c1573d6000803e3d6000fd5b505050506040513d60208110156148d757600080fd5b5051600160e060020a031916146138d4576040805160e560020a62461bcd02815260206004820152603960248201527f636f6e74726163742072657475726e656420616e20756e6b6e6f776e2076616c60448201527f75652066726f6d206f6e45524331313535526563656976656400000000000000606482015290519081900360840190fd5b6000808080614971620151808704614b3c565b91870194509250905060006149868484614bd4565b905080821115614994578091505b620151808706620151806149a9868686614c5a565b02019450868510156149ba57600080fd5b5050505092915050565b600160a060020a0381161515614a4a576040805160e560020a62461bcd02815260206004820152602660248201527f4f776e61626c653a206e6577206f776e657220697320746865207a65726f206160448201527f6464726573730000000000000000000000000000000000000000000000000000606482015290519081900360840190fd5b60008054604051600160a060020a03808516939216917f8be0079c531659141344cd1fd0a4f28419497f9722a3daafe3b4186f6b6457e091a360008054600160a060020a031916600160a060020a0392909216919091179055565b336000908152600b6020526040812060030154614b1490618e9490614b0490614ad4904263ffffffff614cc016565b336000908152600b6020526040902060010154614af890606463ffffffff61464816565b9063ffffffff61464816565b61c350029063ffffffff6145d916565b336000908152600d6020526040902054909150614b37908263ffffffff61432e16565b505050565b60008080836226496581018262023ab1600483020590506004600362023ab18302010590910390600062164b09610fa0600185010205905060046105b58202058303601f019250600061098f84605002811515614b9557fe5b0590506000605061098f83020585039050600b820560301994909401606402929092018301996002600c90940290910392909201975095509350505050565b60008160011480614be55750816003145b80614bf05750816005145b80614bfb5750816007145b80614c065750816008145b80614c11575081600a145b80614c1c575081600c145b15614c295750601f61146c565b60028214614c395750601e61146c565b614c4283614cdb565b614c4d57601c614c50565b601d5b60ff169392505050565b60006107b2841015614c6b57600080fd5b506225bad61960046064600c600d1986018190059687016113248101929092056003028390056112c09092016105b502929092059093016001199582029094039490940161016f029390930591909101030190565b600081831115614ccf57600080fd5b50620151809190030490565b600060048206158015614cf057506064820615155b8061146c57505061019090061590565b828054600181600116156101000203166002900490600052602060002090601f016020900481019282601f10614d4157805160ff1916838001178555614d6e565b82800160010185558215614d6e579182015b82811115614d6e578251825591602001919060010190614d53565b50614d7a929150614d7e565b5090565b61171b91905b80821115614d7a5760008155600101614d8456fec3d58168c5ae7397731d063d5bbf3d657854427343f4c083240f7aacaa2d0f624f776e61626c653a2063616c6c6572206973206e6f7420746865206f776e6572a165627a7a7230582020e44a8e505adf82dc7f0343514d19c0721807e6767deb6d0851e4a2c5f4b2360029",
  "source": "pragma solidity ^0.5.0;\r\n\r\nimport \"./ERC1155MixedFungibleMintable.sol\";\r\nimport \"./Ownable.sol\";\r\nimport \"./ERC20.sol\";\r\nimport \"./TimeHelper.sol\";\r\nimport \"./SafeMath.sol\";\r\n\r\n/**\r\n    @title Providentia, providing students with loan\r\n    @dev See https://providentia.netlify.com/\r\n    Note: Some values are hardcoded in order to represent a specific usecase\r\n */\r\n\r\ncontract Providentia is Ownable, ERC20, ERC1155MixedFungibleMintable{\r\n  // @dev Library used to calculate time differences\r\n  using BokkyPooBahsDateTimeLibrary for uint;\r\n  // @dev Library to prevent integer overflow/underflow\r\n  using SafeMath for uint;\r\n\r\n    // @dev Mapping used to store user data\r\n    mapping( address => StudentData ) public addressToData;\r\n    // @dev Mappiing used to store the details of the Loan\r\n    mapping( address => StudentLoan) public addressToLoan;\r\n    // @dev Mapping used to track the Loan of the student\r\n    mapping( address => uint) public addressToBalance;\r\n    // @dev Mapping used to track the interest paid by the student\r\n    mapping( address => uint) public studentToInterest;\r\n    // @dev Mapping to know if the user has an outstanding loan\r\n    mapping( address => bool ) studentHasLoan;\r\n    // @dev address =>( idNFT => idFT )\r\n    mapping( address => mapping( uint => uint)) ownerToTypes;\r\n    // idNFT => amountTokens\r\n    // note: One NFT MUST have 100 FT attached, no more no less\r\n    mapping( address => mapping(uint => uint) ) tokensToValue;\r\n    // @dev Name of University To Address\r\n    mapping( string => address) addressToUniversity;\r\n\r\n        /***********************************|\r\n        |        Variables and Events       |\r\n        |__________________________________*/\r\n\r\n    event studentCreated (\r\n        address addressStudent,\r\n        uint studentId,\r\n        string _name,\r\n        uint _age,\r\n        string _country,\r\n        string _profAccount,\r\n        string _university\r\n        );\r\n\r\n    struct StudentData {\r\n        address addressStudent;\r\n        uint studentId;\r\n        string name;\r\n        uint age;\r\n        string country;\r\n        string university;\r\n        string profAccount;\r\n        uint idNFT;\r\n    }\r\n\r\n    struct StudentLoan {\r\n        uint amountDAI;\r\n        uint interestLoan;\r\n        uint amountFunded;\r\n        uint startDate;\r\n        uint endDate;\r\n        bool loanFunded;\r\n        bool loanAccepted;\r\n    }\r\n\r\n    struct FunderTokens {\r\n      address _addressFunder;\r\n      uint _amount;\r\n      address _addressFunded;\r\n      uint idNFT;\r\n    }\r\n\r\n    FunderTokens[] public Investors;\r\n\r\n    address[] sendTokens ;\r\n\r\n    uint[] valueSend = [100];\r\n\r\n    address stableCoinAddress ;\r\n\r\n    ERC1155MixedFungibleMintable _token;\r\n\r\n    modifier hasRequestedLoan(){\r\n      // Check if Student has already requested a loan\r\n        require( addressToLoan[msg.sender].amountDAI == 0, \"User has already initiated a Loan process\");\r\n        _;\r\n    }\r\n\r\n    modifier hasFundedLoan(address _addressToFund){\r\n      require( addressToLoan[_addressToFund].loanFunded == false, \"User has already a funded loan\");\r\n      _;\r\n    }\r\n\r\n    modifier hasActiveLoan(){\r\n      require(studentHasLoan[msg.sender] == true, \"This address doesn't have a loan associated\");\r\n      _;\r\n    }\r\n\r\n    modifier onlySchool(address _addressFunded){\r\n      require( addressToUniversity[addressToData[_addressFunded].university] == msg.sender,\r\n        \"The sender is not an approved school\");\r\n        _;\r\n    }\r\n\r\n    constructor(address _stableCoinAddress, ERC1155MixedFungibleMintable _tokenIERC1155) public{\r\n        stableCoinAddress = _stableCoinAddress;\r\n        _token = _tokenIERC1155;\r\n        sendTokens.push(msg.sender);\r\n    }\r\n\r\n    /**\r\n      @notice Function used to upgrade the contract address of DAI in case it changes\r\n      @param _addressCoin Address of the StableCoin Contract\r\n    */\r\n    function setStableCoinAddress(address _addressCoin) public onlyOwner{\r\n        stableCoinAddress = _addressCoin;\r\n    }\r\n\r\n    /**\r\n      @notice Function used to add the Student\r\n      @param _addressStudent Address of the Student to add\r\n      @param _studentId Id of the student\r\n      @param _name Name of the Student\r\n      @param _age Age of the Student\r\n      @param _country Country of the Student\r\n      @param _profAccount Github account of the Student\r\n      @param _university University in which the Student is attending to\r\n      @param _uri Used to store the JSON with the data of the Student\r\n    */\r\n    function addStudent(\r\n      address _addressStudent,\r\n      uint _studentId,\r\n      string memory _name,\r\n      uint _age,\r\n      string memory _country,\r\n      string memory _profAccount,\r\n      string memory _university,\r\n      string memory _uri\r\n    )\r\n      public\r\n\r\n    {\r\n\r\n        require(bytes(addressToData[_addressStudent].name).length == 0,\r\n        \"An address can only have one Student associated\");\r\n\r\n        require(addressToUniversity[_university] != address(0), \"University hasn't been added yet\");\r\n\r\n        uint _type = _token.create(_uri, true);\r\n        _token.mintNonFungible(_type, sendTokens);\r\n        uint _id = _token.create(_uri, false);\r\n        _token.mintFungible(_id, sendTokens, valueSend );\r\n\r\n        addressToData[_addressStudent] = StudentData(\r\n          _addressStudent,\r\n          _studentId,\r\n          _name,\r\n          _age,\r\n          _country,\r\n          _university,\r\n          _profAccount,\r\n          _type\r\n          );\r\n\r\n        emit studentCreated(\r\n          _addressStudent,\r\n          _studentId,\r\n          _name,\r\n          _age,\r\n          _country,\r\n          _profAccount,\r\n          _university\r\n          );\r\n    }\r\n\r\n    function addSchool(\r\n      address _addressSchool,\r\n      string memory _universityName\r\n      )\r\n      public onlyOwner{\r\n        require(addressToUniversity[_universityName] != address(0));\r\n        addressToUniversity[_universityName] = _addressSchool;\r\n    }\r\n\r\n    /**\r\n      @notice Function used to initiate a Loan process and get funded\r\n      @param _interestLoan Interest rate the student is willing to pay\r\n      @dev For this usecase the Student can request a fixed amount of 50000 DAI\r\n           and have a deadline of 5 years to repay the Loan\r\n    */\r\n    function requestLoan( uint _interestLoan) public hasRequestedLoan{\r\n\r\n        //Check if the Student has been added before letting him request a loan\r\n        require(bytes(addressToData[msg.sender].name).length != 0,\r\n        \"Student hasn't been added yet\");\r\n\r\n        //Update the Mapping\r\n        addressToLoan[msg.sender] = StudentLoan(50000, _interestLoan, 0, now, now.addYears(5), false, false);\r\n\r\n        addressToBalance[msg.sender] = 0;\r\n        // When requesting a loan the Student hasn't accept it yet\r\n        studentHasLoan[msg.sender] = false;\r\n\r\n    }\r\n\r\n    /**\r\n      @notice Function used to add money to the pool for the Student\r\n      @param _addressToFund Address of the user to be funded\r\n      @dev Each token costs 500 DAI and each token represents a share of the loan\r\n\r\n    */\r\n    function addMoneyPool(address _addressToFund) public hasFundedLoan(_addressToFund){\r\n      ERC20 stableCoinContract = ERC20(stableCoinAddress);\r\n      uint tokenAmount = stableCoinContract.allowance(msg.sender, address(this));\r\n\r\n      require(tokenAmount >= (addressToLoan[_addressToFund].amountDAI.div(100))\r\n      && ( tokenAmount % 500 ) == 0 ,\r\n      \"The amount sent must be a multiplier of 500. Each token costs 500 DAI\");\r\n\r\n      // If the investor sends more than the MAX_CAP which is 50K\r\n      if( tokenAmount >= 50000 - addressToBalance[_addressToFund] ){\r\n        tokensToValue[msg.sender][addressToData[_addressToFund].idNFT] += (50000 - addressToBalance[_addressToFund]).div(500);\r\n        Investors.push(FunderTokens(msg.sender, tokenAmount.div(500), _addressToFund, addressToData[_addressToFund].idNFT));\r\n        addressToLoan[_addressToFund].loanFunded = true;\r\n        stableCoinContract.transferFrom(msg.sender, address(this), 50000 - addressToBalance[_addressToFund]);\r\n        addressToBalance[_addressToFund] +=50000 - addressToBalance[_addressToFund];\r\n\r\n      }\r\nelse{\r\n      tokensToValue[msg.sender][addressToData[_addressToFund].idNFT] = tokenAmount.div(500);\r\n      Investors.push(FunderTokens(msg.sender, 50000 - addressToBalance[_addressToFund].div(500), _addressToFund, addressToData[_addressToFund].idNFT));\r\n      addressToBalance[_addressToFund] += tokenAmount;\r\n      stableCoinContract.transferFrom(msg.sender, address(this), tokenAmount);\r\n    }\r\n    }\r\n\r\n    /**\r\n      @notice Function to withdraw the loan of the Student\r\n      @param _amount Amount the user is willing to withdraw\r\n    */\r\n    function withdrawLoan(uint _amount) public{\r\n      require(_amount < addressToBalance[msg.sender] || addressToBalance[msg.sender] != 0);\r\n      ERC20 stableCoinContract = ERC20(stableCoinAddress);\r\n      stableCoinContract.transfer(msg.sender, _amount);\r\n    }\r\n\r\n    /**\r\n      @notice Function to accept the proposed loan\r\n      @param _addressFunded Address of the user funded\r\n    */\r\n\r\n    function acceptLoan(address _addressFunded) public onlySchool(_addressFunded){\r\n      require(addressToLoan[_addressFunded].loanFunded == true, \"Loan has not been funded completely\");\r\n      addressToLoan[_addressFunded].loanAccepted = true;\r\n      studentHasLoan[_addressFunded] = true;\r\n    }\r\n\r\n    /**\r\n      @notice Function used by the Student to repay the Loan\r\n      @dev First you need to call an approve transaction\r\n    */\r\n\r\n    function repayLoan() public hasActiveLoan{\r\n\r\n        ERC20 stableCoinContract = ERC20(stableCoinAddress);\r\n        uint tokenAmount = stableCoinContract.allowance(msg.sender, address(this));\r\n        stableCoinContract.transferFrom(msg.sender, address(this), tokenAmount);\r\n        //Calculate Interest matured\r\n        _calculateInterest(tokenAmount);\r\n    }\r\n\r\n    function _calculateInterest(uint tokenAmount) internal{\r\n      uint _interest = ( 50000 * (addressToLoan[msg.sender].interestLoan.mul(100)).mul(addressToLoan[msg.sender].startDate.diffDays( now)) ).div(36500);\r\n    //  addressToBalance[msg.sender].sub(tokenAmount.sub(_interest));\r\n      studentToInterest[msg.sender].add(_interest);\r\n    }\r\n\r\n    /**\r\n      @notice Function for the Investors to withdraw their share\r\n      @param _addressFunded Address of the funded student\r\n    */\r\n    function withdrawRepaidLoan(address _addressFunded) public {\r\n\r\n            uint share = _calculateRepayment(_addressFunded);\r\n            ERC20 stableCoinContract = ERC20(stableCoinAddress);\r\n            stableCoinContract.transfer(msg.sender, share);\r\n\r\n    }\r\n\r\n    function _calculateRepayment(address _addressFunded) internal returns(uint share) {\r\n      for(uint i = 0; i<Investors.length; i++){\r\n        if(Investors[i]._addressFunded == _addressFunded){\r\n          uint _tokenAmount = tokensToValue[msg.sender][Investors[i].idNFT];\r\n          share = (addressToBalance[_addressFunded].mul(_tokenAmount.div(100)));\r\n          //Reduce token value\r\n      }\r\n    }\r\n\r\n    }\r\n\r\n    /**\r\n      @notice Function to calculate the share of the sender\r\n      @param _addressFunded Address of the funded student\r\n    **/\r\n\r\n    function getShare(address _addressFunded) public view returns(uint _share){\r\n      for(uint i = 0; i<Investors.length; i++){\r\n        if(Investors[i]._addressFunded == _addressFunded){\r\n          uint _tokenAmount = tokensToValue[msg.sender][Investors[i].idNFT];\r\n          _share = (addressToBalance[_addressFunded].mul(_tokenAmount.div(100)));\r\n          //Reduce token value\r\n      }\r\n\r\n    }\r\n  }\r\n\r\n}\r\n",
  "sourcePath": "C:/Users/tredg/Providentia/contracts/Providentia.sol",
  "compiler": {
    "name": "solc",
    "version": "0.5.0+commit.1d4f565a.Emscripten.clang"
  },
  "schemaVersion": "3.0.11",
  "updatedAt": "2019-07-06T18:43:15.331Z",
  "devdoc": {
    "details": "See https://providentia.netlify.com/\r Note: Some values are hardcoded in order to represent a specific usecase\r",
    "methods": {
      "acceptLoan(address)": {
        "params": {
          "_addressFunded": "Address of the user funded\r"
        }
      },
      "addMoneyPool(address)": {
        "details": "Each token costs 500 DAI and each token represents a share of the loan\r",
        "params": {
          "_addressToFund": "Address of the user to be funded\r"
        }
      },
      "addStudent(address,uint256,string,uint256,string,string,string,string)": {
        "params": {
          "_addressStudent": "Address of the Student to add\r",
          "_age": "Age of the Student\r",
          "_country": "Country of the Student\r",
          "_name": "Name of the Student\r",
          "_profAccount": "Github account of the Student\r",
          "_studentId": "Id of the student\r",
          "_university": "University in which the Student is attending to\r",
          "_uri": "Used to store the JSON with the data of the Student\r"
        }
      },
      "allowance(address,address)": {
        "details": "See `IERC20.allowance`."
      },
      "approve(address,uint256)": {
        "details": "See `IERC20.approve`.     * Requirements:     * - `spender` cannot be the zero address."
      },
      "balanceOf(address)": {
        "details": "See `IERC20.balanceOf`."
      },
      "decreaseAllowance(address,uint256)": {
        "details": "Atomically decreases the allowance granted to `spender` by the caller.     * This is an alternative to `approve` that can be used as a mitigation for problems described in `IERC20.approve`.     * Emits an `Approval` event indicating the updated allowance.     * Requirements:     * - `spender` cannot be the zero address. - `spender` must have allowance for the caller of at least `subtractedValue`."
      },
      "getShare(address)": {
        "params": {
          "_addressFunded": "Address of the funded student\r*"
        }
      },
      "increaseAllowance(address,uint256)": {
        "details": "Atomically increases the allowance granted to `spender` by the caller.     * This is an alternative to `approve` that can be used as a mitigation for problems described in `IERC20.approve`.     * Emits an `Approval` event indicating the updated allowance.     * Requirements:     * - `spender` cannot be the zero address."
      },
      "isApprovedForAll(address,address)": {
        "params": {
          "_operator": "Address of authorized operator\r",
          "_owner": "The owner of the Tokens\r"
        },
        "return": "True if the operator is approved, false if not\r"
      },
      "isOwner()": {
        "return": "true if msg.sender is the owner of the contract.\r"
      },
      "owner()": {
        "return": "the address of the owner.\r"
      },
      "renounceOwnership()": {
        "details": "Allows the current owner to relinquish control of the contract.\r It will not be possible to call the functions with the onlyOwner\r modifier anymore.\r"
      },
      "repayLoan()": {
        "details": "First you need to call an approve transaction\r"
      },
      "requestLoan(uint256)": {
        "details": "For this usecase the Student can request a fixed amount of 50000 DAI\r and have a deadline of 5 years to repay the Loan\r",
        "params": {
          "_interestLoan": "Interest rate the student is willing to pay\r"
        }
      },
      "setApprovalForAll(address,bool)": {
        "details": "MUST emit the ApprovalForAll event on success.\r",
        "params": {
          "_approved": "True if the operator is approved, false to revoke approval\r",
          "_operator": "Address to add to the set of authorized operators\r"
        }
      },
      "setStableCoinAddress(address)": {
        "params": {
          "_addressCoin": "Address of the StableCoin Contract\r"
        }
      },
      "totalSupply()": {
        "details": "See `IERC20.totalSupply`."
      },
      "transfer(address,uint256)": {
        "details": "See `IERC20.transfer`.     * Requirements:     * - `recipient` cannot be the zero address. - the caller must have a balance of at least `amount`."
      },
      "transferFrom(address,address,uint256)": {
        "details": "See `IERC20.transferFrom`.     * Emits an `Approval` event indicating the updated allowance. This is not required by the EIP. See the note at the beginning of `ERC20`;     * Requirements: - `sender` and `recipient` cannot be the zero address. - `sender` must have a balance of at least `value`. - the caller must have allowance for `sender`'s tokens of at least `amount`."
      },
      "transferOwnership(address)": {
        "details": "Allows the current owner to transfer control of the contract to a newOwner.\r",
        "params": {
          "newOwner": "The address to transfer ownership to.\r"
        }
      },
      "withdrawLoan(uint256)": {
        "params": {
          "_amount": "Amount the user is willing to withdraw\r"
        }
      },
      "withdrawRepaidLoan(address)": {
        "params": {
          "_addressFunded": "Address of the funded student\r"
        }
      }
    },
    "title": "Providentia, providing students with loan\r"
  },
  "userdoc": {
    "methods": {
      "acceptLoan(address)": {
        "notice": "Function to accept the proposed loan\r"
      },
      "addMoneyPool(address)": {
        "notice": "Function used to add money to the pool for the Student\r"
      },
      "addStudent(address,uint256,string,uint256,string,string,string,string)": {
        "notice": "Function used to add the Student\r"
      },
      "getShare(address)": {
        "notice": "Function to calculate the share of the sender\r"
      },
      "isApprovedForAll(address,address)": {
        "notice": "Queries the approval status of an operator for a given owner.\r"
      },
      "renounceOwnership()": {
        "notice": "Renouncing ownership will leave the contract without an owner,\r thereby removing any functionality that is only available to the owner.\r"
      },
      "repayLoan()": {
        "notice": "Function used by the Student to repay the Loan\r"
      },
      "requestLoan(uint256)": {
        "notice": "Function used to initiate a Loan process and get funded\r"
      },
      "setApprovalForAll(address,bool)": {
        "notice": "Enable or disable approval for a third party (\"operator\") to manage all of the caller's tokens.\r"
      },
      "setStableCoinAddress(address)": {
        "notice": "Function used to upgrade the contract address of DAI in case it changes\r"
      },
      "withdrawLoan(uint256)": {
        "notice": "Function to withdraw the loan of the Student\r"
      },
      "withdrawRepaidLoan(address)": {
        "notice": "Function for the Investors to withdraw their share\r"
      }
    }
  }
}