{
  "contractName": "ProxyReceiverStorage_001_ERC1155MockReceiver",
  "abi": [
    {
      "constant": true,
      "inputs": [],
      "name": "shouldReject",
      "outputs": [
        {
          "name": "",
          "type": "bool"
        }
      ],
      "payable": false,
      "stateMutability": "view",
      "type": "function"
    },
    {
      "constant": true,
      "inputs": [
        {
          "name": "",
          "type": "bytes4"
        }
      ],
      "name": "delegates",
      "outputs": [
        {
          "name": "",
          "type": "address"
        }
      ],
      "payable": false,
      "stateMutability": "view",
      "type": "function"
    }
  ],
  "bytecode": "0x608060405234801561001057600080fd5b50610163806100206000396000f3fe60806040526004361061004b5763ffffffff7c01000000000000000000000000000000000000000000000000000000006000350416631dbb93818114610050578063a0a2daf014610079575b600080fd5b34801561005c57600080fd5b506100656100ee565b604080519115158252519081900360200190f35b34801561008557600080fd5b506100c56004803603602081101561009c57600080fd5b50357fffffffff000000000000000000000000000000000000000000000000000000001661010f565b6040805173ffffffffffffffffffffffffffffffffffffffff9092168252519081900360200190f35b60035474010000000000000000000000000000000000000000900460ff1681565b60006020819052908152604090205473ffffffffffffffffffffffffffffffffffffffff168156fea165627a7a72305820932b0be0dfcabf468f2729af2f6df2026f6d723396045325e3de52198ef779ab0029",
  "source": "pragma solidity ^0.5.0;\r\n\r\nimport \"../ProxyBaseStorage.sol\";\r\n\r\n///////////////////////////////////////////////////////////////////////////////////////////////////\r\n/**\r\n * @title DelegatesStorage\r\n * @dev Defining storage inheritance for the delegate contract(s).\r\n *      Note:   This is not the only way to define your storage, DYOR.\r\n */\r\n///////////////////////////////////////////////////////////////////////////////////////////////////\r\n\r\ncontract ProxyReceiverStorage_001_ERC1155MockReceiver is ProxyBaseStorage {\r\n\r\n    //////////////////////////////////////////// VARS /////////////////////////////////////////////\r\n\r\n    // Note: if you alter these values in another delegate impl it affects this too\r\n    bool public shouldReject;\r\n\r\n    ///////////////////////////////////////////////////////////////////////////////////////////////\r\n\r\n}\r\n\r\n///////////////////////////////////////////////////////////////////////////////////////////////////\r\n\r\ncontract ProxyReceiverStorage_002_ERCXXXXFuture is ProxyReceiverStorage_001_ERC1155MockReceiver {\r\n\r\n    //////////////////////////////////////////// VARS /////////////////////////////////////////////\r\n\r\n    bool public shouldRejectXXXX; // var renamed to be specific to prevent clash with parent data version\r\n\r\n    ///////////////////////////////////////////////////////////////////////////////////////////////\r\n\r\n}\r\n\r\n///////////////////////////////////////////////////////////////////////////////////////////////////",
  "sourcePath": "C:\\Users\\tredg\\Providentia\\contracts\\ProxyReceiver\\Delegates\\DelegatesStorage.sol",
  "compiler": {
    "name": "solc",
    "version": "0.5.0+commit.1d4f565a.Emscripten.clang"
  },
  "schemaVersion": "3.0.11",
  "updatedAt": "2019-07-07T21:15:52.705Z",
  "devdoc": {
    "methods": {}
  },
  "userdoc": {
    "methods": {},
    "notice": "////////////////////////////////////////////////////////////////////////////////////////////////"
  }
}