{
  "contractName": "ProxyBaseStorage",
  "abi": [
    {
      "constant": true,
      "inputs": [
        {
          "name": "",
          "type": "bytes4"
        }
      ],
      "name": "delegates",
      "outputs": [
        {
          "name": "",
          "type": "address"
        }
      ],
      "payable": false,
      "stateMutability": "view",
      "type": "function"
    }
  ],
  "bytecode": "0x608060405234801561001057600080fd5b50610108806100206000396000f3fe608060405260043610603e5763ffffffff7c0100000000000000000000000000000000000000000000000000000000600035041663a0a2daf081146043575b600080fd5b348015604e57600080fd5b50608b60048036036020811015606357600080fd5b50357fffffffff000000000000000000000000000000000000000000000000000000001660b4565b6040805173ffffffffffffffffffffffffffffffffffffffff9092168252519081900360200190f35b60006020819052908152604090205473ffffffffffffffffffffffffffffffffffffffff168156fea165627a7a723058200b5e431eef6190fc7861c2595659bbeafda15c230329e4fd811225d5eb68aa060029",
  "source": "pragma solidity ^0.5.0;\r\n\r\n///////////////////////////////////////////////////////////////////////////////////////////////////\r\n/**\r\n * @title ProxyBaseStorage\r\n * @dev Defining base storage for the proxy contract.\r\n */\r\n///////////////////////////////////////////////////////////////////////////////////////////////////\r\n\r\ncontract ProxyBaseStorage {\r\n\r\n    //////////////////////////////////////////// VARS /////////////////////////////////////////////\r\n\r\n    // maps functions to the delegate contracts that execute the functions.\r\n    // funcId => delegate contract\r\n    mapping(bytes4 => address) public delegates;\r\n\r\n    // array of function signatures supported by the contract.\r\n    bytes[] internal funcSignatures;\r\n\r\n    // maps each function signature to its position in the funcSignatures array.\r\n    // signature => index+1\r\n    mapping(bytes => uint256) internal funcSignatureToIndex;\r\n\r\n    // proxy address of itself, can be used for cross-delegate calls but also safety checking.\r\n    address proxy;\r\n\r\n    ///////////////////////////////////////////////////////////////////////////////////////////////\r\n\r\n}\r\n",
  "sourcePath": "C:\\Users\\tredg\\Providentia\\contracts\\ProxyReceiver\\ProxyBaseStorage.sol",
  "compiler": {
    "name": "solc",
    "version": "0.5.0+commit.1d4f565a.Emscripten.clang"
  },
  "schemaVersion": "3.0.11",
  "updatedAt": "2019-07-07T13:49:42.268Z",
  "devdoc": {
    "methods": {}
  },
  "userdoc": {
    "methods": {},
    "notice": "////////////////////////////////////////////////////////////////////////////////////////////////"
  }
}